{
	"data": {
		"bytecode": {
			"linkReferences": {},
			"object": "60a06040523480156200001157600080fd5b5060405162005c8138038062005c818339818101604052810190620000379190620006c6565b60008060006101000a81548160ff0219169083151502179055508360ff1660808160ff16815250508160028190555080600481905550620000826000801b336200016260201b60201c565b600560008060001b81526020019081526020016000206000815480929190620000ab9062000786565b9190505550620000e57fe2b7fb3b832174769106daebcfd6d1970523240dda11281102db9363b83b0dc46000801b6200017860201b60201c565b60005b83518110156200015757620001417fe2b7fb3b832174769106daebcfd6d1970523240dda11281102db9363b83b0dc48583815181106200012d576200012c620007d3565b5b6020026020010151620001dc60201b60201c565b80806200014e9062000786565b915050620000e8565b5050505050620008f7565b6200017482826200028260201b60201c565b5050565b60006200018b836200037360201b60201c565b90508160016000858152602001908152602001600020600101819055508181847fbd79b86ffe0ab8e8776151514217cd7cacd52c909f66475c3af44e129f0b00ff60405160405180910390a4505050565b620001ec6200039360201b60201c565b620001fe8282620003ec60201b60201c565b1562000241576040517f08c379a0000000000000000000000000000000000000000000000000000000008152600401620002389062000863565b60405180910390fd5b6200025382826200028260201b60201c565b600560008381526020019081526020016000206000815480929190620002799062000786565b91905055505050565b620002948282620003ec60201b60201c565b6200036f57600180600084815260200190815260200160002060000160008373ffffffffffffffffffffffffffffffffffffffff1673ffffffffffffffffffffffffffffffffffffffff16815260200190815260200160002060006101000a81548160ff021916908315150217905550620003146200045760201b60201c565b73ffffffffffffffffffffffffffffffffffffffff168173ffffffffffffffffffffffffffffffffffffffff16837f2f8788117e7eff1d82e926ec794901d17c78024a50270940304540a733656f0d60405160405180910390a45b5050565b600060016000838152602001908152602001600020600101549050919050565b620003a86000801b33620003ec60201b60201c565b620003ea576040517f08c379a0000000000000000000000000000000000000000000000000000000008152600401620003e190620008d5565b60405180910390fd5b565b60006001600084815260200190815260200160002060000160008373ffffffffffffffffffffffffffffffffffffffff1673ffffffffffffffffffffffffffffffffffffffff16815260200190815260200160002060009054906101000a900460ff16905092915050565b600033905090565b6000604051905090565b600080fd5b600080fd5b600060ff82169050919050565b6200048b8162000473565b81146200049757600080fd5b50565b600081519050620004ab8162000480565b92915050565b600080fd5b6000601f19601f8301169050919050565b7f4e487b7100000000000000000000000000000000000000000000000000000000600052604160045260246000fd5b6200050182620004b6565b810181811067ffffffffffffffff82111715620005235762000522620004c7565b5b80604052505050565b6000620005386200045f565b9050620005468282620004f6565b919050565b600067ffffffffffffffff821115620005695762000568620004c7565b5b602082029050602081019050919050565b600080fd5b600073ffffffffffffffffffffffffffffffffffffffff82169050919050565b6000620005ac826200057f565b9050919050565b620005be816200059f565b8114620005ca57600080fd5b50565b600081519050620005de81620005b3565b92915050565b6000620005fb620005f5846200054b565b6200052c565b905080838252602082019050602084028301858111156200062157620006206200057a565b5b835b818110156200064e5780620006398882620005cd565b84526020840193505060208101905062000623565b5050509392505050565b600082601f83011262000670576200066f620004b1565b5b815162000682848260208601620005e4565b91505092915050565b6000819050919050565b620006a0816200068b565b8114620006ac57600080fd5b50565b600081519050620006c08162000695565b92915050565b60008060008060808587031215620006e357620006e262000469565b5b6000620006f3878288016200049a565b945050602085015167ffffffffffffffff8111156200071757620007166200046e565b5b620007258782880162000658565b93505060406200073887828801620006af565b92505060606200074b87828801620006af565b91505092959194509250565b7f4e487b7100000000000000000000000000000000000000000000000000000000600052601160045260246000fd5b600062000793826200068b565b91507fffffffffffffffffffffffffffffffffffffffffffffffffffffffffffffffff8203620007c857620007c762000757565b5b600182019050919050565b7f4e487b7100000000000000000000000000000000000000000000000000000000600052603260045260246000fd5b600082825260208201905092915050565b7f6164647220616c7265616479206861732074686520726f6c6521000000000000600082015250565b60006200084b601a8362000802565b9150620008588262000813565b602082019050919050565b600060208201905081810360008301526200087e816200083c565b9050919050565b7f73656e64657220646f65736e277420686176652061646d696e20726f6c650000600082015250565b6000620008bd601e8362000802565b9150620008ca8262000885565b602082019050919050565b60006020820190508181036000830152620008f081620008ae565b9050919050565b60805161536e6200091360003960006126b7015261536e6000f3fe6080604052600436106102725760003560e01c806383a693361161014f578063beab7131116100c1578063d7a9cd791161007a578063d7a9cd7914610984578063deb4b6d7146109af578063e8437ee7146109ec578063e934768314610a15578063fe1f766514610a40578063ffaac0eb14610a6957610272565b8063beab713114610874578063c4c6cd411461089f578063c5ec8970146108ca578063cb10f215146108f5578063cd1a03221461091e578063d547741f1461095b57610272565b8063926d7d7f11610113578063926d7d7f146107645780639d5773e01461078f578063a217fddf146107ba578063a9cf69fa146107e5578063b96f8f3214610822578063bc7a16b71461084b57610272565b806383a693361461066f57806383d3f95d1461069857806384db809f146106c15780638c0c2631146106fe57806391d148541461072757610272565b80634603ae38116101e85780635c975abb116101ac5780635c975abb146105755780635e1fab0f146105a0578063780cf004146105c95780637d026d96146105f25780637febe63f1461061b57806380ae1c281461065857610272565b80634603ae38146104695780634b0b919d146104925780634e056005146104cf57806350598719146104f8578063541d55481461053857610272565b8063248a9ca31161023a578063248a9ca31461034b578063280ce54e146103885780632f2ff15d146103b157806336568abe146103da5780633ee7094a146104035780634454b20d1461044057610272565b806301ffc9a71461027757806305e2ca17146102b457806312791c4e146102d057806317f03ce5146102f95780631ff013f114610322575b600080fd5b34801561028357600080fd5b5061029e6004803603810190610299919061327a565b610a80565b6040516102ab91906132c2565b60405180910390f35b6102ce60048036038101906102c991906133b1565b610afa565b005b3480156102dc57600080fd5b506102f760048036038101906102f291906134af565b610d19565b005b34801561030557600080fd5b50610320600480360381019061031b9190613542565b610d99565b005b34801561032e57600080fd5b5061034960048036038101906103449190613595565b610f63565b005b34801561035757600080fd5b50610372600480360381019061036d91906135fc565b61170b565b60405161037f9190613638565b60405180910390f35b34801561039457600080fd5b506103af60048036038101906103aa9190613653565b61172b565b005b3480156103bd57600080fd5b506103d860048036038101906103d39190613653565b6117e3565b005b3480156103e657600080fd5b5061040160048036038101906103fc9190613653565b61186c565b005b34801561040f57600080fd5b5061042a60048036038101906104259190613693565b611961565b6040516104379190613763565b60405180910390f35b34801561044c57600080fd5b5061046760048036038101906104629190613785565b611a0e565b005b34801561047557600080fd5b50610490600480360381019061048b91906138b9565b611d9a565b005b34801561049e57600080fd5b506104b960048036038101906104b4919061393a565b611e51565b6040516104c69190613976565b60405180910390f35b3480156104db57600080fd5b506104f660048036038101906104f191906139c7565b611e78565b005b34801561050457600080fd5b5061051f600480360381019061051a9190613a35565b611eb7565b60405161052f9493929190613afb565b60405180910390f35b34801561054457600080fd5b5061055f600480360381019061055a9190613b40565b611f01565b60405161056c91906132c2565b60405180910390f35b34801561058157600080fd5b5061058a611f34565b60405161059791906132c2565b60405180910390f35b3480156105ac57600080fd5b506105c760048036038101906105c29190613b40565b611f4a565b005b3480156105d557600080fd5b506105f060048036038101906105eb9190613b6d565b611f6f565b005b3480156105fe57600080fd5b50610619600480360381019061061491906139c7565b611ff2565b005b34801561062757600080fd5b50610642600480360381019061063d9190613bd4565b612031565b60405161064f91906132c2565b60405180910390f35b34801561066457600080fd5b5061066d61206d565b005b34801561067b57600080fd5b5061069660048036038101906106919190613c65565b61207f565b005b3480156106a457600080fd5b506106bf60048036038101906106ba9190613cb8565b6120ff565b005b3480156106cd57600080fd5b506106e860048036038101906106e391906135fc565b6121ba565b6040516106f59190613d1a565b60405180910390f35b34801561070a57600080fd5b5061072560048036038101906107209190613d35565b6121ed565b005b34801561073357600080fd5b5061074e60048036038101906107499190613653565b61226a565b60405161075b91906132c2565b60405180910390f35b34801561077057600080fd5b506107796122d5565b6040516107869190613638565b60405180910390f35b34801561079b57600080fd5b506107a46122f9565b6040516107b19190613d75565b60405180910390f35b3480156107c657600080fd5b506107cf6122ff565b6040516107dc9190613638565b60405180910390f35b3480156107f157600080fd5b5061080c60048036038101906108079190613542565b612306565b6040516108199190613ef1565b60405180910390f35b34801561082e57600080fd5b5061084960048036038101906108449190613f13565b612467565b005b34801561085757600080fd5b50610872600480360381019061086d9190613f13565b61258e565b005b34801561088057600080fd5b506108896126b5565b6040516108969190613f62565b60405180910390f35b3480156108ab57600080fd5b506108b46126d9565b6040516108c19190613638565b60405180910390f35b3480156108d657600080fd5b506108df6126fd565b6040516108ec9190613d75565b60405180910390f35b34801561090157600080fd5b5061091c60048036038101906109179190613f7d565b612703565b005b34801561092a57600080fd5b50610945600480360381019061094091906135fc565b6127d5565b6040516109529190613d75565b60405180910390f35b34801561096757600080fd5b50610982600480360381019061097d9190613653565b6127ed565b005b34801561099057600080fd5b50610999612875565b6040516109a69190613d75565b60405180910390f35b3480156109bb57600080fd5b506109d660048036038101906109d191906135fc565b61287b565b6040516109e39190613d75565b60405180910390f35b3480156109f857600080fd5b50610a136004803603810190610a0e9190613fd0565b61293c565b005b348015610a2157600080fd5b50610a2a612a14565b604051610a379190613638565b60405180910390f35b348015610a4c57600080fd5b50610a676004803603810190610a62919061404b565b612a38565b005b348015610a7557600080fd5b50610a7e612b6b565b005b60007f7965db0b000000000000000000000000000000000000000000000000000000007bffffffffffffffffffffffffffffffffffffffffffffffffffffffff1916827bffffffffffffffffffffffffffffffffffffffffffffffffffffffff19161480610af35750610af282612b7d565b5b9050919050565b610b02612be7565b60006007600085815260200190815260200160002060009054906101000a900473ffffffffffffffffffffffffffffffffffffffff169050600073ffffffffffffffffffffffffffffffffffffffff168173ffffffffffffffffffffffffffffffffffffffff1603610ba9576040517f08c379a0000000000000000000000000000000000000000000000000000000008152600401610ba090614135565b60405180910390fd5b6000600660008760ff1660ff168152602001908152602001600020600081819054906101000a900467ffffffffffffffff16610be490614184565b91906101000a81548167ffffffffffffffff021916908367ffffffffffffffff160217905590508383600860008467ffffffffffffffff1667ffffffffffffffff16815260200190815260200160002060008960ff1660ff1681526020019081526020016000209182610c589291906143fa565b5060008290508073ffffffffffffffffffffffffffffffffffffffff166338995da934888a86338b8b6040518863ffffffff1660e01b8152600401610ca296959493929190614506565b6000604051808303818588803b158015610cbb57600080fd5b505af1158015610ccf573d6000803e3d6000fd5b50505050508167ffffffffffffffff16868860ff167fdbb69440df8433824a026ef190652f29929eb64b4d1d5d2a69be8afe3e6eaed860405160405180910390a450505050505050565b610d21612c31565b60008390508073ffffffffffffffffffffffffffffffffffffffff1663cde252ac84846040518363ffffffff1660e01b8152600401610d61929190614562565b600060405180830381600087803b158015610d7b57600080fd5b505af1158015610d8f573d6000803e3d6000fd5b5050505050505050565b610da1612c7f565b60008360ff1660088467ffffffffffffffff1668ffffffffffffffffff16901b1790506000600960008368ffffffffffffffffff1668ffffffffffffffffff16815260200190815260200160002060008481526020019081526020016000209050600480811115610e1557610e14613a75565b5b8160030160009054906101000a900460ff166004811115610e3957610e38613a75565b5b03610e79576040517f08c379a0000000000000000000000000000000000000000000000000000000008152600401610e70906145d7565b60405180910390fd5b600454816004015443610e8c91906145f7565b11610ecc576040517f08c379a0000000000000000000000000000000000000000000000000000000008152600401610ec390614677565b60405180910390fd5b60048160030160006101000a81548160ff02191690836004811115610ef457610ef3613a75565b5b0217905550600480811115610f0c57610f0b613a75565b5b8467ffffffffffffffff168660ff167f803c5a12f6bde629cea32e63d4b92d1b560816a6fb72e939d3c89e1cab65041784600001548560010154604051610f54929190614697565b60405180910390a45050505050565b610f6b612cfe565b610f73612be7565b60008460ff1660088567ffffffffffffffff1668ffffffffffffffffff16901b1790506000600960008368ffffffffffffffffff1668ffffffffffffffffff16815260200190815260200160002060008481526020019081526020016000209050600073ffffffffffffffffffffffffffffffffffffffff166007600086815260200190815260200160002060009054906101000a900473ffffffffffffffffffffffffffffffffffffffff1673ffffffffffffffffffffffffffffffffffffffff1603611076576040517f08c379a000000000000000000000000000000000000000000000000000000000815260040161106d9061470c565b60405180910390fd5b60018160030160009054906101000a900460ff16600481111561109c5761109b613a75565b5b11156110dd576040517f08c379a00000000000000000000000000000000000000000000000000000000081526004016110d49061479e565b60405180910390fd5b600a60008368ffffffffffffffffff1668ffffffffffffffffff168152602001908152602001600020600084815260200190815260200160002060003373ffffffffffffffffffffffffffffffffffffffff1673ffffffffffffffffffffffffffffffffffffffff16815260200190815260200160002060009054906101000a900460ff16156111a2576040517f08c379a00000000000000000000000000000000000000000000000000000000081526004016111999061480a565b60405180910390fd5b60008160030160009054906101000a900460ff1660048111156111c8576111c7613a75565b5b036113cf576003600081546111dc9061482a565b919050819055506040518060a00160405280858152602001848152602001600167ffffffffffffffff811115611215576112146141bf565b5b6040519080825280602002602001820160405280156112435781602001602082028036833780820191505090505b5081526020016001600481111561125d5761125c613a75565b5b815260200143815250600960008468ffffffffffffffffff1668ffffffffffffffffff1681526020019081526020016000206000858152602001908152602001600020600082015181600001556020820151816001015560408201518160020190805190602001906112d092919061312a565b5060608201518160030160006101000a81548160ff021916908360048111156112fc576112fb613a75565b5b021790555060808201518160040155905050338160020160008154811061132657611325614872565b5b9060005260206000200160006101000a81548173ffffffffffffffffffffffffffffffffffffffff021916908373ffffffffffffffffffffffffffffffffffffffff1602179055506001600481111561138257611381613a75565b5b8567ffffffffffffffff168760ff167f803c5a12f6bde629cea32e63d4b92d1b560816a6fb72e939d3c89e1cab65041787876040516113c2929190614697565b60405180910390a4611522565b6004548160040154436113e291906145f7565b11156114755760048160030160006101000a81548160ff021916908360048111156114105761140f613a75565b5b021790555060048081111561142857611427613a75565b5b8567ffffffffffffffff168760ff167f803c5a12f6bde629cea32e63d4b92d1b560816a6fb72e939d3c89e1cab6504178787604051611468929190614697565b60405180910390a4611521565b806001015483146114bb576040517f08c379a00000000000000000000000000000000000000000000000000000000081526004016114b2906148ed565b60405180910390fd5b80600201339080600181540180825580915050600190039060005260206000200160009091909190916101000a81548173ffffffffffffffffffffffffffffffffffffffff021916908373ffffffffffffffffffffffffffffffffffffffff1602179055505b5b60048081111561153557611534613a75565b5b8160030160009054906101000a900460ff16600481111561155957611558613a75565b5b14611703576001600a60008468ffffffffffffffffff1668ffffffffffffffffff168152602001908152602001600020600085815260200190815260200160002060003373ffffffffffffffffffffffffffffffffffffffff1673ffffffffffffffffffffffffffffffffffffffff16815260200190815260200160002060006101000a81548160ff0219169083151502179055508060030160009054906101000a900460ff16600481111561161257611611613a75565b5b8567ffffffffffffffff168760ff167f25f8daaa4635a7729927ba3f5b3d59cc3320aca7c32c9db4e7ca7b9574343640876040516116509190613638565b60405180910390a460016002541115806116735750600254816002018054905010155b156117025760028160030160006101000a81548160ff021916908360048111156116a05761169f613a75565b5b0217905550600260048111156116b9576116b8613a75565b5b8567ffffffffffffffff168760ff167f803c5a12f6bde629cea32e63d4b92d1b560816a6fb72e939d3c89e1cab65041787876040516116f9929190614697565b60405180910390a45b5b505050505050565b600060016000838152602001908152602001600020600101549050919050565b611733612c31565b60006007600084815260200190815260200160002060009054906101000a900473ffffffffffffffffffffffffffffffffffffffff16905060008190508073ffffffffffffffffffffffffffffffffffffffff16631b7eeb1185856040518363ffffffff1660e01b81526004016117ab92919061490d565b600060405180830381600087803b1580156117c557600080fd5b505af11580156117d9573d6000803e3d6000fd5b5050505050505050565b6117eb612c31565b6117f5828261226a565b15611835576040517f08c379a000000000000000000000000000000000000000000000000000000000815260040161182c90614982565b60405180910390fd5b61183f8282612d69565b6005600083815260200190815260200160002060008154809291906118639061482a565b91905055505050565b611874612e49565b73ffffffffffffffffffffffffffffffffffffffff168173ffffffffffffffffffffffffffffffffffffffff16146118e1576040517f08c379a00000000000000000000000000000000000000000000000000000000081526004016118d890614a14565b60405180910390fd5b6118eb828261226a565b61192a576040517f08c379a000000000000000000000000000000000000000000000000000000000815260040161192190614a80565b60405180910390fd5b6119348282612e51565b60056000838152602001908152602001600020600081548092919061195890614aa0565b91905055505050565b600860205281600052604060002060205280600052604060002060009150915050805461198d9061421d565b80601f01602080910402602001604051908101604052809291908181526020018280546119b99061421d565b8015611a065780601f106119db57610100808354040283529160200191611a06565b820191906000526020600020905b8154815290600101906020018083116119e957829003601f168201915b505050505081565b611a16612cfe565b611a1e612be7565b60006007600083815260200190815260200160002060009054906101000a900473ffffffffffffffffffffffffffffffffffffffff16905060008660ff1660088767ffffffffffffffff1668ffffffffffffffffff16901b1790506000828686604051602001611a9093929190614b41565b6040516020818303038152906040528051906020012090506000600960008468ffffffffffffffffff1668ffffffffffffffffff16815260200190815260200160002060008381526020019081526020016000209050600454816004015443611af991906145f7565b1115611b3a576040517f08c379a0000000000000000000000000000000000000000000000000000000008152600401611b3190614bdd565b60405180910390fd5b80600001548514611b80576040517f08c379a0000000000000000000000000000000000000000000000000000000008152600401611b7790614c6f565b60405180910390fd5b60026004811115611b9457611b93613a75565b5b8160030160009054906101000a900460ff166004811115611bb857611bb7613a75565b5b14611bf8576040517f08c379a0000000000000000000000000000000000000000000000000000000008152600401611bef90614cdb565b60405180910390fd5b80600101548214611c3e576040517f08c379a0000000000000000000000000000000000000000000000000000000008152600401611c3590614d47565b60405180910390fd5b60038160030160006101000a81548160ff02191690836004811115611c6657611c65613a75565b5b02179055506000600760008360000154815260200190815260200160002060009054906101000a900473ffffffffffffffffffffffffffffffffffffffff1690508073ffffffffffffffffffffffffffffffffffffffff1663e248cff283600001548a8a6040518463ffffffff1660e01b8152600401611ce893929190614d67565b600060405180830381600087803b158015611d0257600080fd5b505af1158015611d16573d6000803e3d6000fd5b505050508160030160009054906101000a900460ff166004811115611d3e57611d3d613a75565b5b8967ffffffffffffffff168b60ff167f803c5a12f6bde629cea32e63d4b92d1b560816a6fb72e939d3c89e1cab65041785600001548660010154604051611d86929190614697565b60405180910390a450505050505050505050565b611da2612c31565b60005b84849050811015611e4a57848482818110611dc357611dc2614872565b5b9050602002016020810190611dd89190614d99565b73ffffffffffffffffffffffffffffffffffffffff166108fc848484818110611e0457611e03614872565b5b905060200201359081150290604051600060405180830381858888f19350505050158015611e36573d6000803e3d6000fd5b508080611e429061482a565b915050611da5565b5050505050565b60066020528060005260406000206000915054906101000a900467ffffffffffffffff1681565b611e80612c31565b80600281905550807fa20d6b84cd798a24038be305eff8a45ca82ef54a2aa2082005d8e14c0a4746c860405160405180910390a250565b6009602052816000526040600020602052806000526040600020600091509150508060000154908060010154908060030160009054906101000a900460ff16908060040154905084565b6000611f2d7fe2b7fb3b832174769106daebcfd6d1970523240dda11281102db9363b83b0dc48361226a565b9050919050565b60008060009054906101000a900460ff16905090565b611f52612c31565b611f5f6000801b826117e3565b611f6c6000801b3361186c565b50565b611f77612c31565b60008490508073ffffffffffffffffffffffffffffffffffffffff1663d9caed128585856040518463ffffffff1660e01b8152600401611fb993929190614dc6565b600060405180830381600087803b158015611fd357600080fd5b505af1158015611fe7573d6000803e3d6000fd5b505050505050505050565b611ffa612c31565b80600481905550807f5d6474e9753700923c386996848737c59d1178e1ebdcd4783340e53c0ff259db60405160405180910390a250565b600a602052826000526040600020602052816000526040600020602052806000526040600020600092509250509054906101000a900460ff1681565b612075612c31565b61207d612f33565b565b612087612c31565b60008390508073ffffffffffffffffffffffffffffffffffffffff16634782f77984846040518363ffffffff1660e01b81526004016120c7929190614e0c565b600060405180830381600087803b1580156120e157600080fd5b505af11580156120f5573d6000803e3d6000fd5b5050505050505050565b612107612f95565b60006007600085815260200190815260200160002060009054906101000a900473ffffffffffffffffffffffffffffffffffffffff16905060008190508073ffffffffffffffffffffffffffffffffffffffff166383d3f95d8686866040518463ffffffff1660e01b815260040161218193929190614e35565b600060405180830381600087803b15801561219b57600080fd5b505af11580156121af573d6000803e3d6000fd5b505050505050505050565b60076020528060005260406000206000915054906101000a900473ffffffffffffffffffffffffffffffffffffffff1681565b6121f5612c31565b60008290508073ffffffffffffffffffffffffffffffffffffffff166307b7ed99836040518263ffffffff1660e01b81526004016122339190613d1a565b600060405180830381600087803b15801561224d57600080fd5b505af1158015612261573d6000803e3d6000fd5b50505050505050565b60006001600084815260200190815260200160002060000160008373ffffffffffffffffffffffffffffffffffffffff1673ffffffffffffffffffffffffffffffffffffffff16815260200190815260200160002060009054906101000a900460ff16905092915050565b7fe2b7fb3b832174769106daebcfd6d1970523240dda11281102db9363b83b0dc481565b60035481565b6000801b81565b61230e6131b4565b60008460ff1660088567ffffffffffffffff1668ffffffffffffffffff16901b179050600960008268ffffffffffffffffff1668ffffffffffffffffff16815260200190815260200160002060008481526020019081526020016000206040518060a001604052908160008201548152602001600182015481526020016002820180548060200260200160405190810160405280929190818152602001828054801561240f57602002820191906000526020600020905b8160009054906101000a900473ffffffffffffffffffffffffffffffffffffffff1673ffffffffffffffffffffffffffffffffffffffff16815260200190600101908083116123c5575b505050505081526020016003820160009054906101000a900460ff16600481111561243d5761243c613a75565b5b600481111561244f5761244e613a75565b5b81526020016004820154815250509150509392505050565b61246f613000565b60006007600084815260200190815260200160002060009054906101000a900473ffffffffffffffffffffffffffffffffffffffff169050600073ffffffffffffffffffffffffffffffffffffffff168173ffffffffffffffffffffffffffffffffffffffff1603612516576040517f08c379a000000000000000000000000000000000000000000000000000000000815260040161250d90614eb8565b60405180910390fd5b60008190508073ffffffffffffffffffffffffffffffffffffffff1663b96f8f3285856040518363ffffffff1660e01b8152600401612556929190614ed8565b600060405180830381600087803b15801561257057600080fd5b505af1158015612584573d6000803e3d6000fd5b5050505050505050565b612596613000565b60006007600084815260200190815260200160002060009054906101000a900473ffffffffffffffffffffffffffffffffffffffff169050600073ffffffffffffffffffffffffffffffffffffffff168173ffffffffffffffffffffffffffffffffffffffff160361263d576040517f08c379a000000000000000000000000000000000000000000000000000000000815260040161263490614eb8565b60405180910390fd5b60008190508073ffffffffffffffffffffffffffffffffffffffff1663bc7a16b785856040518363ffffffff1660e01b815260040161267d929190614ed8565b600060405180830381600087803b15801561269757600080fd5b505af11580156126ab573d6000803e3d6000fd5b5050505050505050565b7f000000000000000000000000000000000000000000000000000000000000000081565b7fcecef922ac6ded813804bed2d5fdf033decf4a090fa3c9b9f529302a0aff645581565b60045481565b61270b612c31565b826007600084815260200190815260200160002060006101000a81548173ffffffffffffffffffffffffffffffffffffffff021916908373ffffffffffffffffffffffffffffffffffffffff16021790555060008390508073ffffffffffffffffffffffffffffffffffffffff1663b8fa373684846040518363ffffffff1660e01b815260040161279d92919061490d565b600060405180830381600087803b1580156127b757600080fd5b505af11580156127cb573d6000803e3d6000fd5b5050505050505050565b60056020528060005260406000206000915090505481565b6127f5612c31565b6127ff828261226a565b61283e576040517f08c379a000000000000000000000000000000000000000000000000000000000815260040161283590614a80565b60405180910390fd5b6128488282612e51565b60056000838152602001908152602001600020600081548092919061286c90614aa0565b91905055505050565b60025481565b6000806007600084815260200190815260200160002060009054906101000a900473ffffffffffffffffffffffffffffffffffffffff16905060008190508073ffffffffffffffffffffffffffffffffffffffff1663deb4b6d7856040518263ffffffff1660e01b81526004016128f29190613638565b602060405180830381865afa15801561290f573d6000803e3d6000fd5b505050506040513d601f19601f820116820180604052508101906129339190614f16565b92505050919050565b612944612c31565b846007600086815260200190815260200160002060006101000a81548173ffffffffffffffffffffffffffffffffffffffff021916908373ffffffffffffffffffffffffffffffffffffffff16021790555060008590508073ffffffffffffffffffffffffffffffffffffffff1663bba8185a868686866040518563ffffffff1660e01b81526004016129da9493929190614f52565b600060405180830381600087803b1580156129f457600080fd5b505af1158015612a08573d6000803e3d6000fd5b50505050505050505050565b7fe6ad9a47fbda1dc18de1eb5eeb7d935e5e81b4748f3cfc61e233e64f8818206081565b612a40613000565b60006007600087815260200190815260200160002060009054906101000a900473ffffffffffffffffffffffffffffffffffffffff169050600073ffffffffffffffffffffffffffffffffffffffff168173ffffffffffffffffffffffffffffffffffffffff1603612ae7576040517f08c379a0000000000000000000000000000000000000000000000000000000008152600401612ade90614eb8565b60405180910390fd5b60008190508073ffffffffffffffffffffffffffffffffffffffff1663fe1f76658989898989896040518763ffffffff1660e01b8152600401612b2f96959493929190614f97565b600060405180830381600087803b158015612b4957600080fd5b505af1158015612b5d573d6000803e3d6000fd5b505050505050505050505050565b612b73612c31565b612b7b61307f565b565b60007f01ffc9a7000000000000000000000000000000000000000000000000000000007bffffffffffffffffffffffffffffffffffffffffffffffffffffffff1916827bffffffffffffffffffffffffffffffffffffffffffffffffffffffff1916149050919050565b612bef611f34565b15612c2f576040517f08c379a0000000000000000000000000000000000000000000000000000000008152600401612c2690615044565b60405180910390fd5b565b612c3e6000801b3361226a565b612c7d576040517f08c379a0000000000000000000000000000000000000000000000000000000008152600401612c74906150b0565b60405180910390fd5b565b612c8c6000801b3361226a565b80612cbd5750612cbc7fe2b7fb3b832174769106daebcfd6d1970523240dda11281102db9363b83b0dc43361226a565b5b612cfc576040517f08c379a0000000000000000000000000000000000000000000000000000000008152600401612cf39061511c565b60405180910390fd5b565b612d287fe2b7fb3b832174769106daebcfd6d1970523240dda11281102db9363b83b0dc43361226a565b612d67576040517f08c379a0000000000000000000000000000000000000000000000000000000008152600401612d5e90615188565b60405180910390fd5b565b612d73828261226a565b612e4557600180600084815260200190815260200160002060000160008373ffffffffffffffffffffffffffffffffffffffff1673ffffffffffffffffffffffffffffffffffffffff16815260200190815260200160002060006101000a81548160ff021916908315150217905550612dea612e49565b73ffffffffffffffffffffffffffffffffffffffff168173ffffffffffffffffffffffffffffffffffffffff16837f2f8788117e7eff1d82e926ec794901d17c78024a50270940304540a733656f0d60405160405180910390a45b5050565b600033905090565b612e5b828261226a565b15612f2f5760006001600084815260200190815260200160002060000160008373ffffffffffffffffffffffffffffffffffffffff1673ffffffffffffffffffffffffffffffffffffffff16815260200190815260200160002060006101000a81548160ff021916908315150217905550612ed4612e49565b73ffffffffffffffffffffffffffffffffffffffff168173ffffffffffffffffffffffffffffffffffffffff16837ff6391f5c32d9c69d2a47ea670b442974b53935d1edc7fd64eb21e047a839171b60405160405180910390a45b5050565b612f3b612be7565b60016000806101000a81548160ff0219169083151502179055507f62e78cea01bee320cd4e420270b5ea74000d11b0c9f74754ebdbfc544b05a258612f7e612e49565b604051612f8b9190613d1a565b60405180910390a1565b612fbf7fcecef922ac6ded813804bed2d5fdf033decf4a090fa3c9b9f529302a0aff64553361226a565b612ffe576040517f08c379a0000000000000000000000000000000000000000000000000000000008152600401612ff59061521a565b60405180910390fd5b565b61300d6000801b3361226a565b8061303e575061303d7fe6ad9a47fbda1dc18de1eb5eeb7d935e5e81b4748f3cfc61e233e64f881820603361226a565b5b61307d576040517f08c379a0000000000000000000000000000000000000000000000000000000008152600401613074906152ac565b60405180910390fd5b565b6130876130e1565b60008060006101000a81548160ff0219169083151502179055507f5db9ee0a495bf2e6ff9c91a7834c1ba4fdd244a5e8aa4e537bd38aeae4b073aa6130ca612e49565b6040516130d79190613d1a565b60405180910390a1565b6130e9611f34565b613128576040517f08c379a000000000000000000000000000000000000000000000000000000000815260040161311f90615318565b60405180910390fd5b565b8280548282559060005260206000209081019282156131a3579160200282015b828111156131a25782518260006101000a81548173ffffffffffffffffffffffffffffffffffffffff021916908373ffffffffffffffffffffffffffffffffffffffff1602179055509160200191906001019061314a565b5b5090506131b091906131fb565b5090565b6040518060a00160405280600080191681526020016000801916815260200160608152602001600060048111156131ee576131ed613a75565b5b8152602001600081525090565b5b808211156132145760008160009055506001016131fc565b5090565b600080fd5b600080fd5b60007fffffffff0000000000000000000000000000000000000000000000000000000082169050919050565b61325781613222565b811461326257600080fd5b50565b6000813590506132748161324e565b92915050565b6000602082840312156132905761328f613218565b5b600061329e84828501613265565b91505092915050565b60008115159050919050565b6132bc816132a7565b82525050565b60006020820190506132d760008301846132b3565b92915050565b600060ff82169050919050565b6132f3816132dd565b81146132fe57600080fd5b50565b600081359050613310816132ea565b92915050565b6000819050919050565b61332981613316565b811461333457600080fd5b50565b60008135905061334681613320565b92915050565b600080fd5b600080fd5b600080fd5b60008083601f8401126133715761337061334c565b5b8235905067ffffffffffffffff81111561338e5761338d613351565b5b6020830191508360018202830111156133aa576133a9613356565b5b9250929050565b600080600080606085870312156133cb576133ca613218565b5b60006133d987828801613301565b94505060206133ea87828801613337565b935050604085013567ffffffffffffffff81111561340b5761340a61321d565b5b6134178782880161335b565b925092505092959194509250565b600073ffffffffffffffffffffffffffffffffffffffff82169050919050565b600061345082613425565b9050919050565b61346081613445565b811461346b57600080fd5b50565b60008135905061347d81613457565b92915050565b61348c816132a7565b811461349757600080fd5b50565b6000813590506134a981613483565b92915050565b6000806000606084860312156134c8576134c7613218565b5b60006134d68682870161346e565b93505060206134e78682870161346e565b92505060406134f88682870161349a565b9150509250925092565b600067ffffffffffffffff82169050919050565b61351f81613502565b811461352a57600080fd5b50565b60008135905061353c81613516565b92915050565b60008060006060848603121561355b5761355a613218565b5b600061356986828701613301565b935050602061357a8682870161352d565b925050604061358b86828701613337565b9150509250925092565b600080600080608085870312156135af576135ae613218565b5b60006135bd87828801613301565b94505060206135ce8782880161352d565b93505060406135df87828801613337565b92505060606135f087828801613337565b91505092959194509250565b60006020828403121561361257613611613218565b5b600061362084828501613337565b91505092915050565b61363281613316565b82525050565b600060208201905061364d6000830184613629565b92915050565b6000806040838503121561366a57613669613218565b5b600061367885828601613337565b92505060206136898582860161346e565b9150509250929050565b600080604083850312156136aa576136a9613218565b5b60006136b88582860161352d565b92505060206136c985828601613301565b9150509250929050565b600081519050919050565b600082825260208201905092915050565b60005b8381101561370d5780820151818401526020810190506136f2565b60008484015250505050565b6000601f19601f8301169050919050565b6000613735826136d3565b61373f81856136de565b935061374f8185602086016136ef565b61375881613719565b840191505092915050565b6000602082019050818103600083015261377d818461372a565b905092915050565b6000806000806000608086880312156137a1576137a0613218565b5b60006137af88828901613301565b95505060206137c08882890161352d565b945050604086013567ffffffffffffffff8111156137e1576137e061321d565b5b6137ed8882890161335b565b9350935050606061380088828901613337565b9150509295509295909350565b60008083601f8401126138235761382261334c565b5b8235905067ffffffffffffffff8111156138405761383f613351565b5b60208301915083602082028301111561385c5761385b613356565b5b9250929050565b60008083601f8401126138795761387861334c565b5b8235905067ffffffffffffffff81111561389657613895613351565b5b6020830191508360208202830111156138b2576138b1613356565b5b9250929050565b600080600080604085870312156138d3576138d2613218565b5b600085013567ffffffffffffffff8111156138f1576138f061321d565b5b6138fd8782880161380d565b9450945050602085013567ffffffffffffffff8111156139205761391f61321d565b5b61392c87828801613863565b925092505092959194509250565b6000602082840312156139505761394f613218565b5b600061395e84828501613301565b91505092915050565b61397081613502565b82525050565b600060208201905061398b6000830184613967565b92915050565b6000819050919050565b6139a481613991565b81146139af57600080fd5b50565b6000813590506139c18161399b565b92915050565b6000602082840312156139dd576139dc613218565b5b60006139eb848285016139b2565b91505092915050565b600068ffffffffffffffffff82169050919050565b613a12816139f4565b8114613a1d57600080fd5b50565b600081359050613a2f81613a09565b92915050565b60008060408385031215613a4c57613a4b613218565b5b6000613a5a85828601613a20565b9250506020613a6b85828601613337565b9150509250929050565b7f4e487b7100000000000000000000000000000000000000000000000000000000600052602160045260246000fd5b60058110613ab557613ab4613a75565b5b50565b6000819050613ac682613aa4565b919050565b6000613ad682613ab8565b9050919050565b613ae681613acb565b82525050565b613af581613991565b82525050565b6000608082019050613b106000830187613629565b613b1d6020830186613629565b613b2a6040830185613add565b613b376060830184613aec565b95945050505050565b600060208284031215613b5657613b55613218565b5b6000613b648482850161346e565b91505092915050565b60008060008060808587031215613b8757613b86613218565b5b6000613b958782880161346e565b9450506020613ba68782880161346e565b9350506040613bb78782880161346e565b9250506060613bc8878288016139b2565b91505092959194509250565b600080600060608486031215613bed57613bec613218565b5b6000613bfb86828701613a20565b9350506020613c0c86828701613337565b9250506040613c1d8682870161346e565b9150509250925092565b6000613c3282613425565b9050919050565b613c4281613c27565b8114613c4d57600080fd5b50565b600081359050613c5f81613c39565b92915050565b600080600060608486031215613c7e57613c7d613218565b5b6000613c8c8682870161346e565b9350506020613c9d86828701613c50565b9250506040613cae868287016139b2565b9150509250925092565b600080600060608486031215613cd157613cd0613218565b5b6000613cdf86828701613337565b9350506020613cf086828701613c50565b9250506040613d01868287016139b2565b9150509250925092565b613d1481613445565b82525050565b6000602082019050613d2f6000830184613d0b565b92915050565b60008060408385031215613d4c57613d4b613218565b5b6000613d5a8582860161346e565b9250506020613d6b8582860161346e565b9150509250929050565b6000602082019050613d8a6000830184613aec565b92915050565b613d9981613316565b82525050565b600081519050919050565b600082825260208201905092915050565b6000819050602082019050919050565b613dd481613445565b82525050565b6000613de68383613dcb565b60208301905092915050565b6000602082019050919050565b6000613e0a82613d9f565b613e148185613daa565b9350613e1f83613dbb565b8060005b83811015613e50578151613e378882613dda565b9750613e4283613df2565b925050600181019050613e23565b5085935050505092915050565b613e6681613acb565b82525050565b613e7581613991565b82525050565b600060a083016000830151613e936000860182613d90565b506020830151613ea66020860182613d90565b5060408301518482036040860152613ebe8282613dff565b9150506060830151613ed36060860182613e5d565b506080830151613ee66080860182613e6c565b508091505092915050565b60006020820190508181036000830152613f0b8184613e7b565b905092915050565b60008060408385031215613f2a57613f29613218565b5b6000613f3885828601613337565b9250506020613f49858286016139b2565b9150509250929050565b613f5c816132dd565b82525050565b6000602082019050613f776000830184613f53565b92915050565b600080600060608486031215613f9657613f95613218565b5b6000613fa48682870161346e565b9350506020613fb586828701613337565b9250506040613fc68682870161346e565b9150509250925092565b600080600080600060a08688031215613fec57613feb613218565b5b6000613ffa8882890161346e565b955050602061400b88828901613337565b945050604061401c8882890161346e565b935050606061402d88828901613265565b925050608061403e88828901613265565b9150509295509295909350565b60008060008060008060c0878903121561406857614067613218565b5b600061407689828a0161346e565b965050602061408789828a01613337565b955050604061409889828a0161349a565b94505060606140a989828a016139b2565b93505060806140ba89828a0161349a565b92505060a06140cb89828a016139b2565b9150509295509295509295565b600082825260208201905092915050565b7f7265736f757263654944206e6f74206d617070656420746f2068616e646c6572600082015250565b600061411f6020836140d8565b915061412a826140e9565b602082019050919050565b6000602082019050818103600083015261414e81614112565b9050919050565b7f4e487b7100000000000000000000000000000000000000000000000000000000600052601160045260246000fd5b600061418f82613502565b915067ffffffffffffffff82036141a9576141a8614155565b5b600182019050919050565b600082905092915050565b7f4e487b7100000000000000000000000000000000000000000000000000000000600052604160045260246000fd5b7f4e487b7100000000000000000000000000000000000000000000000000000000600052602260045260246000fd5b6000600282049050600182168061423557607f821691505b602082108103614248576142476141ee565b5b50919050565b60008190508160005260206000209050919050565b60006020601f8301049050919050565b600082821b905092915050565b6000600883026142b07fffffffffffffffffffffffffffffffffffffffffffffffffffffffffffffffff82614273565b6142ba8683614273565b95508019841693508086168417925050509392505050565b6000819050919050565b60006142f76142f26142ed84613991565b6142d2565b613991565b9050919050565b6000819050919050565b614311836142dc565b61432561431d826142fe565b848454614280565b825550505050565b600090565b61433a61432d565b614345818484614308565b505050565b5b818110156143695761435e600082614332565b60018101905061434b565b5050565b601f8211156143ae5761437f8161424e565b61438884614263565b81016020851015614397578190505b6143ab6143a385614263565b83018261434a565b50505b505050565b600082821c905092915050565b60006143d1600019846008026143b3565b1980831691505092915050565b60006143ea83836143c0565b9150826002028217905092915050565b61440483836141b4565b67ffffffffffffffff81111561441d5761441c6141bf565b5b614427825461421d565b61443282828561436d565b6000601f831160018114614461576000841561444f578287013590505b61445985826143de565b8655506144c1565b601f19841661446f8661424e565b60005b8281101561449757848901358255600182019150602085019450602081019050614472565b868310156144b457848901356144b0601f8916826143c0565b8355505b6001600288020188555050505b50505050505050565b82818337600083830152505050565b60006144e583856136de565b93506144f28385846144ca565b6144fb83613719565b840190509392505050565b600060a08201905061451b6000830189613629565b6145286020830188613f53565b6145356040830187613967565b6145426060830186613d0b565b81810360808301526145558184866144d9565b9050979650505050505050565b60006040820190506145776000830185613d0b565b61458460208301846132b3565b9392505050565b7f50726f706f73616c20616c72656164792063616e63656c6c6564000000000000600082015250565b60006145c1601a836140d8565b91506145cc8261458b565b602082019050919050565b600060208201905081810360008301526145f0816145b4565b9050919050565b600061460282613991565b915061460d83613991565b925082820390508181111561462557614624614155565b5b92915050565b7f50726f706f73616c206e6f7420617420657870697279207468726573686f6c64600082015250565b60006146616020836140d8565b915061466c8261462b565b602082019050919050565b6000602082019050818103600083015261469081614654565b9050919050565b60006040820190506146ac6000830185613629565b6146b96020830184613629565b9392505050565b7f6e6f2068616e646c657220666f72207265736f75726365494400000000000000600082015250565b60006146f66019836140d8565b9150614701826146c0565b602082019050919050565b60006020820190508181036000830152614725816146e9565b9050919050565b7f70726f706f73616c20616c7265616479207061737365642f657865637574656460008201527f2f63616e63656c6c656400000000000000000000000000000000000000000000602082015250565b6000614788602a836140d8565b91506147938261472c565b604082019050919050565b600060208201905081810360008301526147b78161477b565b9050919050565b7f72656c6179657220616c726561647920766f7465640000000000000000000000600082015250565b60006147f46015836140d8565b91506147ff826147be565b602082019050919050565b60006020820190508181036000830152614823816147e7565b9050919050565b600061483582613991565b91507fffffffffffffffffffffffffffffffffffffffffffffffffffffffffffffffff820361486757614866614155565b5b600182019050919050565b7f4e487b7100000000000000000000000000000000000000000000000000000000600052603260045260246000fd5b7f6461746168617368206d69736d61746368000000000000000000000000000000600082015250565b60006148d76011836140d8565b91506148e2826148a1565b602082019050919050565b60006020820190508181036000830152614906816148ca565b9050919050565b60006040820190506149226000830185613629565b61492f6020830184613d0b565b9392505050565b7f6164647220616c7265616479206861732074686520726f6c6521000000000000600082015250565b600061496c601a836140d8565b915061497782614936565b602082019050919050565b6000602082019050818103600083015261499b8161495f565b9050919050565b7f416363657373436f6e74726f6c3a2063616e206f6e6c792072656e6f756e636560008201527f20726f6c657320666f722073656c660000000000000000000000000000000000602082015250565b60006149fe602f836140d8565b9150614a09826149a2565b604082019050919050565b60006020820190508181036000830152614a2d816149f1565b9050919050565b7f6164647220646f65736e277420686176652074686520726f6c65210000000000600082015250565b6000614a6a601b836140d8565b9150614a7582614a34565b602082019050919050565b60006020820190508181036000830152614a9981614a5d565b9050919050565b6000614aab82613991565b915060008203614abe57614abd614155565b5b600182039050919050565b60008160601b9050919050565b6000614ae182614ac9565b9050919050565b6000614af382614ad6565b9050919050565b614b0b614b0682613445565b614ae8565b82525050565b600081905092915050565b6000614b288385614b11565b9350614b358385846144ca565b82840190509392505050565b6000614b4d8286614afa565b601482019150614b5e828486614b1c565b9150819050949350505050565b7f50726f706f73616c206973206e6f742077697468696e2065787069727920746860008201527f726573686f6c6400000000000000000000000000000000000000000000000000602082015250565b6000614bc76027836140d8565b9150614bd282614b6b565b604082019050919050565b60006020820190508181036000830152614bf681614bba565b9050919050565b7f7265736f75726365494420616e642070726f706f73616c2e5f7265736f75726360008201527f654944206d69736d617463680000000000000000000000000000000000000000602082015250565b6000614c59602c836140d8565b9150614c6482614bfd565b604082019050919050565b60006020820190508181036000830152614c8881614c4c565b9050919050565b7f70726f706f73616c20616c7265616479207472616e7366657272656400000000600082015250565b6000614cc5601c836140d8565b9150614cd082614c8f565b602082019050919050565b60006020820190508181036000830152614cf481614cb8565b9050919050565b7f6461746120646f65736e2774206d617463682064617461686173680000000000600082015250565b6000614d31601b836140d8565b9150614d3c82614cfb565b602082019050919050565b60006020820190508181036000830152614d6081614d24565b9050919050565b6000604082019050614d7c6000830186613629565b8181036020830152614d8f8184866144d9565b9050949350505050565b600060208284031215614daf57614dae613218565b5b6000614dbd84828501613c50565b91505092915050565b6000606082019050614ddb6000830186613d0b565b614de86020830185613d0b565b614df56040830184613aec565b949350505050565b614e0681613c27565b82525050565b6000604082019050614e216000830185614dfd565b614e2e6020830184613aec565b9392505050565b6000606082019050614e4a6000830186613629565b614e576020830185614dfd565b614e646040830184613aec565b949350505050565b7f68616e646c657220616464726573732069732030783000000000000000000000600082015250565b6000614ea26016836140d8565b9150614ead82614e6c565b602082019050919050565b60006020820190508181036000830152614ed181614e95565b9050919050565b6000604082019050614eed6000830185613629565b614efa6020830184613aec565b9392505050565b600081519050614f108161399b565b92915050565b600060208284031215614f2c57614f2b613218565b5b6000614f3a84828501614f01565b91505092915050565b614f4c81613222565b82525050565b6000608082019050614f676000830187613629565b614f746020830186613d0b565b614f816040830185614f43565b614f8e6060830184614f43565b95945050505050565b600060c082019050614fac6000830189613d0b565b614fb96020830188613629565b614fc660408301876132b3565b614fd36060830186613aec565b614fe060808301856132b3565b614fed60a0830184613aec565b979650505050505050565b7f5061757361626c653a2070617573656400000000000000000000000000000000600082015250565b600061502e6010836140d8565b915061503982614ff8565b602082019050919050565b6000602082019050818103600083015261505d81615021565b9050919050565b7f73656e64657220646f65736e277420686176652061646d696e20726f6c650000600082015250565b600061509a601e836140d8565b91506150a582615064565b602082019050919050565b600060208201905081810360008301526150c98161508d565b9050919050565b7f73656e646572206973206e6f742072656c61796572206f722061646d696e0000600082015250565b6000615106601e836140d8565b9150615111826150d0565b602082019050919050565b60006020820190508181036000830152615135816150f9565b9050919050565b7f73656e64657220646f65736e277420686176652072656c6179657220726f6c65600082015250565b60006151726020836140d8565b915061517d8261513c565b602082019050919050565b600060208201905081810360008301526151a181615165565b9050919050565b7f73656e646572206d75737420686176652066656520776974686472617720726f60008201527f6c65000000000000000000000000000000000000000000000000000000000000602082015250565b60006152046022836140d8565b915061520f826151a8565b604082019050919050565b60006020820190508181036000830152615233816151f7565b9050919050565b7f73656e646572206973206e6f742061646d696e206f722066656520736574746560008201527f7200000000000000000000000000000000000000000000000000000000000000602082015250565b60006152966021836140d8565b91506152a18261523a565b604082019050919050565b600060208201905081810360008301526152c581615289565b9050919050565b7f5061757361626c653a206e6f7420706175736564000000000000000000000000600082015250565b60006153026014836140d8565b915061530d826152cc565b602082019050919050565b60006020820190508181036000830152615331816152f5565b905091905056fea2646970667358221220c7586f9d7abf6ea0d563f1fa32e684620b4e5deafd31815fa464ba76349f578764736f6c63430008100033",
			"opcodes": "PUSH1 0xA0 PUSH1 0x40 MSTORE CALLVALUE DUP1 ISZERO PUSH3 0x11 JUMPI PUSH1 0x0 DUP1 REVERT JUMPDEST POP PUSH1 0x40 MLOAD PUSH3 0x5C81 CODESIZE SUB DUP1 PUSH3 0x5C81 DUP4 CODECOPY DUP2 DUP2 ADD PUSH1 0x40 MSTORE DUP2 ADD SWAP1 PUSH3 0x37 SWAP2 SWAP1 PUSH3 0x6C6 JUMP JUMPDEST PUSH1 0x0 DUP1 PUSH1 0x0 PUSH2 0x100 EXP DUP2 SLOAD DUP2 PUSH1 0xFF MUL NOT AND SWAP1 DUP4 ISZERO ISZERO MUL OR SWAP1 SSTORE POP DUP4 PUSH1 0xFF AND PUSH1 0x80 DUP2 PUSH1 0xFF AND DUP2 MSTORE POP POP DUP2 PUSH1 0x2 DUP2 SWAP1 SSTORE POP DUP1 PUSH1 0x4 DUP2 SWAP1 SSTORE POP PUSH3 0x82 PUSH1 0x0 DUP1 SHL CALLER PUSH3 0x162 PUSH1 0x20 SHL PUSH1 0x20 SHR JUMP JUMPDEST PUSH1 0x5 PUSH1 0x0 DUP1 PUSH1 0x0 SHL DUP2 MSTORE PUSH1 0x20 ADD SWAP1 DUP2 MSTORE PUSH1 0x20 ADD PUSH1 0x0 KECCAK256 PUSH1 0x0 DUP2 SLOAD DUP1 SWAP3 SWAP2 SWAP1 PUSH3 0xAB SWAP1 PUSH3 0x786 JUMP JUMPDEST SWAP2 SWAP1 POP SSTORE POP PUSH3 0xE5 PUSH32 0xE2B7FB3B832174769106DAEBCFD6D1970523240DDA11281102DB9363B83B0DC4 PUSH1 0x0 DUP1 SHL PUSH3 0x178 PUSH1 0x20 SHL PUSH1 0x20 SHR JUMP JUMPDEST PUSH1 0x0 JUMPDEST DUP4 MLOAD DUP2 LT ISZERO PUSH3 0x157 JUMPI PUSH3 0x141 PUSH32 0xE2B7FB3B832174769106DAEBCFD6D1970523240DDA11281102DB9363B83B0DC4 DUP6 DUP4 DUP2 MLOAD DUP2 LT PUSH3 0x12D JUMPI PUSH3 0x12C PUSH3 0x7D3 JUMP JUMPDEST JUMPDEST PUSH1 0x20 MUL PUSH1 0x20 ADD ADD MLOAD PUSH3 0x1DC PUSH1 0x20 SHL PUSH1 0x20 SHR JUMP JUMPDEST DUP1 DUP1 PUSH3 0x14E SWAP1 PUSH3 0x786 JUMP JUMPDEST SWAP2 POP POP PUSH3 0xE8 JUMP JUMPDEST POP POP POP POP POP PUSH3 0x8F7 JUMP JUMPDEST PUSH3 0x174 DUP3 DUP3 PUSH3 0x282 PUSH1 0x20 SHL PUSH1 0x20 SHR JUMP JUMPDEST POP POP JUMP JUMPDEST PUSH1 0x0 PUSH3 0x18B DUP4 PUSH3 0x373 PUSH1 0x20 SHL PUSH1 0x20 SHR JUMP JUMPDEST SWAP1 POP DUP2 PUSH1 0x1 PUSH1 0x0 DUP6 DUP2 MSTORE PUSH1 0x20 ADD SWAP1 DUP2 MSTORE PUSH1 0x20 ADD PUSH1 0x0 KECCAK256 PUSH1 0x1 ADD DUP2 SWAP1 SSTORE POP DUP2 DUP2 DUP5 PUSH32 0xBD79B86FFE0AB8E8776151514217CD7CACD52C909F66475C3AF44E129F0B00FF PUSH1 0x40 MLOAD PUSH1 0x40 MLOAD DUP1 SWAP2 SUB SWAP1 LOG4 POP POP POP JUMP JUMPDEST PUSH3 0x1EC PUSH3 0x393 PUSH1 0x20 SHL PUSH1 0x20 SHR JUMP JUMPDEST PUSH3 0x1FE DUP3 DUP3 PUSH3 0x3EC PUSH1 0x20 SHL PUSH1 0x20 SHR JUMP JUMPDEST ISZERO PUSH3 0x241 JUMPI PUSH1 0x40 MLOAD PUSH32 0x8C379A000000000000000000000000000000000000000000000000000000000 DUP2 MSTORE PUSH1 0x4 ADD PUSH3 0x238 SWAP1 PUSH3 0x863 JUMP JUMPDEST PUSH1 0x40 MLOAD DUP1 SWAP2 SUB SWAP1 REVERT JUMPDEST PUSH3 0x253 DUP3 DUP3 PUSH3 0x282 PUSH1 0x20 SHL PUSH1 0x20 SHR JUMP JUMPDEST PUSH1 0x5 PUSH1 0x0 DUP4 DUP2 MSTORE PUSH1 0x20 ADD SWAP1 DUP2 MSTORE PUSH1 0x20 ADD PUSH1 0x0 KECCAK256 PUSH1 0x0 DUP2 SLOAD DUP1 SWAP3 SWAP2 SWAP1 PUSH3 0x279 SWAP1 PUSH3 0x786 JUMP JUMPDEST SWAP2 SWAP1 POP SSTORE POP POP POP JUMP JUMPDEST PUSH3 0x294 DUP3 DUP3 PUSH3 0x3EC PUSH1 0x20 SHL PUSH1 0x20 SHR JUMP JUMPDEST PUSH3 0x36F JUMPI PUSH1 0x1 DUP1 PUSH1 0x0 DUP5 DUP2 MSTORE PUSH1 0x20 ADD SWAP1 DUP2 MSTORE PUSH1 0x20 ADD PUSH1 0x0 KECCAK256 PUSH1 0x0 ADD PUSH1 0x0 DUP4 PUSH20 0xFFFFFFFFFFFFFFFFFFFFFFFFFFFFFFFFFFFFFFFF AND PUSH20 0xFFFFFFFFFFFFFFFFFFFFFFFFFFFFFFFFFFFFFFFF AND DUP2 MSTORE PUSH1 0x20 ADD SWAP1 DUP2 MSTORE PUSH1 0x20 ADD PUSH1 0x0 KECCAK256 PUSH1 0x0 PUSH2 0x100 EXP DUP2 SLOAD DUP2 PUSH1 0xFF MUL NOT AND SWAP1 DUP4 ISZERO ISZERO MUL OR SWAP1 SSTORE POP PUSH3 0x314 PUSH3 0x457 PUSH1 0x20 SHL PUSH1 0x20 SHR JUMP JUMPDEST PUSH20 0xFFFFFFFFFFFFFFFFFFFFFFFFFFFFFFFFFFFFFFFF AND DUP2 PUSH20 0xFFFFFFFFFFFFFFFFFFFFFFFFFFFFFFFFFFFFFFFF AND DUP4 PUSH32 0x2F8788117E7EFF1D82E926EC794901D17C78024A50270940304540A733656F0D PUSH1 0x40 MLOAD PUSH1 0x40 MLOAD DUP1 SWAP2 SUB SWAP1 LOG4 JUMPDEST POP POP JUMP JUMPDEST PUSH1 0x0 PUSH1 0x1 PUSH1 0x0 DUP4 DUP2 MSTORE PUSH1 0x20 ADD SWAP1 DUP2 MSTORE PUSH1 0x20 ADD PUSH1 0x0 KECCAK256 PUSH1 0x1 ADD SLOAD SWAP1 POP SWAP2 SWAP1 POP JUMP JUMPDEST PUSH3 0x3A8 PUSH1 0x0 DUP1 SHL CALLER PUSH3 0x3EC PUSH1 0x20 SHL PUSH1 0x20 SHR JUMP JUMPDEST PUSH3 0x3EA JUMPI PUSH1 0x40 MLOAD PUSH32 0x8C379A000000000000000000000000000000000000000000000000000000000 DUP2 MSTORE PUSH1 0x4 ADD PUSH3 0x3E1 SWAP1 PUSH3 0x8D5 JUMP JUMPDEST PUSH1 0x40 MLOAD DUP1 SWAP2 SUB SWAP1 REVERT JUMPDEST JUMP JUMPDEST PUSH1 0x0 PUSH1 0x1 PUSH1 0x0 DUP5 DUP2 MSTORE PUSH1 0x20 ADD SWAP1 DUP2 MSTORE PUSH1 0x20 ADD PUSH1 0x0 KECCAK256 PUSH1 0x0 ADD PUSH1 0x0 DUP4 PUSH20 0xFFFFFFFFFFFFFFFFFFFFFFFFFFFFFFFFFFFFFFFF AND PUSH20 0xFFFFFFFFFFFFFFFFFFFFFFFFFFFFFFFFFFFFFFFF AND DUP2 MSTORE PUSH1 0x20 ADD SWAP1 DUP2 MSTORE PUSH1 0x20 ADD PUSH1 0x0 KECCAK256 PUSH1 0x0 SWAP1 SLOAD SWAP1 PUSH2 0x100 EXP SWAP1 DIV PUSH1 0xFF AND SWAP1 POP SWAP3 SWAP2 POP POP JUMP JUMPDEST PUSH1 0x0 CALLER SWAP1 POP SWAP1 JUMP JUMPDEST PUSH1 0x0 PUSH1 0x40 MLOAD SWAP1 POP SWAP1 JUMP JUMPDEST PUSH1 0x0 DUP1 REVERT JUMPDEST PUSH1 0x0 DUP1 REVERT JUMPDEST PUSH1 0x0 PUSH1 0xFF DUP3 AND SWAP1 POP SWAP2 SWAP1 POP JUMP JUMPDEST PUSH3 0x48B DUP2 PUSH3 0x473 JUMP JUMPDEST DUP2 EQ PUSH3 0x497 JUMPI PUSH1 0x0 DUP1 REVERT JUMPDEST POP JUMP JUMPDEST PUSH1 0x0 DUP2 MLOAD SWAP1 POP PUSH3 0x4AB DUP2 PUSH3 0x480 JUMP JUMPDEST SWAP3 SWAP2 POP POP JUMP JUMPDEST PUSH1 0x0 DUP1 REVERT JUMPDEST PUSH1 0x0 PUSH1 0x1F NOT PUSH1 0x1F DUP4 ADD AND SWAP1 POP SWAP2 SWAP1 POP JUMP JUMPDEST PUSH32 0x4E487B7100000000000000000000000000000000000000000000000000000000 PUSH1 0x0 MSTORE PUSH1 0x41 PUSH1 0x4 MSTORE PUSH1 0x24 PUSH1 0x0 REVERT JUMPDEST PUSH3 0x501 DUP3 PUSH3 0x4B6 JUMP JUMPDEST DUP2 ADD DUP2 DUP2 LT PUSH8 0xFFFFFFFFFFFFFFFF DUP3 GT OR ISZERO PUSH3 0x523 JUMPI PUSH3 0x522 PUSH3 0x4C7 JUMP JUMPDEST JUMPDEST DUP1 PUSH1 0x40 MSTORE POP POP POP JUMP JUMPDEST PUSH1 0x0 PUSH3 0x538 PUSH3 0x45F JUMP JUMPDEST SWAP1 POP PUSH3 0x546 DUP3 DUP3 PUSH3 0x4F6 JUMP JUMPDEST SWAP2 SWAP1 POP JUMP JUMPDEST PUSH1 0x0 PUSH8 0xFFFFFFFFFFFFFFFF DUP3 GT ISZERO PUSH3 0x569 JUMPI PUSH3 0x568 PUSH3 0x4C7 JUMP JUMPDEST JUMPDEST PUSH1 0x20 DUP3 MUL SWAP1 POP PUSH1 0x20 DUP2 ADD SWAP1 POP SWAP2 SWAP1 POP JUMP JUMPDEST PUSH1 0x0 DUP1 REVERT JUMPDEST PUSH1 0x0 PUSH20 0xFFFFFFFFFFFFFFFFFFFFFFFFFFFFFFFFFFFFFFFF DUP3 AND SWAP1 POP SWAP2 SWAP1 POP JUMP JUMPDEST PUSH1 0x0 PUSH3 0x5AC DUP3 PUSH3 0x57F JUMP JUMPDEST SWAP1 POP SWAP2 SWAP1 POP JUMP JUMPDEST PUSH3 0x5BE DUP2 PUSH3 0x59F JUMP JUMPDEST DUP2 EQ PUSH3 0x5CA JUMPI PUSH1 0x0 DUP1 REVERT JUMPDEST POP JUMP JUMPDEST PUSH1 0x0 DUP2 MLOAD SWAP1 POP PUSH3 0x5DE DUP2 PUSH3 0x5B3 JUMP JUMPDEST SWAP3 SWAP2 POP POP JUMP JUMPDEST PUSH1 0x0 PUSH3 0x5FB PUSH3 0x5F5 DUP5 PUSH3 0x54B JUMP JUMPDEST PUSH3 0x52C JUMP JUMPDEST SWAP1 POP DUP1 DUP4 DUP3 MSTORE PUSH1 0x20 DUP3 ADD SWAP1 POP PUSH1 0x20 DUP5 MUL DUP4 ADD DUP6 DUP2 GT ISZERO PUSH3 0x621 JUMPI PUSH3 0x620 PUSH3 0x57A JUMP JUMPDEST JUMPDEST DUP4 JUMPDEST DUP2 DUP2 LT ISZERO PUSH3 0x64E JUMPI DUP1 PUSH3 0x639 DUP9 DUP3 PUSH3 0x5CD JUMP JUMPDEST DUP5 MSTORE PUSH1 0x20 DUP5 ADD SWAP4 POP POP PUSH1 0x20 DUP2 ADD SWAP1 POP PUSH3 0x623 JUMP JUMPDEST POP POP POP SWAP4 SWAP3 POP POP POP JUMP JUMPDEST PUSH1 0x0 DUP3 PUSH1 0x1F DUP4 ADD SLT PUSH3 0x670 JUMPI PUSH3 0x66F PUSH3 0x4B1 JUMP JUMPDEST JUMPDEST DUP2 MLOAD PUSH3 0x682 DUP5 DUP3 PUSH1 0x20 DUP7 ADD PUSH3 0x5E4 JUMP JUMPDEST SWAP2 POP POP SWAP3 SWAP2 POP POP JUMP JUMPDEST PUSH1 0x0 DUP2 SWAP1 POP SWAP2 SWAP1 POP JUMP JUMPDEST PUSH3 0x6A0 DUP2 PUSH3 0x68B JUMP JUMPDEST DUP2 EQ PUSH3 0x6AC JUMPI PUSH1 0x0 DUP1 REVERT JUMPDEST POP JUMP JUMPDEST PUSH1 0x0 DUP2 MLOAD SWAP1 POP PUSH3 0x6C0 DUP2 PUSH3 0x695 JUMP JUMPDEST SWAP3 SWAP2 POP POP JUMP JUMPDEST PUSH1 0x0 DUP1 PUSH1 0x0 DUP1 PUSH1 0x80 DUP6 DUP8 SUB SLT ISZERO PUSH3 0x6E3 JUMPI PUSH3 0x6E2 PUSH3 0x469 JUMP JUMPDEST JUMPDEST PUSH1 0x0 PUSH3 0x6F3 DUP8 DUP3 DUP9 ADD PUSH3 0x49A JUMP JUMPDEST SWAP5 POP POP PUSH1 0x20 DUP6 ADD MLOAD PUSH8 0xFFFFFFFFFFFFFFFF DUP2 GT ISZERO PUSH3 0x717 JUMPI PUSH3 0x716 PUSH3 0x46E JUMP JUMPDEST JUMPDEST PUSH3 0x725 DUP8 DUP3 DUP9 ADD PUSH3 0x658 JUMP JUMPDEST SWAP4 POP POP PUSH1 0x40 PUSH3 0x738 DUP8 DUP3 DUP9 ADD PUSH3 0x6AF JUMP JUMPDEST SWAP3 POP POP PUSH1 0x60 PUSH3 0x74B DUP8 DUP3 DUP9 ADD PUSH3 0x6AF JUMP JUMPDEST SWAP2 POP POP SWAP3 SWAP6 SWAP2 SWAP5 POP SWAP3 POP JUMP JUMPDEST PUSH32 0x4E487B7100000000000000000000000000000000000000000000000000000000 PUSH1 0x0 MSTORE PUSH1 0x11 PUSH1 0x4 MSTORE PUSH1 0x24 PUSH1 0x0 REVERT JUMPDEST PUSH1 0x0 PUSH3 0x793 DUP3 PUSH3 0x68B JUMP JUMPDEST SWAP2 POP PUSH32 0xFFFFFFFFFFFFFFFFFFFFFFFFFFFFFFFFFFFFFFFFFFFFFFFFFFFFFFFFFFFFFFFF DUP3 SUB PUSH3 0x7C8 JUMPI PUSH3 0x7C7 PUSH3 0x757 JUMP JUMPDEST JUMPDEST PUSH1 0x1 DUP3 ADD SWAP1 POP SWAP2 SWAP1 POP JUMP JUMPDEST PUSH32 0x4E487B7100000000000000000000000000000000000000000000000000000000 PUSH1 0x0 MSTORE PUSH1 0x32 PUSH1 0x4 MSTORE PUSH1 0x24 PUSH1 0x0 REVERT JUMPDEST PUSH1 0x0 DUP3 DUP3 MSTORE PUSH1 0x20 DUP3 ADD SWAP1 POP SWAP3 SWAP2 POP POP JUMP JUMPDEST PUSH32 0x6164647220616C7265616479206861732074686520726F6C6521000000000000 PUSH1 0x0 DUP3 ADD MSTORE POP JUMP JUMPDEST PUSH1 0x0 PUSH3 0x84B PUSH1 0x1A DUP4 PUSH3 0x802 JUMP JUMPDEST SWAP2 POP PUSH3 0x858 DUP3 PUSH3 0x813 JUMP JUMPDEST PUSH1 0x20 DUP3 ADD SWAP1 POP SWAP2 SWAP1 POP JUMP JUMPDEST PUSH1 0x0 PUSH1 0x20 DUP3 ADD SWAP1 POP DUP2 DUP2 SUB PUSH1 0x0 DUP4 ADD MSTORE PUSH3 0x87E DUP2 PUSH3 0x83C JUMP JUMPDEST SWAP1 POP SWAP2 SWAP1 POP JUMP JUMPDEST PUSH32 0x73656E64657220646F65736E277420686176652061646D696E20726F6C650000 PUSH1 0x0 DUP3 ADD MSTORE POP JUMP JUMPDEST PUSH1 0x0 PUSH3 0x8BD PUSH1 0x1E DUP4 PUSH3 0x802 JUMP JUMPDEST SWAP2 POP PUSH3 0x8CA DUP3 PUSH3 0x885 JUMP JUMPDEST PUSH1 0x20 DUP3 ADD SWAP1 POP SWAP2 SWAP1 POP JUMP JUMPDEST PUSH1 0x0 PUSH1 0x20 DUP3 ADD SWAP1 POP DUP2 DUP2 SUB PUSH1 0x0 DUP4 ADD MSTORE PUSH3 0x8F0 DUP2 PUSH3 0x8AE JUMP JUMPDEST SWAP1 POP SWAP2 SWAP1 POP JUMP JUMPDEST PUSH1 0x80 MLOAD PUSH2 0x536E PUSH3 0x913 PUSH1 0x0 CODECOPY PUSH1 0x0 PUSH2 0x26B7 ADD MSTORE PUSH2 0x536E PUSH1 0x0 RETURN INVALID PUSH1 0x80 PUSH1 0x40 MSTORE PUSH1 0x4 CALLDATASIZE LT PUSH2 0x272 JUMPI PUSH1 0x0 CALLDATALOAD PUSH1 0xE0 SHR DUP1 PUSH4 0x83A69336 GT PUSH2 0x14F JUMPI DUP1 PUSH4 0xBEAB7131 GT PUSH2 0xC1 JUMPI DUP1 PUSH4 0xD7A9CD79 GT PUSH2 0x7A JUMPI DUP1 PUSH4 0xD7A9CD79 EQ PUSH2 0x984 JUMPI DUP1 PUSH4 0xDEB4B6D7 EQ PUSH2 0x9AF JUMPI DUP1 PUSH4 0xE8437EE7 EQ PUSH2 0x9EC JUMPI DUP1 PUSH4 0xE9347683 EQ PUSH2 0xA15 JUMPI DUP1 PUSH4 0xFE1F7665 EQ PUSH2 0xA40 JUMPI DUP1 PUSH4 0xFFAAC0EB EQ PUSH2 0xA69 JUMPI PUSH2 0x272 JUMP JUMPDEST DUP1 PUSH4 0xBEAB7131 EQ PUSH2 0x874 JUMPI DUP1 PUSH4 0xC4C6CD41 EQ PUSH2 0x89F JUMPI DUP1 PUSH4 0xC5EC8970 EQ PUSH2 0x8CA JUMPI DUP1 PUSH4 0xCB10F215 EQ PUSH2 0x8F5 JUMPI DUP1 PUSH4 0xCD1A0322 EQ PUSH2 0x91E JUMPI DUP1 PUSH4 0xD547741F EQ PUSH2 0x95B JUMPI PUSH2 0x272 JUMP JUMPDEST DUP1 PUSH4 0x926D7D7F GT PUSH2 0x113 JUMPI DUP1 PUSH4 0x926D7D7F EQ PUSH2 0x764 JUMPI DUP1 PUSH4 0x9D5773E0 EQ PUSH2 0x78F JUMPI DUP1 PUSH4 0xA217FDDF EQ PUSH2 0x7BA JUMPI DUP1 PUSH4 0xA9CF69FA EQ PUSH2 0x7E5 JUMPI DUP1 PUSH4 0xB96F8F32 EQ PUSH2 0x822 JUMPI DUP1 PUSH4 0xBC7A16B7 EQ PUSH2 0x84B JUMPI PUSH2 0x272 JUMP JUMPDEST DUP1 PUSH4 0x83A69336 EQ PUSH2 0x66F JUMPI DUP1 PUSH4 0x83D3F95D EQ PUSH2 0x698 JUMPI DUP1 PUSH4 0x84DB809F EQ PUSH2 0x6C1 JUMPI DUP1 PUSH4 0x8C0C2631 EQ PUSH2 0x6FE JUMPI DUP1 PUSH4 0x91D14854 EQ PUSH2 0x727 JUMPI PUSH2 0x272 JUMP JUMPDEST DUP1 PUSH4 0x4603AE38 GT PUSH2 0x1E8 JUMPI DUP1 PUSH4 0x5C975ABB GT PUSH2 0x1AC JUMPI DUP1 PUSH4 0x5C975ABB EQ PUSH2 0x575 JUMPI DUP1 PUSH4 0x5E1FAB0F EQ PUSH2 0x5A0 JUMPI DUP1 PUSH4 0x780CF004 EQ PUSH2 0x5C9 JUMPI DUP1 PUSH4 0x7D026D96 EQ PUSH2 0x5F2 JUMPI DUP1 PUSH4 0x7FEBE63F EQ PUSH2 0x61B JUMPI DUP1 PUSH4 0x80AE1C28 EQ PUSH2 0x658 JUMPI PUSH2 0x272 JUMP JUMPDEST DUP1 PUSH4 0x4603AE38 EQ PUSH2 0x469 JUMPI DUP1 PUSH4 0x4B0B919D EQ PUSH2 0x492 JUMPI DUP1 PUSH4 0x4E056005 EQ PUSH2 0x4CF JUMPI DUP1 PUSH4 0x50598719 EQ PUSH2 0x4F8 JUMPI DUP1 PUSH4 0x541D5548 EQ PUSH2 0x538 JUMPI PUSH2 0x272 JUMP JUMPDEST DUP1 PUSH4 0x248A9CA3 GT PUSH2 0x23A JUMPI DUP1 PUSH4 0x248A9CA3 EQ PUSH2 0x34B JUMPI DUP1 PUSH4 0x280CE54E EQ PUSH2 0x388 JUMPI DUP1 PUSH4 0x2F2FF15D EQ PUSH2 0x3B1 JUMPI DUP1 PUSH4 0x36568ABE EQ PUSH2 0x3DA JUMPI DUP1 PUSH4 0x3EE7094A EQ PUSH2 0x403 JUMPI DUP1 PUSH4 0x4454B20D EQ PUSH2 0x440 JUMPI PUSH2 0x272 JUMP JUMPDEST DUP1 PUSH4 0x1FFC9A7 EQ PUSH2 0x277 JUMPI DUP1 PUSH4 0x5E2CA17 EQ PUSH2 0x2B4 JUMPI DUP1 PUSH4 0x12791C4E EQ PUSH2 0x2D0 JUMPI DUP1 PUSH4 0x17F03CE5 EQ PUSH2 0x2F9 JUMPI DUP1 PUSH4 0x1FF013F1 EQ PUSH2 0x322 JUMPI JUMPDEST PUSH1 0x0 DUP1 REVERT JUMPDEST CALLVALUE DUP1 ISZERO PUSH2 0x283 JUMPI PUSH1 0x0 DUP1 REVERT JUMPDEST POP PUSH2 0x29E PUSH1 0x4 DUP1 CALLDATASIZE SUB DUP2 ADD SWAP1 PUSH2 0x299 SWAP2 SWAP1 PUSH2 0x327A JUMP JUMPDEST PUSH2 0xA80 JUMP JUMPDEST PUSH1 0x40 MLOAD PUSH2 0x2AB SWAP2 SWAP1 PUSH2 0x32C2 JUMP JUMPDEST PUSH1 0x40 MLOAD DUP1 SWAP2 SUB SWAP1 RETURN JUMPDEST PUSH2 0x2CE PUSH1 0x4 DUP1 CALLDATASIZE SUB DUP2 ADD SWAP1 PUSH2 0x2C9 SWAP2 SWAP1 PUSH2 0x33B1 JUMP JUMPDEST PUSH2 0xAFA JUMP JUMPDEST STOP JUMPDEST CALLVALUE DUP1 ISZERO PUSH2 0x2DC JUMPI PUSH1 0x0 DUP1 REVERT JUMPDEST POP PUSH2 0x2F7 PUSH1 0x4 DUP1 CALLDATASIZE SUB DUP2 ADD SWAP1 PUSH2 0x2F2 SWAP2 SWAP1 PUSH2 0x34AF JUMP JUMPDEST PUSH2 0xD19 JUMP JUMPDEST STOP JUMPDEST CALLVALUE DUP1 ISZERO PUSH2 0x305 JUMPI PUSH1 0x0 DUP1 REVERT JUMPDEST POP PUSH2 0x320 PUSH1 0x4 DUP1 CALLDATASIZE SUB DUP2 ADD SWAP1 PUSH2 0x31B SWAP2 SWAP1 PUSH2 0x3542 JUMP JUMPDEST PUSH2 0xD99 JUMP JUMPDEST STOP JUMPDEST CALLVALUE DUP1 ISZERO PUSH2 0x32E JUMPI PUSH1 0x0 DUP1 REVERT JUMPDEST POP PUSH2 0x349 PUSH1 0x4 DUP1 CALLDATASIZE SUB DUP2 ADD SWAP1 PUSH2 0x344 SWAP2 SWAP1 PUSH2 0x3595 JUMP JUMPDEST PUSH2 0xF63 JUMP JUMPDEST STOP JUMPDEST CALLVALUE DUP1 ISZERO PUSH2 0x357 JUMPI PUSH1 0x0 DUP1 REVERT JUMPDEST POP PUSH2 0x372 PUSH1 0x4 DUP1 CALLDATASIZE SUB DUP2 ADD SWAP1 PUSH2 0x36D SWAP2 SWAP1 PUSH2 0x35FC JUMP JUMPDEST PUSH2 0x170B JUMP JUMPDEST PUSH1 0x40 MLOAD PUSH2 0x37F SWAP2 SWAP1 PUSH2 0x3638 JUMP JUMPDEST PUSH1 0x40 MLOAD DUP1 SWAP2 SUB SWAP1 RETURN JUMPDEST CALLVALUE DUP1 ISZERO PUSH2 0x394 JUMPI PUSH1 0x0 DUP1 REVERT JUMPDEST POP PUSH2 0x3AF PUSH1 0x4 DUP1 CALLDATASIZE SUB DUP2 ADD SWAP1 PUSH2 0x3AA SWAP2 SWAP1 PUSH2 0x3653 JUMP JUMPDEST PUSH2 0x172B JUMP JUMPDEST STOP JUMPDEST CALLVALUE DUP1 ISZERO PUSH2 0x3BD JUMPI PUSH1 0x0 DUP1 REVERT JUMPDEST POP PUSH2 0x3D8 PUSH1 0x4 DUP1 CALLDATASIZE SUB DUP2 ADD SWAP1 PUSH2 0x3D3 SWAP2 SWAP1 PUSH2 0x3653 JUMP JUMPDEST PUSH2 0x17E3 JUMP JUMPDEST STOP JUMPDEST CALLVALUE DUP1 ISZERO PUSH2 0x3E6 JUMPI PUSH1 0x0 DUP1 REVERT JUMPDEST POP PUSH2 0x401 PUSH1 0x4 DUP1 CALLDATASIZE SUB DUP2 ADD SWAP1 PUSH2 0x3FC SWAP2 SWAP1 PUSH2 0x3653 JUMP JUMPDEST PUSH2 0x186C JUMP JUMPDEST STOP JUMPDEST CALLVALUE DUP1 ISZERO PUSH2 0x40F JUMPI PUSH1 0x0 DUP1 REVERT JUMPDEST POP PUSH2 0x42A PUSH1 0x4 DUP1 CALLDATASIZE SUB DUP2 ADD SWAP1 PUSH2 0x425 SWAP2 SWAP1 PUSH2 0x3693 JUMP JUMPDEST PUSH2 0x1961 JUMP JUMPDEST PUSH1 0x40 MLOAD PUSH2 0x437 SWAP2 SWAP1 PUSH2 0x3763 JUMP JUMPDEST PUSH1 0x40 MLOAD DUP1 SWAP2 SUB SWAP1 RETURN JUMPDEST CALLVALUE DUP1 ISZERO PUSH2 0x44C JUMPI PUSH1 0x0 DUP1 REVERT JUMPDEST POP PUSH2 0x467 PUSH1 0x4 DUP1 CALLDATASIZE SUB DUP2 ADD SWAP1 PUSH2 0x462 SWAP2 SWAP1 PUSH2 0x3785 JUMP JUMPDEST PUSH2 0x1A0E JUMP JUMPDEST STOP JUMPDEST CALLVALUE DUP1 ISZERO PUSH2 0x475 JUMPI PUSH1 0x0 DUP1 REVERT JUMPDEST POP PUSH2 0x490 PUSH1 0x4 DUP1 CALLDATASIZE SUB DUP2 ADD SWAP1 PUSH2 0x48B SWAP2 SWAP1 PUSH2 0x38B9 JUMP JUMPDEST PUSH2 0x1D9A JUMP JUMPDEST STOP JUMPDEST CALLVALUE DUP1 ISZERO PUSH2 0x49E JUMPI PUSH1 0x0 DUP1 REVERT JUMPDEST POP PUSH2 0x4B9 PUSH1 0x4 DUP1 CALLDATASIZE SUB DUP2 ADD SWAP1 PUSH2 0x4B4 SWAP2 SWAP1 PUSH2 0x393A JUMP JUMPDEST PUSH2 0x1E51 JUMP JUMPDEST PUSH1 0x40 MLOAD PUSH2 0x4C6 SWAP2 SWAP1 PUSH2 0x3976 JUMP JUMPDEST PUSH1 0x40 MLOAD DUP1 SWAP2 SUB SWAP1 RETURN JUMPDEST CALLVALUE DUP1 ISZERO PUSH2 0x4DB JUMPI PUSH1 0x0 DUP1 REVERT JUMPDEST POP PUSH2 0x4F6 PUSH1 0x4 DUP1 CALLDATASIZE SUB DUP2 ADD SWAP1 PUSH2 0x4F1 SWAP2 SWAP1 PUSH2 0x39C7 JUMP JUMPDEST PUSH2 0x1E78 JUMP JUMPDEST STOP JUMPDEST CALLVALUE DUP1 ISZERO PUSH2 0x504 JUMPI PUSH1 0x0 DUP1 REVERT JUMPDEST POP PUSH2 0x51F PUSH1 0x4 DUP1 CALLDATASIZE SUB DUP2 ADD SWAP1 PUSH2 0x51A SWAP2 SWAP1 PUSH2 0x3A35 JUMP JUMPDEST PUSH2 0x1EB7 JUMP JUMPDEST PUSH1 0x40 MLOAD PUSH2 0x52F SWAP5 SWAP4 SWAP3 SWAP2 SWAP1 PUSH2 0x3AFB JUMP JUMPDEST PUSH1 0x40 MLOAD DUP1 SWAP2 SUB SWAP1 RETURN JUMPDEST CALLVALUE DUP1 ISZERO PUSH2 0x544 JUMPI PUSH1 0x0 DUP1 REVERT JUMPDEST POP PUSH2 0x55F PUSH1 0x4 DUP1 CALLDATASIZE SUB DUP2 ADD SWAP1 PUSH2 0x55A SWAP2 SWAP1 PUSH2 0x3B40 JUMP JUMPDEST PUSH2 0x1F01 JUMP JUMPDEST PUSH1 0x40 MLOAD PUSH2 0x56C SWAP2 SWAP1 PUSH2 0x32C2 JUMP JUMPDEST PUSH1 0x40 MLOAD DUP1 SWAP2 SUB SWAP1 RETURN JUMPDEST CALLVALUE DUP1 ISZERO PUSH2 0x581 JUMPI PUSH1 0x0 DUP1 REVERT JUMPDEST POP PUSH2 0x58A PUSH2 0x1F34 JUMP JUMPDEST PUSH1 0x40 MLOAD PUSH2 0x597 SWAP2 SWAP1 PUSH2 0x32C2 JUMP JUMPDEST PUSH1 0x40 MLOAD DUP1 SWAP2 SUB SWAP1 RETURN JUMPDEST CALLVALUE DUP1 ISZERO PUSH2 0x5AC JUMPI PUSH1 0x0 DUP1 REVERT JUMPDEST POP PUSH2 0x5C7 PUSH1 0x4 DUP1 CALLDATASIZE SUB DUP2 ADD SWAP1 PUSH2 0x5C2 SWAP2 SWAP1 PUSH2 0x3B40 JUMP JUMPDEST PUSH2 0x1F4A JUMP JUMPDEST STOP JUMPDEST CALLVALUE DUP1 ISZERO PUSH2 0x5D5 JUMPI PUSH1 0x0 DUP1 REVERT JUMPDEST POP PUSH2 0x5F0 PUSH1 0x4 DUP1 CALLDATASIZE SUB DUP2 ADD SWAP1 PUSH2 0x5EB SWAP2 SWAP1 PUSH2 0x3B6D JUMP JUMPDEST PUSH2 0x1F6F JUMP JUMPDEST STOP JUMPDEST CALLVALUE DUP1 ISZERO PUSH2 0x5FE JUMPI PUSH1 0x0 DUP1 REVERT JUMPDEST POP PUSH2 0x619 PUSH1 0x4 DUP1 CALLDATASIZE SUB DUP2 ADD SWAP1 PUSH2 0x614 SWAP2 SWAP1 PUSH2 0x39C7 JUMP JUMPDEST PUSH2 0x1FF2 JUMP JUMPDEST STOP JUMPDEST CALLVALUE DUP1 ISZERO PUSH2 0x627 JUMPI PUSH1 0x0 DUP1 REVERT JUMPDEST POP PUSH2 0x642 PUSH1 0x4 DUP1 CALLDATASIZE SUB DUP2 ADD SWAP1 PUSH2 0x63D SWAP2 SWAP1 PUSH2 0x3BD4 JUMP JUMPDEST PUSH2 0x2031 JUMP JUMPDEST PUSH1 0x40 MLOAD PUSH2 0x64F SWAP2 SWAP1 PUSH2 0x32C2 JUMP JUMPDEST PUSH1 0x40 MLOAD DUP1 SWAP2 SUB SWAP1 RETURN JUMPDEST CALLVALUE DUP1 ISZERO PUSH2 0x664 JUMPI PUSH1 0x0 DUP1 REVERT JUMPDEST POP PUSH2 0x66D PUSH2 0x206D JUMP JUMPDEST STOP JUMPDEST CALLVALUE DUP1 ISZERO PUSH2 0x67B JUMPI PUSH1 0x0 DUP1 REVERT JUMPDEST POP PUSH2 0x696 PUSH1 0x4 DUP1 CALLDATASIZE SUB DUP2 ADD SWAP1 PUSH2 0x691 SWAP2 SWAP1 PUSH2 0x3C65 JUMP JUMPDEST PUSH2 0x207F JUMP JUMPDEST STOP JUMPDEST CALLVALUE DUP1 ISZERO PUSH2 0x6A4 JUMPI PUSH1 0x0 DUP1 REVERT JUMPDEST POP PUSH2 0x6BF PUSH1 0x4 DUP1 CALLDATASIZE SUB DUP2 ADD SWAP1 PUSH2 0x6BA SWAP2 SWAP1 PUSH2 0x3CB8 JUMP JUMPDEST PUSH2 0x20FF JUMP JUMPDEST STOP JUMPDEST CALLVALUE DUP1 ISZERO PUSH2 0x6CD JUMPI PUSH1 0x0 DUP1 REVERT JUMPDEST POP PUSH2 0x6E8 PUSH1 0x4 DUP1 CALLDATASIZE SUB DUP2 ADD SWAP1 PUSH2 0x6E3 SWAP2 SWAP1 PUSH2 0x35FC JUMP JUMPDEST PUSH2 0x21BA JUMP JUMPDEST PUSH1 0x40 MLOAD PUSH2 0x6F5 SWAP2 SWAP1 PUSH2 0x3D1A JUMP JUMPDEST PUSH1 0x40 MLOAD DUP1 SWAP2 SUB SWAP1 RETURN JUMPDEST CALLVALUE DUP1 ISZERO PUSH2 0x70A JUMPI PUSH1 0x0 DUP1 REVERT JUMPDEST POP PUSH2 0x725 PUSH1 0x4 DUP1 CALLDATASIZE SUB DUP2 ADD SWAP1 PUSH2 0x720 SWAP2 SWAP1 PUSH2 0x3D35 JUMP JUMPDEST PUSH2 0x21ED JUMP JUMPDEST STOP JUMPDEST CALLVALUE DUP1 ISZERO PUSH2 0x733 JUMPI PUSH1 0x0 DUP1 REVERT JUMPDEST POP PUSH2 0x74E PUSH1 0x4 DUP1 CALLDATASIZE SUB DUP2 ADD SWAP1 PUSH2 0x749 SWAP2 SWAP1 PUSH2 0x3653 JUMP JUMPDEST PUSH2 0x226A JUMP JUMPDEST PUSH1 0x40 MLOAD PUSH2 0x75B SWAP2 SWAP1 PUSH2 0x32C2 JUMP JUMPDEST PUSH1 0x40 MLOAD DUP1 SWAP2 SUB SWAP1 RETURN JUMPDEST CALLVALUE DUP1 ISZERO PUSH2 0x770 JUMPI PUSH1 0x0 DUP1 REVERT JUMPDEST POP PUSH2 0x779 PUSH2 0x22D5 JUMP JUMPDEST PUSH1 0x40 MLOAD PUSH2 0x786 SWAP2 SWAP1 PUSH2 0x3638 JUMP JUMPDEST PUSH1 0x40 MLOAD DUP1 SWAP2 SUB SWAP1 RETURN JUMPDEST CALLVALUE DUP1 ISZERO PUSH2 0x79B JUMPI PUSH1 0x0 DUP1 REVERT JUMPDEST POP PUSH2 0x7A4 PUSH2 0x22F9 JUMP JUMPDEST PUSH1 0x40 MLOAD PUSH2 0x7B1 SWAP2 SWAP1 PUSH2 0x3D75 JUMP JUMPDEST PUSH1 0x40 MLOAD DUP1 SWAP2 SUB SWAP1 RETURN JUMPDEST CALLVALUE DUP1 ISZERO PUSH2 0x7C6 JUMPI PUSH1 0x0 DUP1 REVERT JUMPDEST POP PUSH2 0x7CF PUSH2 0x22FF JUMP JUMPDEST PUSH1 0x40 MLOAD PUSH2 0x7DC SWAP2 SWAP1 PUSH2 0x3638 JUMP JUMPDEST PUSH1 0x40 MLOAD DUP1 SWAP2 SUB SWAP1 RETURN JUMPDEST CALLVALUE DUP1 ISZERO PUSH2 0x7F1 JUMPI PUSH1 0x0 DUP1 REVERT JUMPDEST POP PUSH2 0x80C PUSH1 0x4 DUP1 CALLDATASIZE SUB DUP2 ADD SWAP1 PUSH2 0x807 SWAP2 SWAP1 PUSH2 0x3542 JUMP JUMPDEST PUSH2 0x2306 JUMP JUMPDEST PUSH1 0x40 MLOAD PUSH2 0x819 SWAP2 SWAP1 PUSH2 0x3EF1 JUMP JUMPDEST PUSH1 0x40 MLOAD DUP1 SWAP2 SUB SWAP1 RETURN JUMPDEST CALLVALUE DUP1 ISZERO PUSH2 0x82E JUMPI PUSH1 0x0 DUP1 REVERT JUMPDEST POP PUSH2 0x849 PUSH1 0x4 DUP1 CALLDATASIZE SUB DUP2 ADD SWAP1 PUSH2 0x844 SWAP2 SWAP1 PUSH2 0x3F13 JUMP JUMPDEST PUSH2 0x2467 JUMP JUMPDEST STOP JUMPDEST CALLVALUE DUP1 ISZERO PUSH2 0x857 JUMPI PUSH1 0x0 DUP1 REVERT JUMPDEST POP PUSH2 0x872 PUSH1 0x4 DUP1 CALLDATASIZE SUB DUP2 ADD SWAP1 PUSH2 0x86D SWAP2 SWAP1 PUSH2 0x3F13 JUMP JUMPDEST PUSH2 0x258E JUMP JUMPDEST STOP JUMPDEST CALLVALUE DUP1 ISZERO PUSH2 0x880 JUMPI PUSH1 0x0 DUP1 REVERT JUMPDEST POP PUSH2 0x889 PUSH2 0x26B5 JUMP JUMPDEST PUSH1 0x40 MLOAD PUSH2 0x896 SWAP2 SWAP1 PUSH2 0x3F62 JUMP JUMPDEST PUSH1 0x40 MLOAD DUP1 SWAP2 SUB SWAP1 RETURN JUMPDEST CALLVALUE DUP1 ISZERO PUSH2 0x8AB JUMPI PUSH1 0x0 DUP1 REVERT JUMPDEST POP PUSH2 0x8B4 PUSH2 0x26D9 JUMP JUMPDEST PUSH1 0x40 MLOAD PUSH2 0x8C1 SWAP2 SWAP1 PUSH2 0x3638 JUMP JUMPDEST PUSH1 0x40 MLOAD DUP1 SWAP2 SUB SWAP1 RETURN JUMPDEST CALLVALUE DUP1 ISZERO PUSH2 0x8D6 JUMPI PUSH1 0x0 DUP1 REVERT JUMPDEST POP PUSH2 0x8DF PUSH2 0x26FD JUMP JUMPDEST PUSH1 0x40 MLOAD PUSH2 0x8EC SWAP2 SWAP1 PUSH2 0x3D75 JUMP JUMPDEST PUSH1 0x40 MLOAD DUP1 SWAP2 SUB SWAP1 RETURN JUMPDEST CALLVALUE DUP1 ISZERO PUSH2 0x901 JUMPI PUSH1 0x0 DUP1 REVERT JUMPDEST POP PUSH2 0x91C PUSH1 0x4 DUP1 CALLDATASIZE SUB DUP2 ADD SWAP1 PUSH2 0x917 SWAP2 SWAP1 PUSH2 0x3F7D JUMP JUMPDEST PUSH2 0x2703 JUMP JUMPDEST STOP JUMPDEST CALLVALUE DUP1 ISZERO PUSH2 0x92A JUMPI PUSH1 0x0 DUP1 REVERT JUMPDEST POP PUSH2 0x945 PUSH1 0x4 DUP1 CALLDATASIZE SUB DUP2 ADD SWAP1 PUSH2 0x940 SWAP2 SWAP1 PUSH2 0x35FC JUMP JUMPDEST PUSH2 0x27D5 JUMP JUMPDEST PUSH1 0x40 MLOAD PUSH2 0x952 SWAP2 SWAP1 PUSH2 0x3D75 JUMP JUMPDEST PUSH1 0x40 MLOAD DUP1 SWAP2 SUB SWAP1 RETURN JUMPDEST CALLVALUE DUP1 ISZERO PUSH2 0x967 JUMPI PUSH1 0x0 DUP1 REVERT JUMPDEST POP PUSH2 0x982 PUSH1 0x4 DUP1 CALLDATASIZE SUB DUP2 ADD SWAP1 PUSH2 0x97D SWAP2 SWAP1 PUSH2 0x3653 JUMP JUMPDEST PUSH2 0x27ED JUMP JUMPDEST STOP JUMPDEST CALLVALUE DUP1 ISZERO PUSH2 0x990 JUMPI PUSH1 0x0 DUP1 REVERT JUMPDEST POP PUSH2 0x999 PUSH2 0x2875 JUMP JUMPDEST PUSH1 0x40 MLOAD PUSH2 0x9A6 SWAP2 SWAP1 PUSH2 0x3D75 JUMP JUMPDEST PUSH1 0x40 MLOAD DUP1 SWAP2 SUB SWAP1 RETURN JUMPDEST CALLVALUE DUP1 ISZERO PUSH2 0x9BB JUMPI PUSH1 0x0 DUP1 REVERT JUMPDEST POP PUSH2 0x9D6 PUSH1 0x4 DUP1 CALLDATASIZE SUB DUP2 ADD SWAP1 PUSH2 0x9D1 SWAP2 SWAP1 PUSH2 0x35FC JUMP JUMPDEST PUSH2 0x287B JUMP JUMPDEST PUSH1 0x40 MLOAD PUSH2 0x9E3 SWAP2 SWAP1 PUSH2 0x3D75 JUMP JUMPDEST PUSH1 0x40 MLOAD DUP1 SWAP2 SUB SWAP1 RETURN JUMPDEST CALLVALUE DUP1 ISZERO PUSH2 0x9F8 JUMPI PUSH1 0x0 DUP1 REVERT JUMPDEST POP PUSH2 0xA13 PUSH1 0x4 DUP1 CALLDATASIZE SUB DUP2 ADD SWAP1 PUSH2 0xA0E SWAP2 SWAP1 PUSH2 0x3FD0 JUMP JUMPDEST PUSH2 0x293C JUMP JUMPDEST STOP JUMPDEST CALLVALUE DUP1 ISZERO PUSH2 0xA21 JUMPI PUSH1 0x0 DUP1 REVERT JUMPDEST POP PUSH2 0xA2A PUSH2 0x2A14 JUMP JUMPDEST PUSH1 0x40 MLOAD PUSH2 0xA37 SWAP2 SWAP1 PUSH2 0x3638 JUMP JUMPDEST PUSH1 0x40 MLOAD DUP1 SWAP2 SUB SWAP1 RETURN JUMPDEST CALLVALUE DUP1 ISZERO PUSH2 0xA4C JUMPI PUSH1 0x0 DUP1 REVERT JUMPDEST POP PUSH2 0xA67 PUSH1 0x4 DUP1 CALLDATASIZE SUB DUP2 ADD SWAP1 PUSH2 0xA62 SWAP2 SWAP1 PUSH2 0x404B JUMP JUMPDEST PUSH2 0x2A38 JUMP JUMPDEST STOP JUMPDEST CALLVALUE DUP1 ISZERO PUSH2 0xA75 JUMPI PUSH1 0x0 DUP1 REVERT JUMPDEST POP PUSH2 0xA7E PUSH2 0x2B6B JUMP JUMPDEST STOP JUMPDEST PUSH1 0x0 PUSH32 0x7965DB0B00000000000000000000000000000000000000000000000000000000 PUSH28 0xFFFFFFFFFFFFFFFFFFFFFFFFFFFFFFFFFFFFFFFFFFFFFFFFFFFFFFFF NOT AND DUP3 PUSH28 0xFFFFFFFFFFFFFFFFFFFFFFFFFFFFFFFFFFFFFFFFFFFFFFFFFFFFFFFF NOT AND EQ DUP1 PUSH2 0xAF3 JUMPI POP PUSH2 0xAF2 DUP3 PUSH2 0x2B7D JUMP JUMPDEST JUMPDEST SWAP1 POP SWAP2 SWAP1 POP JUMP JUMPDEST PUSH2 0xB02 PUSH2 0x2BE7 JUMP JUMPDEST PUSH1 0x0 PUSH1 0x7 PUSH1 0x0 DUP6 DUP2 MSTORE PUSH1 0x20 ADD SWAP1 DUP2 MSTORE PUSH1 0x20 ADD PUSH1 0x0 KECCAK256 PUSH1 0x0 SWAP1 SLOAD SWAP1 PUSH2 0x100 EXP SWAP1 DIV PUSH20 0xFFFFFFFFFFFFFFFFFFFFFFFFFFFFFFFFFFFFFFFF AND SWAP1 POP PUSH1 0x0 PUSH20 0xFFFFFFFFFFFFFFFFFFFFFFFFFFFFFFFFFFFFFFFF AND DUP2 PUSH20 0xFFFFFFFFFFFFFFFFFFFFFFFFFFFFFFFFFFFFFFFF AND SUB PUSH2 0xBA9 JUMPI PUSH1 0x40 MLOAD PUSH32 0x8C379A000000000000000000000000000000000000000000000000000000000 DUP2 MSTORE PUSH1 0x4 ADD PUSH2 0xBA0 SWAP1 PUSH2 0x4135 JUMP JUMPDEST PUSH1 0x40 MLOAD DUP1 SWAP2 SUB SWAP1 REVERT JUMPDEST PUSH1 0x0 PUSH1 0x6 PUSH1 0x0 DUP8 PUSH1 0xFF AND PUSH1 0xFF AND DUP2 MSTORE PUSH1 0x20 ADD SWAP1 DUP2 MSTORE PUSH1 0x20 ADD PUSH1 0x0 KECCAK256 PUSH1 0x0 DUP2 DUP2 SWAP1 SLOAD SWAP1 PUSH2 0x100 EXP SWAP1 DIV PUSH8 0xFFFFFFFFFFFFFFFF AND PUSH2 0xBE4 SWAP1 PUSH2 0x4184 JUMP JUMPDEST SWAP2 SWAP1 PUSH2 0x100 EXP DUP2 SLOAD DUP2 PUSH8 0xFFFFFFFFFFFFFFFF MUL NOT AND SWAP1 DUP4 PUSH8 0xFFFFFFFFFFFFFFFF AND MUL OR SWAP1 SSTORE SWAP1 POP DUP4 DUP4 PUSH1 0x8 PUSH1 0x0 DUP5 PUSH8 0xFFFFFFFFFFFFFFFF AND PUSH8 0xFFFFFFFFFFFFFFFF AND DUP2 MSTORE PUSH1 0x20 ADD SWAP1 DUP2 MSTORE PUSH1 0x20 ADD PUSH1 0x0 KECCAK256 PUSH1 0x0 DUP10 PUSH1 0xFF AND PUSH1 0xFF AND DUP2 MSTORE PUSH1 0x20 ADD SWAP1 DUP2 MSTORE PUSH1 0x20 ADD PUSH1 0x0 KECCAK256 SWAP2 DUP3 PUSH2 0xC58 SWAP3 SWAP2 SWAP1 PUSH2 0x43FA JUMP JUMPDEST POP PUSH1 0x0 DUP3 SWAP1 POP DUP1 PUSH20 0xFFFFFFFFFFFFFFFFFFFFFFFFFFFFFFFFFFFFFFFF AND PUSH4 0x38995DA9 CALLVALUE DUP9 DUP11 DUP7 CALLER DUP12 DUP12 PUSH1 0x40 MLOAD DUP9 PUSH4 0xFFFFFFFF AND PUSH1 0xE0 SHL DUP2 MSTORE PUSH1 0x4 ADD PUSH2 0xCA2 SWAP7 SWAP6 SWAP5 SWAP4 SWAP3 SWAP2 SWAP1 PUSH2 0x4506 JUMP JUMPDEST PUSH1 0x0 PUSH1 0x40 MLOAD DUP1 DUP4 SUB DUP2 DUP6 DUP9 DUP1 EXTCODESIZE ISZERO DUP1 ISZERO PUSH2 0xCBB JUMPI PUSH1 0x0 DUP1 REVERT JUMPDEST POP GAS CALL ISZERO DUP1 ISZERO PUSH2 0xCCF JUMPI RETURNDATASIZE PUSH1 0x0 DUP1 RETURNDATACOPY RETURNDATASIZE PUSH1 0x0 REVERT JUMPDEST POP POP POP POP POP DUP2 PUSH8 0xFFFFFFFFFFFFFFFF AND DUP7 DUP9 PUSH1 0xFF AND PUSH32 0xDBB69440DF8433824A026EF190652F29929EB64B4D1D5D2A69BE8AFE3E6EAED8 PUSH1 0x40 MLOAD PUSH1 0x40 MLOAD DUP1 SWAP2 SUB SWAP1 LOG4 POP POP POP POP POP POP POP JUMP JUMPDEST PUSH2 0xD21 PUSH2 0x2C31 JUMP JUMPDEST PUSH1 0x0 DUP4 SWAP1 POP DUP1 PUSH20 0xFFFFFFFFFFFFFFFFFFFFFFFFFFFFFFFFFFFFFFFF AND PUSH4 0xCDE252AC DUP5 DUP5 PUSH1 0x40 MLOAD DUP4 PUSH4 0xFFFFFFFF AND PUSH1 0xE0 SHL DUP2 MSTORE PUSH1 0x4 ADD PUSH2 0xD61 SWAP3 SWAP2 SWAP1 PUSH2 0x4562 JUMP JUMPDEST PUSH1 0x0 PUSH1 0x40 MLOAD DUP1 DUP4 SUB DUP2 PUSH1 0x0 DUP8 DUP1 EXTCODESIZE ISZERO DUP1 ISZERO PUSH2 0xD7B JUMPI PUSH1 0x0 DUP1 REVERT JUMPDEST POP GAS CALL ISZERO DUP1 ISZERO PUSH2 0xD8F JUMPI RETURNDATASIZE PUSH1 0x0 DUP1 RETURNDATACOPY RETURNDATASIZE PUSH1 0x0 REVERT JUMPDEST POP POP POP POP POP POP POP POP JUMP JUMPDEST PUSH2 0xDA1 PUSH2 0x2C7F JUMP JUMPDEST PUSH1 0x0 DUP4 PUSH1 0xFF AND PUSH1 0x8 DUP5 PUSH8 0xFFFFFFFFFFFFFFFF AND PUSH9 0xFFFFFFFFFFFFFFFFFF AND SWAP1 SHL OR SWAP1 POP PUSH1 0x0 PUSH1 0x9 PUSH1 0x0 DUP4 PUSH9 0xFFFFFFFFFFFFFFFFFF AND PUSH9 0xFFFFFFFFFFFFFFFFFF AND DUP2 MSTORE PUSH1 0x20 ADD SWAP1 DUP2 MSTORE PUSH1 0x20 ADD PUSH1 0x0 KECCAK256 PUSH1 0x0 DUP5 DUP2 MSTORE PUSH1 0x20 ADD SWAP1 DUP2 MSTORE PUSH1 0x20 ADD PUSH1 0x0 KECCAK256 SWAP1 POP PUSH1 0x4 DUP1 DUP2 GT ISZERO PUSH2 0xE15 JUMPI PUSH2 0xE14 PUSH2 0x3A75 JUMP JUMPDEST JUMPDEST DUP2 PUSH1 0x3 ADD PUSH1 0x0 SWAP1 SLOAD SWAP1 PUSH2 0x100 EXP SWAP1 DIV PUSH1 0xFF AND PUSH1 0x4 DUP2 GT ISZERO PUSH2 0xE39 JUMPI PUSH2 0xE38 PUSH2 0x3A75 JUMP JUMPDEST JUMPDEST SUB PUSH2 0xE79 JUMPI PUSH1 0x40 MLOAD PUSH32 0x8C379A000000000000000000000000000000000000000000000000000000000 DUP2 MSTORE PUSH1 0x4 ADD PUSH2 0xE70 SWAP1 PUSH2 0x45D7 JUMP JUMPDEST PUSH1 0x40 MLOAD DUP1 SWAP2 SUB SWAP1 REVERT JUMPDEST PUSH1 0x4 SLOAD DUP2 PUSH1 0x4 ADD SLOAD NUMBER PUSH2 0xE8C SWAP2 SWAP1 PUSH2 0x45F7 JUMP JUMPDEST GT PUSH2 0xECC JUMPI PUSH1 0x40 MLOAD PUSH32 0x8C379A000000000000000000000000000000000000000000000000000000000 DUP2 MSTORE PUSH1 0x4 ADD PUSH2 0xEC3 SWAP1 PUSH2 0x4677 JUMP JUMPDEST PUSH1 0x40 MLOAD DUP1 SWAP2 SUB SWAP1 REVERT JUMPDEST PUSH1 0x4 DUP2 PUSH1 0x3 ADD PUSH1 0x0 PUSH2 0x100 EXP DUP2 SLOAD DUP2 PUSH1 0xFF MUL NOT AND SWAP1 DUP4 PUSH1 0x4 DUP2 GT ISZERO PUSH2 0xEF4 JUMPI PUSH2 0xEF3 PUSH2 0x3A75 JUMP JUMPDEST JUMPDEST MUL OR SWAP1 SSTORE POP PUSH1 0x4 DUP1 DUP2 GT ISZERO PUSH2 0xF0C JUMPI PUSH2 0xF0B PUSH2 0x3A75 JUMP JUMPDEST JUMPDEST DUP5 PUSH8 0xFFFFFFFFFFFFFFFF AND DUP7 PUSH1 0xFF AND PUSH32 0x803C5A12F6BDE629CEA32E63D4B92D1B560816A6FB72E939D3C89E1CAB650417 DUP5 PUSH1 0x0 ADD SLOAD DUP6 PUSH1 0x1 ADD SLOAD PUSH1 0x40 MLOAD PUSH2 0xF54 SWAP3 SWAP2 SWAP1 PUSH2 0x4697 JUMP JUMPDEST PUSH1 0x40 MLOAD DUP1 SWAP2 SUB SWAP1 LOG4 POP POP POP POP POP JUMP JUMPDEST PUSH2 0xF6B PUSH2 0x2CFE JUMP JUMPDEST PUSH2 0xF73 PUSH2 0x2BE7 JUMP JUMPDEST PUSH1 0x0 DUP5 PUSH1 0xFF AND PUSH1 0x8 DUP6 PUSH8 0xFFFFFFFFFFFFFFFF AND PUSH9 0xFFFFFFFFFFFFFFFFFF AND SWAP1 SHL OR SWAP1 POP PUSH1 0x0 PUSH1 0x9 PUSH1 0x0 DUP4 PUSH9 0xFFFFFFFFFFFFFFFFFF AND PUSH9 0xFFFFFFFFFFFFFFFFFF AND DUP2 MSTORE PUSH1 0x20 ADD SWAP1 DUP2 MSTORE PUSH1 0x20 ADD PUSH1 0x0 KECCAK256 PUSH1 0x0 DUP5 DUP2 MSTORE PUSH1 0x20 ADD SWAP1 DUP2 MSTORE PUSH1 0x20 ADD PUSH1 0x0 KECCAK256 SWAP1 POP PUSH1 0x0 PUSH20 0xFFFFFFFFFFFFFFFFFFFFFFFFFFFFFFFFFFFFFFFF AND PUSH1 0x7 PUSH1 0x0 DUP7 DUP2 MSTORE PUSH1 0x20 ADD SWAP1 DUP2 MSTORE PUSH1 0x20 ADD PUSH1 0x0 KECCAK256 PUSH1 0x0 SWAP1 SLOAD SWAP1 PUSH2 0x100 EXP SWAP1 DIV PUSH20 0xFFFFFFFFFFFFFFFFFFFFFFFFFFFFFFFFFFFFFFFF AND PUSH20 0xFFFFFFFFFFFFFFFFFFFFFFFFFFFFFFFFFFFFFFFF AND SUB PUSH2 0x1076 JUMPI PUSH1 0x40 MLOAD PUSH32 0x8C379A000000000000000000000000000000000000000000000000000000000 DUP2 MSTORE PUSH1 0x4 ADD PUSH2 0x106D SWAP1 PUSH2 0x470C JUMP JUMPDEST PUSH1 0x40 MLOAD DUP1 SWAP2 SUB SWAP1 REVERT JUMPDEST PUSH1 0x1 DUP2 PUSH1 0x3 ADD PUSH1 0x0 SWAP1 SLOAD SWAP1 PUSH2 0x100 EXP SWAP1 DIV PUSH1 0xFF AND PUSH1 0x4 DUP2 GT ISZERO PUSH2 0x109C JUMPI PUSH2 0x109B PUSH2 0x3A75 JUMP JUMPDEST JUMPDEST GT ISZERO PUSH2 0x10DD JUMPI PUSH1 0x40 MLOAD PUSH32 0x8C379A000000000000000000000000000000000000000000000000000000000 DUP2 MSTORE PUSH1 0x4 ADD PUSH2 0x10D4 SWAP1 PUSH2 0x479E JUMP JUMPDEST PUSH1 0x40 MLOAD DUP1 SWAP2 SUB SWAP1 REVERT JUMPDEST PUSH1 0xA PUSH1 0x0 DUP4 PUSH9 0xFFFFFFFFFFFFFFFFFF AND PUSH9 0xFFFFFFFFFFFFFFFFFF AND DUP2 MSTORE PUSH1 0x20 ADD SWAP1 DUP2 MSTORE PUSH1 0x20 ADD PUSH1 0x0 KECCAK256 PUSH1 0x0 DUP5 DUP2 MSTORE PUSH1 0x20 ADD SWAP1 DUP2 MSTORE PUSH1 0x20 ADD PUSH1 0x0 KECCAK256 PUSH1 0x0 CALLER PUSH20 0xFFFFFFFFFFFFFFFFFFFFFFFFFFFFFFFFFFFFFFFF AND PUSH20 0xFFFFFFFFFFFFFFFFFFFFFFFFFFFFFFFFFFFFFFFF AND DUP2 MSTORE PUSH1 0x20 ADD SWAP1 DUP2 MSTORE PUSH1 0x20 ADD PUSH1 0x0 KECCAK256 PUSH1 0x0 SWAP1 SLOAD SWAP1 PUSH2 0x100 EXP SWAP1 DIV PUSH1 0xFF AND ISZERO PUSH2 0x11A2 JUMPI PUSH1 0x40 MLOAD PUSH32 0x8C379A000000000000000000000000000000000000000000000000000000000 DUP2 MSTORE PUSH1 0x4 ADD PUSH2 0x1199 SWAP1 PUSH2 0x480A JUMP JUMPDEST PUSH1 0x40 MLOAD DUP1 SWAP2 SUB SWAP1 REVERT JUMPDEST PUSH1 0x0 DUP2 PUSH1 0x3 ADD PUSH1 0x0 SWAP1 SLOAD SWAP1 PUSH2 0x100 EXP SWAP1 DIV PUSH1 0xFF AND PUSH1 0x4 DUP2 GT ISZERO PUSH2 0x11C8 JUMPI PUSH2 0x11C7 PUSH2 0x3A75 JUMP JUMPDEST JUMPDEST SUB PUSH2 0x13CF JUMPI PUSH1 0x3 PUSH1 0x0 DUP2 SLOAD PUSH2 0x11DC SWAP1 PUSH2 0x482A JUMP JUMPDEST SWAP2 SWAP1 POP DUP2 SWAP1 SSTORE POP PUSH1 0x40 MLOAD DUP1 PUSH1 0xA0 ADD PUSH1 0x40 MSTORE DUP1 DUP6 DUP2 MSTORE PUSH1 0x20 ADD DUP5 DUP2 MSTORE PUSH1 0x20 ADD PUSH1 0x1 PUSH8 0xFFFFFFFFFFFFFFFF DUP2 GT ISZERO PUSH2 0x1215 JUMPI PUSH2 0x1214 PUSH2 0x41BF JUMP JUMPDEST JUMPDEST PUSH1 0x40 MLOAD SWAP1 DUP1 DUP3 MSTORE DUP1 PUSH1 0x20 MUL PUSH1 0x20 ADD DUP3 ADD PUSH1 0x40 MSTORE DUP1 ISZERO PUSH2 0x1243 JUMPI DUP2 PUSH1 0x20 ADD PUSH1 0x20 DUP3 MUL DUP1 CALLDATASIZE DUP4 CALLDATACOPY DUP1 DUP3 ADD SWAP2 POP POP SWAP1 POP JUMPDEST POP DUP2 MSTORE PUSH1 0x20 ADD PUSH1 0x1 PUSH1 0x4 DUP2 GT ISZERO PUSH2 0x125D JUMPI PUSH2 0x125C PUSH2 0x3A75 JUMP JUMPDEST JUMPDEST DUP2 MSTORE PUSH1 0x20 ADD NUMBER DUP2 MSTORE POP PUSH1 0x9 PUSH1 0x0 DUP5 PUSH9 0xFFFFFFFFFFFFFFFFFF AND PUSH9 0xFFFFFFFFFFFFFFFFFF AND DUP2 MSTORE PUSH1 0x20 ADD SWAP1 DUP2 MSTORE PUSH1 0x20 ADD PUSH1 0x0 KECCAK256 PUSH1 0x0 DUP6 DUP2 MSTORE PUSH1 0x20 ADD SWAP1 DUP2 MSTORE PUSH1 0x20 ADD PUSH1 0x0 KECCAK256 PUSH1 0x0 DUP3 ADD MLOAD DUP2 PUSH1 0x0 ADD SSTORE PUSH1 0x20 DUP3 ADD MLOAD DUP2 PUSH1 0x1 ADD SSTORE PUSH1 0x40 DUP3 ADD MLOAD DUP2 PUSH1 0x2 ADD SWAP1 DUP1 MLOAD SWAP1 PUSH1 0x20 ADD SWAP1 PUSH2 0x12D0 SWAP3 SWAP2 SWAP1 PUSH2 0x312A JUMP JUMPDEST POP PUSH1 0x60 DUP3 ADD MLOAD DUP2 PUSH1 0x3 ADD PUSH1 0x0 PUSH2 0x100 EXP DUP2 SLOAD DUP2 PUSH1 0xFF MUL NOT AND SWAP1 DUP4 PUSH1 0x4 DUP2 GT ISZERO PUSH2 0x12FC JUMPI PUSH2 0x12FB PUSH2 0x3A75 JUMP JUMPDEST JUMPDEST MUL OR SWAP1 SSTORE POP PUSH1 0x80 DUP3 ADD MLOAD DUP2 PUSH1 0x4 ADD SSTORE SWAP1 POP POP CALLER DUP2 PUSH1 0x2 ADD PUSH1 0x0 DUP2 SLOAD DUP2 LT PUSH2 0x1326 JUMPI PUSH2 0x1325 PUSH2 0x4872 JUMP JUMPDEST JUMPDEST SWAP1 PUSH1 0x0 MSTORE PUSH1 0x20 PUSH1 0x0 KECCAK256 ADD PUSH1 0x0 PUSH2 0x100 EXP DUP2 SLOAD DUP2 PUSH20 0xFFFFFFFFFFFFFFFFFFFFFFFFFFFFFFFFFFFFFFFF MUL NOT AND SWAP1 DUP4 PUSH20 0xFFFFFFFFFFFFFFFFFFFFFFFFFFFFFFFFFFFFFFFF AND MUL OR SWAP1 SSTORE POP PUSH1 0x1 PUSH1 0x4 DUP2 GT ISZERO PUSH2 0x1382 JUMPI PUSH2 0x1381 PUSH2 0x3A75 JUMP JUMPDEST JUMPDEST DUP6 PUSH8 0xFFFFFFFFFFFFFFFF AND DUP8 PUSH1 0xFF AND PUSH32 0x803C5A12F6BDE629CEA32E63D4B92D1B560816A6FB72E939D3C89E1CAB650417 DUP8 DUP8 PUSH1 0x40 MLOAD PUSH2 0x13C2 SWAP3 SWAP2 SWAP1 PUSH2 0x4697 JUMP JUMPDEST PUSH1 0x40 MLOAD DUP1 SWAP2 SUB SWAP1 LOG4 PUSH2 0x1522 JUMP JUMPDEST PUSH1 0x4 SLOAD DUP2 PUSH1 0x4 ADD SLOAD NUMBER PUSH2 0x13E2 SWAP2 SWAP1 PUSH2 0x45F7 JUMP JUMPDEST GT ISZERO PUSH2 0x1475 JUMPI PUSH1 0x4 DUP2 PUSH1 0x3 ADD PUSH1 0x0 PUSH2 0x100 EXP DUP2 SLOAD DUP2 PUSH1 0xFF MUL NOT AND SWAP1 DUP4 PUSH1 0x4 DUP2 GT ISZERO PUSH2 0x1410 JUMPI PUSH2 0x140F PUSH2 0x3A75 JUMP JUMPDEST JUMPDEST MUL OR SWAP1 SSTORE POP PUSH1 0x4 DUP1 DUP2 GT ISZERO PUSH2 0x1428 JUMPI PUSH2 0x1427 PUSH2 0x3A75 JUMP JUMPDEST JUMPDEST DUP6 PUSH8 0xFFFFFFFFFFFFFFFF AND DUP8 PUSH1 0xFF AND PUSH32 0x803C5A12F6BDE629CEA32E63D4B92D1B560816A6FB72E939D3C89E1CAB650417 DUP8 DUP8 PUSH1 0x40 MLOAD PUSH2 0x1468 SWAP3 SWAP2 SWAP1 PUSH2 0x4697 JUMP JUMPDEST PUSH1 0x40 MLOAD DUP1 SWAP2 SUB SWAP1 LOG4 PUSH2 0x1521 JUMP JUMPDEST DUP1 PUSH1 0x1 ADD SLOAD DUP4 EQ PUSH2 0x14BB JUMPI PUSH1 0x40 MLOAD PUSH32 0x8C379A000000000000000000000000000000000000000000000000000000000 DUP2 MSTORE PUSH1 0x4 ADD PUSH2 0x14B2 SWAP1 PUSH2 0x48ED JUMP JUMPDEST PUSH1 0x40 MLOAD DUP1 SWAP2 SUB SWAP1 REVERT JUMPDEST DUP1 PUSH1 0x2 ADD CALLER SWAP1 DUP1 PUSH1 0x1 DUP2 SLOAD ADD DUP1 DUP3 SSTORE DUP1 SWAP2 POP POP PUSH1 0x1 SWAP1 SUB SWAP1 PUSH1 0x0 MSTORE PUSH1 0x20 PUSH1 0x0 KECCAK256 ADD PUSH1 0x0 SWAP1 SWAP2 SWAP1 SWAP2 SWAP1 SWAP2 PUSH2 0x100 EXP DUP2 SLOAD DUP2 PUSH20 0xFFFFFFFFFFFFFFFFFFFFFFFFFFFFFFFFFFFFFFFF MUL NOT AND SWAP1 DUP4 PUSH20 0xFFFFFFFFFFFFFFFFFFFFFFFFFFFFFFFFFFFFFFFF AND MUL OR SWAP1 SSTORE POP JUMPDEST JUMPDEST PUSH1 0x4 DUP1 DUP2 GT ISZERO PUSH2 0x1535 JUMPI PUSH2 0x1534 PUSH2 0x3A75 JUMP JUMPDEST JUMPDEST DUP2 PUSH1 0x3 ADD PUSH1 0x0 SWAP1 SLOAD SWAP1 PUSH2 0x100 EXP SWAP1 DIV PUSH1 0xFF AND PUSH1 0x4 DUP2 GT ISZERO PUSH2 0x1559 JUMPI PUSH2 0x1558 PUSH2 0x3A75 JUMP JUMPDEST JUMPDEST EQ PUSH2 0x1703 JUMPI PUSH1 0x1 PUSH1 0xA PUSH1 0x0 DUP5 PUSH9 0xFFFFFFFFFFFFFFFFFF AND PUSH9 0xFFFFFFFFFFFFFFFFFF AND DUP2 MSTORE PUSH1 0x20 ADD SWAP1 DUP2 MSTORE PUSH1 0x20 ADD PUSH1 0x0 KECCAK256 PUSH1 0x0 DUP6 DUP2 MSTORE PUSH1 0x20 ADD SWAP1 DUP2 MSTORE PUSH1 0x20 ADD PUSH1 0x0 KECCAK256 PUSH1 0x0 CALLER PUSH20 0xFFFFFFFFFFFFFFFFFFFFFFFFFFFFFFFFFFFFFFFF AND PUSH20 0xFFFFFFFFFFFFFFFFFFFFFFFFFFFFFFFFFFFFFFFF AND DUP2 MSTORE PUSH1 0x20 ADD SWAP1 DUP2 MSTORE PUSH1 0x20 ADD PUSH1 0x0 KECCAK256 PUSH1 0x0 PUSH2 0x100 EXP DUP2 SLOAD DUP2 PUSH1 0xFF MUL NOT AND SWAP1 DUP4 ISZERO ISZERO MUL OR SWAP1 SSTORE POP DUP1 PUSH1 0x3 ADD PUSH1 0x0 SWAP1 SLOAD SWAP1 PUSH2 0x100 EXP SWAP1 DIV PUSH1 0xFF AND PUSH1 0x4 DUP2 GT ISZERO PUSH2 0x1612 JUMPI PUSH2 0x1611 PUSH2 0x3A75 JUMP JUMPDEST JUMPDEST DUP6 PUSH8 0xFFFFFFFFFFFFFFFF AND DUP8 PUSH1 0xFF AND PUSH32 0x25F8DAAA4635A7729927BA3F5B3D59CC3320ACA7C32C9DB4E7CA7B9574343640 DUP8 PUSH1 0x40 MLOAD PUSH2 0x1650 SWAP2 SWAP1 PUSH2 0x3638 JUMP JUMPDEST PUSH1 0x40 MLOAD DUP1 SWAP2 SUB SWAP1 LOG4 PUSH1 0x1 PUSH1 0x2 SLOAD GT ISZERO DUP1 PUSH2 0x1673 JUMPI POP PUSH1 0x2 SLOAD DUP2 PUSH1 0x2 ADD DUP1 SLOAD SWAP1 POP LT ISZERO JUMPDEST ISZERO PUSH2 0x1702 JUMPI PUSH1 0x2 DUP2 PUSH1 0x3 ADD PUSH1 0x0 PUSH2 0x100 EXP DUP2 SLOAD DUP2 PUSH1 0xFF MUL NOT AND SWAP1 DUP4 PUSH1 0x4 DUP2 GT ISZERO PUSH2 0x16A0 JUMPI PUSH2 0x169F PUSH2 0x3A75 JUMP JUMPDEST JUMPDEST MUL OR SWAP1 SSTORE POP PUSH1 0x2 PUSH1 0x4 DUP2 GT ISZERO PUSH2 0x16B9 JUMPI PUSH2 0x16B8 PUSH2 0x3A75 JUMP JUMPDEST JUMPDEST DUP6 PUSH8 0xFFFFFFFFFFFFFFFF AND DUP8 PUSH1 0xFF AND PUSH32 0x803C5A12F6BDE629CEA32E63D4B92D1B560816A6FB72E939D3C89E1CAB650417 DUP8 DUP8 PUSH1 0x40 MLOAD PUSH2 0x16F9 SWAP3 SWAP2 SWAP1 PUSH2 0x4697 JUMP JUMPDEST PUSH1 0x40 MLOAD DUP1 SWAP2 SUB SWAP1 LOG4 JUMPDEST JUMPDEST POP POP POP POP POP POP JUMP JUMPDEST PUSH1 0x0 PUSH1 0x1 PUSH1 0x0 DUP4 DUP2 MSTORE PUSH1 0x20 ADD SWAP1 DUP2 MSTORE PUSH1 0x20 ADD PUSH1 0x0 KECCAK256 PUSH1 0x1 ADD SLOAD SWAP1 POP SWAP2 SWAP1 POP JUMP JUMPDEST PUSH2 0x1733 PUSH2 0x2C31 JUMP JUMPDEST PUSH1 0x0 PUSH1 0x7 PUSH1 0x0 DUP5 DUP2 MSTORE PUSH1 0x20 ADD SWAP1 DUP2 MSTORE PUSH1 0x20 ADD PUSH1 0x0 KECCAK256 PUSH1 0x0 SWAP1 SLOAD SWAP1 PUSH2 0x100 EXP SWAP1 DIV PUSH20 0xFFFFFFFFFFFFFFFFFFFFFFFFFFFFFFFFFFFFFFFF AND SWAP1 POP PUSH1 0x0 DUP2 SWAP1 POP DUP1 PUSH20 0xFFFFFFFFFFFFFFFFFFFFFFFFFFFFFFFFFFFFFFFF AND PUSH4 0x1B7EEB11 DUP6 DUP6 PUSH1 0x40 MLOAD DUP4 PUSH4 0xFFFFFFFF AND PUSH1 0xE0 SHL DUP2 MSTORE PUSH1 0x4 ADD PUSH2 0x17AB SWAP3 SWAP2 SWAP1 PUSH2 0x490D JUMP JUMPDEST PUSH1 0x0 PUSH1 0x40 MLOAD DUP1 DUP4 SUB DUP2 PUSH1 0x0 DUP8 DUP1 EXTCODESIZE ISZERO DUP1 ISZERO PUSH2 0x17C5 JUMPI PUSH1 0x0 DUP1 REVERT JUMPDEST POP GAS CALL ISZERO DUP1 ISZERO PUSH2 0x17D9 JUMPI RETURNDATASIZE PUSH1 0x0 DUP1 RETURNDATACOPY RETURNDATASIZE PUSH1 0x0 REVERT JUMPDEST POP POP POP POP POP POP POP POP JUMP JUMPDEST PUSH2 0x17EB PUSH2 0x2C31 JUMP JUMPDEST PUSH2 0x17F5 DUP3 DUP3 PUSH2 0x226A JUMP JUMPDEST ISZERO PUSH2 0x1835 JUMPI PUSH1 0x40 MLOAD PUSH32 0x8C379A000000000000000000000000000000000000000000000000000000000 DUP2 MSTORE PUSH1 0x4 ADD PUSH2 0x182C SWAP1 PUSH2 0x4982 JUMP JUMPDEST PUSH1 0x40 MLOAD DUP1 SWAP2 SUB SWAP1 REVERT JUMPDEST PUSH2 0x183F DUP3 DUP3 PUSH2 0x2D69 JUMP JUMPDEST PUSH1 0x5 PUSH1 0x0 DUP4 DUP2 MSTORE PUSH1 0x20 ADD SWAP1 DUP2 MSTORE PUSH1 0x20 ADD PUSH1 0x0 KECCAK256 PUSH1 0x0 DUP2 SLOAD DUP1 SWAP3 SWAP2 SWAP1 PUSH2 0x1863 SWAP1 PUSH2 0x482A JUMP JUMPDEST SWAP2 SWAP1 POP SSTORE POP POP POP JUMP JUMPDEST PUSH2 0x1874 PUSH2 0x2E49 JUMP JUMPDEST PUSH20 0xFFFFFFFFFFFFFFFFFFFFFFFFFFFFFFFFFFFFFFFF AND DUP2 PUSH20 0xFFFFFFFFFFFFFFFFFFFFFFFFFFFFFFFFFFFFFFFF AND EQ PUSH2 0x18E1 JUMPI PUSH1 0x40 MLOAD PUSH32 0x8C379A000000000000000000000000000000000000000000000000000000000 DUP2 MSTORE PUSH1 0x4 ADD PUSH2 0x18D8 SWAP1 PUSH2 0x4A14 JUMP JUMPDEST PUSH1 0x40 MLOAD DUP1 SWAP2 SUB SWAP1 REVERT JUMPDEST PUSH2 0x18EB DUP3 DUP3 PUSH2 0x226A JUMP JUMPDEST PUSH2 0x192A JUMPI PUSH1 0x40 MLOAD PUSH32 0x8C379A000000000000000000000000000000000000000000000000000000000 DUP2 MSTORE PUSH1 0x4 ADD PUSH2 0x1921 SWAP1 PUSH2 0x4A80 JUMP JUMPDEST PUSH1 0x40 MLOAD DUP1 SWAP2 SUB SWAP1 REVERT JUMPDEST PUSH2 0x1934 DUP3 DUP3 PUSH2 0x2E51 JUMP JUMPDEST PUSH1 0x5 PUSH1 0x0 DUP4 DUP2 MSTORE PUSH1 0x20 ADD SWAP1 DUP2 MSTORE PUSH1 0x20 ADD PUSH1 0x0 KECCAK256 PUSH1 0x0 DUP2 SLOAD DUP1 SWAP3 SWAP2 SWAP1 PUSH2 0x1958 SWAP1 PUSH2 0x4AA0 JUMP JUMPDEST SWAP2 SWAP1 POP SSTORE POP POP POP JUMP JUMPDEST PUSH1 0x8 PUSH1 0x20 MSTORE DUP2 PUSH1 0x0 MSTORE PUSH1 0x40 PUSH1 0x0 KECCAK256 PUSH1 0x20 MSTORE DUP1 PUSH1 0x0 MSTORE PUSH1 0x40 PUSH1 0x0 KECCAK256 PUSH1 0x0 SWAP2 POP SWAP2 POP POP DUP1 SLOAD PUSH2 0x198D SWAP1 PUSH2 0x421D JUMP JUMPDEST DUP1 PUSH1 0x1F ADD PUSH1 0x20 DUP1 SWAP2 DIV MUL PUSH1 0x20 ADD PUSH1 0x40 MLOAD SWAP1 DUP2 ADD PUSH1 0x40 MSTORE DUP1 SWAP3 SWAP2 SWAP1 DUP2 DUP2 MSTORE PUSH1 0x20 ADD DUP3 DUP1 SLOAD PUSH2 0x19B9 SWAP1 PUSH2 0x421D JUMP JUMPDEST DUP1 ISZERO PUSH2 0x1A06 JUMPI DUP1 PUSH1 0x1F LT PUSH2 0x19DB JUMPI PUSH2 0x100 DUP1 DUP4 SLOAD DIV MUL DUP4 MSTORE SWAP2 PUSH1 0x20 ADD SWAP2 PUSH2 0x1A06 JUMP JUMPDEST DUP3 ADD SWAP2 SWAP1 PUSH1 0x0 MSTORE PUSH1 0x20 PUSH1 0x0 KECCAK256 SWAP1 JUMPDEST DUP2 SLOAD DUP2 MSTORE SWAP1 PUSH1 0x1 ADD SWAP1 PUSH1 0x20 ADD DUP1 DUP4 GT PUSH2 0x19E9 JUMPI DUP3 SWAP1 SUB PUSH1 0x1F AND DUP3 ADD SWAP2 JUMPDEST POP POP POP POP POP DUP2 JUMP JUMPDEST PUSH2 0x1A16 PUSH2 0x2CFE JUMP JUMPDEST PUSH2 0x1A1E PUSH2 0x2BE7 JUMP JUMPDEST PUSH1 0x0 PUSH1 0x7 PUSH1 0x0 DUP4 DUP2 MSTORE PUSH1 0x20 ADD SWAP1 DUP2 MSTORE PUSH1 0x20 ADD PUSH1 0x0 KECCAK256 PUSH1 0x0 SWAP1 SLOAD SWAP1 PUSH2 0x100 EXP SWAP1 DIV PUSH20 0xFFFFFFFFFFFFFFFFFFFFFFFFFFFFFFFFFFFFFFFF AND SWAP1 POP PUSH1 0x0 DUP7 PUSH1 0xFF AND PUSH1 0x8 DUP8 PUSH8 0xFFFFFFFFFFFFFFFF AND PUSH9 0xFFFFFFFFFFFFFFFFFF AND SWAP1 SHL OR SWAP1 POP PUSH1 0x0 DUP3 DUP7 DUP7 PUSH1 0x40 MLOAD PUSH1 0x20 ADD PUSH2 0x1A90 SWAP4 SWAP3 SWAP2 SWAP1 PUSH2 0x4B41 JUMP JUMPDEST PUSH1 0x40 MLOAD PUSH1 0x20 DUP2 DUP4 SUB SUB DUP2 MSTORE SWAP1 PUSH1 0x40 MSTORE DUP1 MLOAD SWAP1 PUSH1 0x20 ADD KECCAK256 SWAP1 POP PUSH1 0x0 PUSH1 0x9 PUSH1 0x0 DUP5 PUSH9 0xFFFFFFFFFFFFFFFFFF AND PUSH9 0xFFFFFFFFFFFFFFFFFF AND DUP2 MSTORE PUSH1 0x20 ADD SWAP1 DUP2 MSTORE PUSH1 0x20 ADD PUSH1 0x0 KECCAK256 PUSH1 0x0 DUP4 DUP2 MSTORE PUSH1 0x20 ADD SWAP1 DUP2 MSTORE PUSH1 0x20 ADD PUSH1 0x0 KECCAK256 SWAP1 POP PUSH1 0x4 SLOAD DUP2 PUSH1 0x4 ADD SLOAD NUMBER PUSH2 0x1AF9 SWAP2 SWAP1 PUSH2 0x45F7 JUMP JUMPDEST GT ISZERO PUSH2 0x1B3A JUMPI PUSH1 0x40 MLOAD PUSH32 0x8C379A000000000000000000000000000000000000000000000000000000000 DUP2 MSTORE PUSH1 0x4 ADD PUSH2 0x1B31 SWAP1 PUSH2 0x4BDD JUMP JUMPDEST PUSH1 0x40 MLOAD DUP1 SWAP2 SUB SWAP1 REVERT JUMPDEST DUP1 PUSH1 0x0 ADD SLOAD DUP6 EQ PUSH2 0x1B80 JUMPI PUSH1 0x40 MLOAD PUSH32 0x8C379A000000000000000000000000000000000000000000000000000000000 DUP2 MSTORE PUSH1 0x4 ADD PUSH2 0x1B77 SWAP1 PUSH2 0x4C6F JUMP JUMPDEST PUSH1 0x40 MLOAD DUP1 SWAP2 SUB SWAP1 REVERT JUMPDEST PUSH1 0x2 PUSH1 0x4 DUP2 GT ISZERO PUSH2 0x1B94 JUMPI PUSH2 0x1B93 PUSH2 0x3A75 JUMP JUMPDEST JUMPDEST DUP2 PUSH1 0x3 ADD PUSH1 0x0 SWAP1 SLOAD SWAP1 PUSH2 0x100 EXP SWAP1 DIV PUSH1 0xFF AND PUSH1 0x4 DUP2 GT ISZERO PUSH2 0x1BB8 JUMPI PUSH2 0x1BB7 PUSH2 0x3A75 JUMP JUMPDEST JUMPDEST EQ PUSH2 0x1BF8 JUMPI PUSH1 0x40 MLOAD PUSH32 0x8C379A000000000000000000000000000000000000000000000000000000000 DUP2 MSTORE PUSH1 0x4 ADD PUSH2 0x1BEF SWAP1 PUSH2 0x4CDB JUMP JUMPDEST PUSH1 0x40 MLOAD DUP1 SWAP2 SUB SWAP1 REVERT JUMPDEST DUP1 PUSH1 0x1 ADD SLOAD DUP3 EQ PUSH2 0x1C3E JUMPI PUSH1 0x40 MLOAD PUSH32 0x8C379A000000000000000000000000000000000000000000000000000000000 DUP2 MSTORE PUSH1 0x4 ADD PUSH2 0x1C35 SWAP1 PUSH2 0x4D47 JUMP JUMPDEST PUSH1 0x40 MLOAD DUP1 SWAP2 SUB SWAP1 REVERT JUMPDEST PUSH1 0x3 DUP2 PUSH1 0x3 ADD PUSH1 0x0 PUSH2 0x100 EXP DUP2 SLOAD DUP2 PUSH1 0xFF MUL NOT AND SWAP1 DUP4 PUSH1 0x4 DUP2 GT ISZERO PUSH2 0x1C66 JUMPI PUSH2 0x1C65 PUSH2 0x3A75 JUMP JUMPDEST JUMPDEST MUL OR SWAP1 SSTORE POP PUSH1 0x0 PUSH1 0x7 PUSH1 0x0 DUP4 PUSH1 0x0 ADD SLOAD DUP2 MSTORE PUSH1 0x20 ADD SWAP1 DUP2 MSTORE PUSH1 0x20 ADD PUSH1 0x0 KECCAK256 PUSH1 0x0 SWAP1 SLOAD SWAP1 PUSH2 0x100 EXP SWAP1 DIV PUSH20 0xFFFFFFFFFFFFFFFFFFFFFFFFFFFFFFFFFFFFFFFF AND SWAP1 POP DUP1 PUSH20 0xFFFFFFFFFFFFFFFFFFFFFFFFFFFFFFFFFFFFFFFF AND PUSH4 0xE248CFF2 DUP4 PUSH1 0x0 ADD SLOAD DUP11 DUP11 PUSH1 0x40 MLOAD DUP5 PUSH4 0xFFFFFFFF AND PUSH1 0xE0 SHL DUP2 MSTORE PUSH1 0x4 ADD PUSH2 0x1CE8 SWAP4 SWAP3 SWAP2 SWAP1 PUSH2 0x4D67 JUMP JUMPDEST PUSH1 0x0 PUSH1 0x40 MLOAD DUP1 DUP4 SUB DUP2 PUSH1 0x0 DUP8 DUP1 EXTCODESIZE ISZERO DUP1 ISZERO PUSH2 0x1D02 JUMPI PUSH1 0x0 DUP1 REVERT JUMPDEST POP GAS CALL ISZERO DUP1 ISZERO PUSH2 0x1D16 JUMPI RETURNDATASIZE PUSH1 0x0 DUP1 RETURNDATACOPY RETURNDATASIZE PUSH1 0x0 REVERT JUMPDEST POP POP POP POP DUP2 PUSH1 0x3 ADD PUSH1 0x0 SWAP1 SLOAD SWAP1 PUSH2 0x100 EXP SWAP1 DIV PUSH1 0xFF AND PUSH1 0x4 DUP2 GT ISZERO PUSH2 0x1D3E JUMPI PUSH2 0x1D3D PUSH2 0x3A75 JUMP JUMPDEST JUMPDEST DUP10 PUSH8 0xFFFFFFFFFFFFFFFF AND DUP12 PUSH1 0xFF AND PUSH32 0x803C5A12F6BDE629CEA32E63D4B92D1B560816A6FB72E939D3C89E1CAB650417 DUP6 PUSH1 0x0 ADD SLOAD DUP7 PUSH1 0x1 ADD SLOAD PUSH1 0x40 MLOAD PUSH2 0x1D86 SWAP3 SWAP2 SWAP1 PUSH2 0x4697 JUMP JUMPDEST PUSH1 0x40 MLOAD DUP1 SWAP2 SUB SWAP1 LOG4 POP POP POP POP POP POP POP POP POP POP JUMP JUMPDEST PUSH2 0x1DA2 PUSH2 0x2C31 JUMP JUMPDEST PUSH1 0x0 JUMPDEST DUP5 DUP5 SWAP1 POP DUP2 LT ISZERO PUSH2 0x1E4A JUMPI DUP5 DUP5 DUP3 DUP2 DUP2 LT PUSH2 0x1DC3 JUMPI PUSH2 0x1DC2 PUSH2 0x4872 JUMP JUMPDEST JUMPDEST SWAP1 POP PUSH1 0x20 MUL ADD PUSH1 0x20 DUP2 ADD SWAP1 PUSH2 0x1DD8 SWAP2 SWAP1 PUSH2 0x4D99 JUMP JUMPDEST PUSH20 0xFFFFFFFFFFFFFFFFFFFFFFFFFFFFFFFFFFFFFFFF AND PUSH2 0x8FC DUP5 DUP5 DUP5 DUP2 DUP2 LT PUSH2 0x1E04 JUMPI PUSH2 0x1E03 PUSH2 0x4872 JUMP JUMPDEST JUMPDEST SWAP1 POP PUSH1 0x20 MUL ADD CALLDATALOAD SWAP1 DUP2 ISZERO MUL SWAP1 PUSH1 0x40 MLOAD PUSH1 0x0 PUSH1 0x40 MLOAD DUP1 DUP4 SUB DUP2 DUP6 DUP9 DUP9 CALL SWAP4 POP POP POP POP ISZERO DUP1 ISZERO PUSH2 0x1E36 JUMPI RETURNDATASIZE PUSH1 0x0 DUP1 RETURNDATACOPY RETURNDATASIZE PUSH1 0x0 REVERT JUMPDEST POP DUP1 DUP1 PUSH2 0x1E42 SWAP1 PUSH2 0x482A JUMP JUMPDEST SWAP2 POP POP PUSH2 0x1DA5 JUMP JUMPDEST POP POP POP POP POP JUMP JUMPDEST PUSH1 0x6 PUSH1 0x20 MSTORE DUP1 PUSH1 0x0 MSTORE PUSH1 0x40 PUSH1 0x0 KECCAK256 PUSH1 0x0 SWAP2 POP SLOAD SWAP1 PUSH2 0x100 EXP SWAP1 DIV PUSH8 0xFFFFFFFFFFFFFFFF AND DUP2 JUMP JUMPDEST PUSH2 0x1E80 PUSH2 0x2C31 JUMP JUMPDEST DUP1 PUSH1 0x2 DUP2 SWAP1 SSTORE POP DUP1 PUSH32 0xA20D6B84CD798A24038BE305EFF8A45CA82EF54A2AA2082005D8E14C0A4746C8 PUSH1 0x40 MLOAD PUSH1 0x40 MLOAD DUP1 SWAP2 SUB SWAP1 LOG2 POP JUMP JUMPDEST PUSH1 0x9 PUSH1 0x20 MSTORE DUP2 PUSH1 0x0 MSTORE PUSH1 0x40 PUSH1 0x0 KECCAK256 PUSH1 0x20 MSTORE DUP1 PUSH1 0x0 MSTORE PUSH1 0x40 PUSH1 0x0 KECCAK256 PUSH1 0x0 SWAP2 POP SWAP2 POP POP DUP1 PUSH1 0x0 ADD SLOAD SWAP1 DUP1 PUSH1 0x1 ADD SLOAD SWAP1 DUP1 PUSH1 0x3 ADD PUSH1 0x0 SWAP1 SLOAD SWAP1 PUSH2 0x100 EXP SWAP1 DIV PUSH1 0xFF AND SWAP1 DUP1 PUSH1 0x4 ADD SLOAD SWAP1 POP DUP5 JUMP JUMPDEST PUSH1 0x0 PUSH2 0x1F2D PUSH32 0xE2B7FB3B832174769106DAEBCFD6D1970523240DDA11281102DB9363B83B0DC4 DUP4 PUSH2 0x226A JUMP JUMPDEST SWAP1 POP SWAP2 SWAP1 POP JUMP JUMPDEST PUSH1 0x0 DUP1 PUSH1 0x0 SWAP1 SLOAD SWAP1 PUSH2 0x100 EXP SWAP1 DIV PUSH1 0xFF AND SWAP1 POP SWAP1 JUMP JUMPDEST PUSH2 0x1F52 PUSH2 0x2C31 JUMP JUMPDEST PUSH2 0x1F5F PUSH1 0x0 DUP1 SHL DUP3 PUSH2 0x17E3 JUMP JUMPDEST PUSH2 0x1F6C PUSH1 0x0 DUP1 SHL CALLER PUSH2 0x186C JUMP JUMPDEST POP JUMP JUMPDEST PUSH2 0x1F77 PUSH2 0x2C31 JUMP JUMPDEST PUSH1 0x0 DUP5 SWAP1 POP DUP1 PUSH20 0xFFFFFFFFFFFFFFFFFFFFFFFFFFFFFFFFFFFFFFFF AND PUSH4 0xD9CAED12 DUP6 DUP6 DUP6 PUSH1 0x40 MLOAD DUP5 PUSH4 0xFFFFFFFF AND PUSH1 0xE0 SHL DUP2 MSTORE PUSH1 0x4 ADD PUSH2 0x1FB9 SWAP4 SWAP3 SWAP2 SWAP1 PUSH2 0x4DC6 JUMP JUMPDEST PUSH1 0x0 PUSH1 0x40 MLOAD DUP1 DUP4 SUB DUP2 PUSH1 0x0 DUP8 DUP1 EXTCODESIZE ISZERO DUP1 ISZERO PUSH2 0x1FD3 JUMPI PUSH1 0x0 DUP1 REVERT JUMPDEST POP GAS CALL ISZERO DUP1 ISZERO PUSH2 0x1FE7 JUMPI RETURNDATASIZE PUSH1 0x0 DUP1 RETURNDATACOPY RETURNDATASIZE PUSH1 0x0 REVERT JUMPDEST POP POP POP POP POP POP POP POP POP JUMP JUMPDEST PUSH2 0x1FFA PUSH2 0x2C31 JUMP JUMPDEST DUP1 PUSH1 0x4 DUP2 SWAP1 SSTORE POP DUP1 PUSH32 0x5D6474E9753700923C386996848737C59D1178E1EBDCD4783340E53C0FF259DB PUSH1 0x40 MLOAD PUSH1 0x40 MLOAD DUP1 SWAP2 SUB SWAP1 LOG2 POP JUMP JUMPDEST PUSH1 0xA PUSH1 0x20 MSTORE DUP3 PUSH1 0x0 MSTORE PUSH1 0x40 PUSH1 0x0 KECCAK256 PUSH1 0x20 MSTORE DUP2 PUSH1 0x0 MSTORE PUSH1 0x40 PUSH1 0x0 KECCAK256 PUSH1 0x20 MSTORE DUP1 PUSH1 0x0 MSTORE PUSH1 0x40 PUSH1 0x0 KECCAK256 PUSH1 0x0 SWAP3 POP SWAP3 POP POP SWAP1 SLOAD SWAP1 PUSH2 0x100 EXP SWAP1 DIV PUSH1 0xFF AND DUP2 JUMP JUMPDEST PUSH2 0x2075 PUSH2 0x2C31 JUMP JUMPDEST PUSH2 0x207D PUSH2 0x2F33 JUMP JUMPDEST JUMP JUMPDEST PUSH2 0x2087 PUSH2 0x2C31 JUMP JUMPDEST PUSH1 0x0 DUP4 SWAP1 POP DUP1 PUSH20 0xFFFFFFFFFFFFFFFFFFFFFFFFFFFFFFFFFFFFFFFF AND PUSH4 0x4782F779 DUP5 DUP5 PUSH1 0x40 MLOAD DUP4 PUSH4 0xFFFFFFFF AND PUSH1 0xE0 SHL DUP2 MSTORE PUSH1 0x4 ADD PUSH2 0x20C7 SWAP3 SWAP2 SWAP1 PUSH2 0x4E0C JUMP JUMPDEST PUSH1 0x0 PUSH1 0x40 MLOAD DUP1 DUP4 SUB DUP2 PUSH1 0x0 DUP8 DUP1 EXTCODESIZE ISZERO DUP1 ISZERO PUSH2 0x20E1 JUMPI PUSH1 0x0 DUP1 REVERT JUMPDEST POP GAS CALL ISZERO DUP1 ISZERO PUSH2 0x20F5 JUMPI RETURNDATASIZE PUSH1 0x0 DUP1 RETURNDATACOPY RETURNDATASIZE PUSH1 0x0 REVERT JUMPDEST POP POP POP POP POP POP POP POP JUMP JUMPDEST PUSH2 0x2107 PUSH2 0x2F95 JUMP JUMPDEST PUSH1 0x0 PUSH1 0x7 PUSH1 0x0 DUP6 DUP2 MSTORE PUSH1 0x20 ADD SWAP1 DUP2 MSTORE PUSH1 0x20 ADD PUSH1 0x0 KECCAK256 PUSH1 0x0 SWAP1 SLOAD SWAP1 PUSH2 0x100 EXP SWAP1 DIV PUSH20 0xFFFFFFFFFFFFFFFFFFFFFFFFFFFFFFFFFFFFFFFF AND SWAP1 POP PUSH1 0x0 DUP2 SWAP1 POP DUP1 PUSH20 0xFFFFFFFFFFFFFFFFFFFFFFFFFFFFFFFFFFFFFFFF AND PUSH4 0x83D3F95D DUP7 DUP7 DUP7 PUSH1 0x40 MLOAD DUP5 PUSH4 0xFFFFFFFF AND PUSH1 0xE0 SHL DUP2 MSTORE PUSH1 0x4 ADD PUSH2 0x2181 SWAP4 SWAP3 SWAP2 SWAP1 PUSH2 0x4E35 JUMP JUMPDEST PUSH1 0x0 PUSH1 0x40 MLOAD DUP1 DUP4 SUB DUP2 PUSH1 0x0 DUP8 DUP1 EXTCODESIZE ISZERO DUP1 ISZERO PUSH2 0x219B JUMPI PUSH1 0x0 DUP1 REVERT JUMPDEST POP GAS CALL ISZERO DUP1 ISZERO PUSH2 0x21AF JUMPI RETURNDATASIZE PUSH1 0x0 DUP1 RETURNDATACOPY RETURNDATASIZE PUSH1 0x0 REVERT JUMPDEST POP POP POP POP POP POP POP POP POP JUMP JUMPDEST PUSH1 0x7 PUSH1 0x20 MSTORE DUP1 PUSH1 0x0 MSTORE PUSH1 0x40 PUSH1 0x0 KECCAK256 PUSH1 0x0 SWAP2 POP SLOAD SWAP1 PUSH2 0x100 EXP SWAP1 DIV PUSH20 0xFFFFFFFFFFFFFFFFFFFFFFFFFFFFFFFFFFFFFFFF AND DUP2 JUMP JUMPDEST PUSH2 0x21F5 PUSH2 0x2C31 JUMP JUMPDEST PUSH1 0x0 DUP3 SWAP1 POP DUP1 PUSH20 0xFFFFFFFFFFFFFFFFFFFFFFFFFFFFFFFFFFFFFFFF AND PUSH4 0x7B7ED99 DUP4 PUSH1 0x40 MLOAD DUP3 PUSH4 0xFFFFFFFF AND PUSH1 0xE0 SHL DUP2 MSTORE PUSH1 0x4 ADD PUSH2 0x2233 SWAP2 SWAP1 PUSH2 0x3D1A JUMP JUMPDEST PUSH1 0x0 PUSH1 0x40 MLOAD DUP1 DUP4 SUB DUP2 PUSH1 0x0 DUP8 DUP1 EXTCODESIZE ISZERO DUP1 ISZERO PUSH2 0x224D JUMPI PUSH1 0x0 DUP1 REVERT JUMPDEST POP GAS CALL ISZERO DUP1 ISZERO PUSH2 0x2261 JUMPI RETURNDATASIZE PUSH1 0x0 DUP1 RETURNDATACOPY RETURNDATASIZE PUSH1 0x0 REVERT JUMPDEST POP POP POP POP POP POP POP JUMP JUMPDEST PUSH1 0x0 PUSH1 0x1 PUSH1 0x0 DUP5 DUP2 MSTORE PUSH1 0x20 ADD SWAP1 DUP2 MSTORE PUSH1 0x20 ADD PUSH1 0x0 KECCAK256 PUSH1 0x0 ADD PUSH1 0x0 DUP4 PUSH20 0xFFFFFFFFFFFFFFFFFFFFFFFFFFFFFFFFFFFFFFFF AND PUSH20 0xFFFFFFFFFFFFFFFFFFFFFFFFFFFFFFFFFFFFFFFF AND DUP2 MSTORE PUSH1 0x20 ADD SWAP1 DUP2 MSTORE PUSH1 0x20 ADD PUSH1 0x0 KECCAK256 PUSH1 0x0 SWAP1 SLOAD SWAP1 PUSH2 0x100 EXP SWAP1 DIV PUSH1 0xFF AND SWAP1 POP SWAP3 SWAP2 POP POP JUMP JUMPDEST PUSH32 0xE2B7FB3B832174769106DAEBCFD6D1970523240DDA11281102DB9363B83B0DC4 DUP2 JUMP JUMPDEST PUSH1 0x3 SLOAD DUP2 JUMP JUMPDEST PUSH1 0x0 DUP1 SHL DUP2 JUMP JUMPDEST PUSH2 0x230E PUSH2 0x31B4 JUMP JUMPDEST PUSH1 0x0 DUP5 PUSH1 0xFF AND PUSH1 0x8 DUP6 PUSH8 0xFFFFFFFFFFFFFFFF AND PUSH9 0xFFFFFFFFFFFFFFFFFF AND SWAP1 SHL OR SWAP1 POP PUSH1 0x9 PUSH1 0x0 DUP3 PUSH9 0xFFFFFFFFFFFFFFFFFF AND PUSH9 0xFFFFFFFFFFFFFFFFFF AND DUP2 MSTORE PUSH1 0x20 ADD SWAP1 DUP2 MSTORE PUSH1 0x20 ADD PUSH1 0x0 KECCAK256 PUSH1 0x0 DUP5 DUP2 MSTORE PUSH1 0x20 ADD SWAP1 DUP2 MSTORE PUSH1 0x20 ADD PUSH1 0x0 KECCAK256 PUSH1 0x40 MLOAD DUP1 PUSH1 0xA0 ADD PUSH1 0x40 MSTORE SWAP1 DUP2 PUSH1 0x0 DUP3 ADD SLOAD DUP2 MSTORE PUSH1 0x20 ADD PUSH1 0x1 DUP3 ADD SLOAD DUP2 MSTORE PUSH1 0x20 ADD PUSH1 0x2 DUP3 ADD DUP1 SLOAD DUP1 PUSH1 0x20 MUL PUSH1 0x20 ADD PUSH1 0x40 MLOAD SWAP1 DUP2 ADD PUSH1 0x40 MSTORE DUP1 SWAP3 SWAP2 SWAP1 DUP2 DUP2 MSTORE PUSH1 0x20 ADD DUP3 DUP1 SLOAD DUP1 ISZERO PUSH2 0x240F JUMPI PUSH1 0x20 MUL DUP3 ADD SWAP2 SWAP1 PUSH1 0x0 MSTORE PUSH1 0x20 PUSH1 0x0 KECCAK256 SWAP1 JUMPDEST DUP2 PUSH1 0x0 SWAP1 SLOAD SWAP1 PUSH2 0x100 EXP SWAP1 DIV PUSH20 0xFFFFFFFFFFFFFFFFFFFFFFFFFFFFFFFFFFFFFFFF AND PUSH20 0xFFFFFFFFFFFFFFFFFFFFFFFFFFFFFFFFFFFFFFFF AND DUP2 MSTORE PUSH1 0x20 ADD SWAP1 PUSH1 0x1 ADD SWAP1 DUP1 DUP4 GT PUSH2 0x23C5 JUMPI JUMPDEST POP POP POP POP POP DUP2 MSTORE PUSH1 0x20 ADD PUSH1 0x3 DUP3 ADD PUSH1 0x0 SWAP1 SLOAD SWAP1 PUSH2 0x100 EXP SWAP1 DIV PUSH1 0xFF AND PUSH1 0x4 DUP2 GT ISZERO PUSH2 0x243D JUMPI PUSH2 0x243C PUSH2 0x3A75 JUMP JUMPDEST JUMPDEST PUSH1 0x4 DUP2 GT ISZERO PUSH2 0x244F JUMPI PUSH2 0x244E PUSH2 0x3A75 JUMP JUMPDEST JUMPDEST DUP2 MSTORE PUSH1 0x20 ADD PUSH1 0x4 DUP3 ADD SLOAD DUP2 MSTORE POP POP SWAP2 POP POP SWAP4 SWAP3 POP POP POP JUMP JUMPDEST PUSH2 0x246F PUSH2 0x3000 JUMP JUMPDEST PUSH1 0x0 PUSH1 0x7 PUSH1 0x0 DUP5 DUP2 MSTORE PUSH1 0x20 ADD SWAP1 DUP2 MSTORE PUSH1 0x20 ADD PUSH1 0x0 KECCAK256 PUSH1 0x0 SWAP1 SLOAD SWAP1 PUSH2 0x100 EXP SWAP1 DIV PUSH20 0xFFFFFFFFFFFFFFFFFFFFFFFFFFFFFFFFFFFFFFFF AND SWAP1 POP PUSH1 0x0 PUSH20 0xFFFFFFFFFFFFFFFFFFFFFFFFFFFFFFFFFFFFFFFF AND DUP2 PUSH20 0xFFFFFFFFFFFFFFFFFFFFFFFFFFFFFFFFFFFFFFFF AND SUB PUSH2 0x2516 JUMPI PUSH1 0x40 MLOAD PUSH32 0x8C379A000000000000000000000000000000000000000000000000000000000 DUP2 MSTORE PUSH1 0x4 ADD PUSH2 0x250D SWAP1 PUSH2 0x4EB8 JUMP JUMPDEST PUSH1 0x40 MLOAD DUP1 SWAP2 SUB SWAP1 REVERT JUMPDEST PUSH1 0x0 DUP2 SWAP1 POP DUP1 PUSH20 0xFFFFFFFFFFFFFFFFFFFFFFFFFFFFFFFFFFFFFFFF AND PUSH4 0xB96F8F32 DUP6 DUP6 PUSH1 0x40 MLOAD DUP4 PUSH4 0xFFFFFFFF AND PUSH1 0xE0 SHL DUP2 MSTORE PUSH1 0x4 ADD PUSH2 0x2556 SWAP3 SWAP2 SWAP1 PUSH2 0x4ED8 JUMP JUMPDEST PUSH1 0x0 PUSH1 0x40 MLOAD DUP1 DUP4 SUB DUP2 PUSH1 0x0 DUP8 DUP1 EXTCODESIZE ISZERO DUP1 ISZERO PUSH2 0x2570 JUMPI PUSH1 0x0 DUP1 REVERT JUMPDEST POP GAS CALL ISZERO DUP1 ISZERO PUSH2 0x2584 JUMPI RETURNDATASIZE PUSH1 0x0 DUP1 RETURNDATACOPY RETURNDATASIZE PUSH1 0x0 REVERT JUMPDEST POP POP POP POP POP POP POP POP JUMP JUMPDEST PUSH2 0x2596 PUSH2 0x3000 JUMP JUMPDEST PUSH1 0x0 PUSH1 0x7 PUSH1 0x0 DUP5 DUP2 MSTORE PUSH1 0x20 ADD SWAP1 DUP2 MSTORE PUSH1 0x20 ADD PUSH1 0x0 KECCAK256 PUSH1 0x0 SWAP1 SLOAD SWAP1 PUSH2 0x100 EXP SWAP1 DIV PUSH20 0xFFFFFFFFFFFFFFFFFFFFFFFFFFFFFFFFFFFFFFFF AND SWAP1 POP PUSH1 0x0 PUSH20 0xFFFFFFFFFFFFFFFFFFFFFFFFFFFFFFFFFFFFFFFF AND DUP2 PUSH20 0xFFFFFFFFFFFFFFFFFFFFFFFFFFFFFFFFFFFFFFFF AND SUB PUSH2 0x263D JUMPI PUSH1 0x40 MLOAD PUSH32 0x8C379A000000000000000000000000000000000000000000000000000000000 DUP2 MSTORE PUSH1 0x4 ADD PUSH2 0x2634 SWAP1 PUSH2 0x4EB8 JUMP JUMPDEST PUSH1 0x40 MLOAD DUP1 SWAP2 SUB SWAP1 REVERT JUMPDEST PUSH1 0x0 DUP2 SWAP1 POP DUP1 PUSH20 0xFFFFFFFFFFFFFFFFFFFFFFFFFFFFFFFFFFFFFFFF AND PUSH4 0xBC7A16B7 DUP6 DUP6 PUSH1 0x40 MLOAD DUP4 PUSH4 0xFFFFFFFF AND PUSH1 0xE0 SHL DUP2 MSTORE PUSH1 0x4 ADD PUSH2 0x267D SWAP3 SWAP2 SWAP1 PUSH2 0x4ED8 JUMP JUMPDEST PUSH1 0x0 PUSH1 0x40 MLOAD DUP1 DUP4 SUB DUP2 PUSH1 0x0 DUP8 DUP1 EXTCODESIZE ISZERO DUP1 ISZERO PUSH2 0x2697 JUMPI PUSH1 0x0 DUP1 REVERT JUMPDEST POP GAS CALL ISZERO DUP1 ISZERO PUSH2 0x26AB JUMPI RETURNDATASIZE PUSH1 0x0 DUP1 RETURNDATACOPY RETURNDATASIZE PUSH1 0x0 REVERT JUMPDEST POP POP POP POP POP POP POP POP JUMP JUMPDEST PUSH32 0x0 DUP2 JUMP JUMPDEST PUSH32 0xCECEF922AC6DED813804BED2D5FDF033DECF4A090FA3C9B9F529302A0AFF6455 DUP2 JUMP JUMPDEST PUSH1 0x4 SLOAD DUP2 JUMP JUMPDEST PUSH2 0x270B PUSH2 0x2C31 JUMP JUMPDEST DUP3 PUSH1 0x7 PUSH1 0x0 DUP5 DUP2 MSTORE PUSH1 0x20 ADD SWAP1 DUP2 MSTORE PUSH1 0x20 ADD PUSH1 0x0 KECCAK256 PUSH1 0x0 PUSH2 0x100 EXP DUP2 SLOAD DUP2 PUSH20 0xFFFFFFFFFFFFFFFFFFFFFFFFFFFFFFFFFFFFFFFF MUL NOT AND SWAP1 DUP4 PUSH20 0xFFFFFFFFFFFFFFFFFFFFFFFFFFFFFFFFFFFFFFFF AND MUL OR SWAP1 SSTORE POP PUSH1 0x0 DUP4 SWAP1 POP DUP1 PUSH20 0xFFFFFFFFFFFFFFFFFFFFFFFFFFFFFFFFFFFFFFFF AND PUSH4 0xB8FA3736 DUP5 DUP5 PUSH1 0x40 MLOAD DUP4 PUSH4 0xFFFFFFFF AND PUSH1 0xE0 SHL DUP2 MSTORE PUSH1 0x4 ADD PUSH2 0x279D SWAP3 SWAP2 SWAP1 PUSH2 0x490D JUMP JUMPDEST PUSH1 0x0 PUSH1 0x40 MLOAD DUP1 DUP4 SUB DUP2 PUSH1 0x0 DUP8 DUP1 EXTCODESIZE ISZERO DUP1 ISZERO PUSH2 0x27B7 JUMPI PUSH1 0x0 DUP1 REVERT JUMPDEST POP GAS CALL ISZERO DUP1 ISZERO PUSH2 0x27CB JUMPI RETURNDATASIZE PUSH1 0x0 DUP1 RETURNDATACOPY RETURNDATASIZE PUSH1 0x0 REVERT JUMPDEST POP POP POP POP POP POP POP POP JUMP JUMPDEST PUSH1 0x5 PUSH1 0x20 MSTORE DUP1 PUSH1 0x0 MSTORE PUSH1 0x40 PUSH1 0x0 KECCAK256 PUSH1 0x0 SWAP2 POP SWAP1 POP SLOAD DUP2 JUMP JUMPDEST PUSH2 0x27F5 PUSH2 0x2C31 JUMP JUMPDEST PUSH2 0x27FF DUP3 DUP3 PUSH2 0x226A JUMP JUMPDEST PUSH2 0x283E JUMPI PUSH1 0x40 MLOAD PUSH32 0x8C379A000000000000000000000000000000000000000000000000000000000 DUP2 MSTORE PUSH1 0x4 ADD PUSH2 0x2835 SWAP1 PUSH2 0x4A80 JUMP JUMPDEST PUSH1 0x40 MLOAD DUP1 SWAP2 SUB SWAP1 REVERT JUMPDEST PUSH2 0x2848 DUP3 DUP3 PUSH2 0x2E51 JUMP JUMPDEST PUSH1 0x5 PUSH1 0x0 DUP4 DUP2 MSTORE PUSH1 0x20 ADD SWAP1 DUP2 MSTORE PUSH1 0x20 ADD PUSH1 0x0 KECCAK256 PUSH1 0x0 DUP2 SLOAD DUP1 SWAP3 SWAP2 SWAP1 PUSH2 0x286C SWAP1 PUSH2 0x4AA0 JUMP JUMPDEST SWAP2 SWAP1 POP SSTORE POP POP POP JUMP JUMPDEST PUSH1 0x2 SLOAD DUP2 JUMP JUMPDEST PUSH1 0x0 DUP1 PUSH1 0x7 PUSH1 0x0 DUP5 DUP2 MSTORE PUSH1 0x20 ADD SWAP1 DUP2 MSTORE PUSH1 0x20 ADD PUSH1 0x0 KECCAK256 PUSH1 0x0 SWAP1 SLOAD SWAP1 PUSH2 0x100 EXP SWAP1 DIV PUSH20 0xFFFFFFFFFFFFFFFFFFFFFFFFFFFFFFFFFFFFFFFF AND SWAP1 POP PUSH1 0x0 DUP2 SWAP1 POP DUP1 PUSH20 0xFFFFFFFFFFFFFFFFFFFFFFFFFFFFFFFFFFFFFFFF AND PUSH4 0xDEB4B6D7 DUP6 PUSH1 0x40 MLOAD DUP3 PUSH4 0xFFFFFFFF AND PUSH1 0xE0 SHL DUP2 MSTORE PUSH1 0x4 ADD PUSH2 0x28F2 SWAP2 SWAP1 PUSH2 0x3638 JUMP JUMPDEST PUSH1 0x20 PUSH1 0x40 MLOAD DUP1 DUP4 SUB DUP2 DUP7 GAS STATICCALL ISZERO DUP1 ISZERO PUSH2 0x290F JUMPI RETURNDATASIZE PUSH1 0x0 DUP1 RETURNDATACOPY RETURNDATASIZE PUSH1 0x0 REVERT JUMPDEST POP POP POP POP PUSH1 0x40 MLOAD RETURNDATASIZE PUSH1 0x1F NOT PUSH1 0x1F DUP3 ADD AND DUP3 ADD DUP1 PUSH1 0x40 MSTORE POP DUP2 ADD SWAP1 PUSH2 0x2933 SWAP2 SWAP1 PUSH2 0x4F16 JUMP JUMPDEST SWAP3 POP POP POP SWAP2 SWAP1 POP JUMP JUMPDEST PUSH2 0x2944 PUSH2 0x2C31 JUMP JUMPDEST DUP5 PUSH1 0x7 PUSH1 0x0 DUP7 DUP2 MSTORE PUSH1 0x20 ADD SWAP1 DUP2 MSTORE PUSH1 0x20 ADD PUSH1 0x0 KECCAK256 PUSH1 0x0 PUSH2 0x100 EXP DUP2 SLOAD DUP2 PUSH20 0xFFFFFFFFFFFFFFFFFFFFFFFFFFFFFFFFFFFFFFFF MUL NOT AND SWAP1 DUP4 PUSH20 0xFFFFFFFFFFFFFFFFFFFFFFFFFFFFFFFFFFFFFFFF AND MUL OR SWAP1 SSTORE POP PUSH1 0x0 DUP6 SWAP1 POP DUP1 PUSH20 0xFFFFFFFFFFFFFFFFFFFFFFFFFFFFFFFFFFFFFFFF AND PUSH4 0xBBA8185A DUP7 DUP7 DUP7 DUP7 PUSH1 0x40 MLOAD DUP6 PUSH4 0xFFFFFFFF AND PUSH1 0xE0 SHL DUP2 MSTORE PUSH1 0x4 ADD PUSH2 0x29DA SWAP5 SWAP4 SWAP3 SWAP2 SWAP1 PUSH2 0x4F52 JUMP JUMPDEST PUSH1 0x0 PUSH1 0x40 MLOAD DUP1 DUP4 SUB DUP2 PUSH1 0x0 DUP8 DUP1 EXTCODESIZE ISZERO DUP1 ISZERO PUSH2 0x29F4 JUMPI PUSH1 0x0 DUP1 REVERT JUMPDEST POP GAS CALL ISZERO DUP1 ISZERO PUSH2 0x2A08 JUMPI RETURNDATASIZE PUSH1 0x0 DUP1 RETURNDATACOPY RETURNDATASIZE PUSH1 0x0 REVERT JUMPDEST POP POP POP POP POP POP POP POP POP POP JUMP JUMPDEST PUSH32 0xE6AD9A47FBDA1DC18DE1EB5EEB7D935E5E81B4748F3CFC61E233E64F88182060 DUP2 JUMP JUMPDEST PUSH2 0x2A40 PUSH2 0x3000 JUMP JUMPDEST PUSH1 0x0 PUSH1 0x7 PUSH1 0x0 DUP8 DUP2 MSTORE PUSH1 0x20 ADD SWAP1 DUP2 MSTORE PUSH1 0x20 ADD PUSH1 0x0 KECCAK256 PUSH1 0x0 SWAP1 SLOAD SWAP1 PUSH2 0x100 EXP SWAP1 DIV PUSH20 0xFFFFFFFFFFFFFFFFFFFFFFFFFFFFFFFFFFFFFFFF AND SWAP1 POP PUSH1 0x0 PUSH20 0xFFFFFFFFFFFFFFFFFFFFFFFFFFFFFFFFFFFFFFFF AND DUP2 PUSH20 0xFFFFFFFFFFFFFFFFFFFFFFFFFFFFFFFFFFFFFFFF AND SUB PUSH2 0x2AE7 JUMPI PUSH1 0x40 MLOAD PUSH32 0x8C379A000000000000000000000000000000000000000000000000000000000 DUP2 MSTORE PUSH1 0x4 ADD PUSH2 0x2ADE SWAP1 PUSH2 0x4EB8 JUMP JUMPDEST PUSH1 0x40 MLOAD DUP1 SWAP2 SUB SWAP1 REVERT JUMPDEST PUSH1 0x0 DUP2 SWAP1 POP DUP1 PUSH20 0xFFFFFFFFFFFFFFFFFFFFFFFFFFFFFFFFFFFFFFFF AND PUSH4 0xFE1F7665 DUP10 DUP10 DUP10 DUP10 DUP10 DUP10 PUSH1 0x40 MLOAD DUP8 PUSH4 0xFFFFFFFF AND PUSH1 0xE0 SHL DUP2 MSTORE PUSH1 0x4 ADD PUSH2 0x2B2F SWAP7 SWAP6 SWAP5 SWAP4 SWAP3 SWAP2 SWAP1 PUSH2 0x4F97 JUMP JUMPDEST PUSH1 0x0 PUSH1 0x40 MLOAD DUP1 DUP4 SUB DUP2 PUSH1 0x0 DUP8 DUP1 EXTCODESIZE ISZERO DUP1 ISZERO PUSH2 0x2B49 JUMPI PUSH1 0x0 DUP1 REVERT JUMPDEST POP GAS CALL ISZERO DUP1 ISZERO PUSH2 0x2B5D JUMPI RETURNDATASIZE PUSH1 0x0 DUP1 RETURNDATACOPY RETURNDATASIZE PUSH1 0x0 REVERT JUMPDEST POP POP POP POP POP POP POP POP POP POP POP POP JUMP JUMPDEST PUSH2 0x2B73 PUSH2 0x2C31 JUMP JUMPDEST PUSH2 0x2B7B PUSH2 0x307F JUMP JUMPDEST JUMP JUMPDEST PUSH1 0x0 PUSH32 0x1FFC9A700000000000000000000000000000000000000000000000000000000 PUSH28 0xFFFFFFFFFFFFFFFFFFFFFFFFFFFFFFFFFFFFFFFFFFFFFFFFFFFFFFFF NOT AND DUP3 PUSH28 0xFFFFFFFFFFFFFFFFFFFFFFFFFFFFFFFFFFFFFFFFFFFFFFFFFFFFFFFF NOT AND EQ SWAP1 POP SWAP2 SWAP1 POP JUMP JUMPDEST PUSH2 0x2BEF PUSH2 0x1F34 JUMP JUMPDEST ISZERO PUSH2 0x2C2F JUMPI PUSH1 0x40 MLOAD PUSH32 0x8C379A000000000000000000000000000000000000000000000000000000000 DUP2 MSTORE PUSH1 0x4 ADD PUSH2 0x2C26 SWAP1 PUSH2 0x5044 JUMP JUMPDEST PUSH1 0x40 MLOAD DUP1 SWAP2 SUB SWAP1 REVERT JUMPDEST JUMP JUMPDEST PUSH2 0x2C3E PUSH1 0x0 DUP1 SHL CALLER PUSH2 0x226A JUMP JUMPDEST PUSH2 0x2C7D JUMPI PUSH1 0x40 MLOAD PUSH32 0x8C379A000000000000000000000000000000000000000000000000000000000 DUP2 MSTORE PUSH1 0x4 ADD PUSH2 0x2C74 SWAP1 PUSH2 0x50B0 JUMP JUMPDEST PUSH1 0x40 MLOAD DUP1 SWAP2 SUB SWAP1 REVERT JUMPDEST JUMP JUMPDEST PUSH2 0x2C8C PUSH1 0x0 DUP1 SHL CALLER PUSH2 0x226A JUMP JUMPDEST DUP1 PUSH2 0x2CBD JUMPI POP PUSH2 0x2CBC PUSH32 0xE2B7FB3B832174769106DAEBCFD6D1970523240DDA11281102DB9363B83B0DC4 CALLER PUSH2 0x226A JUMP JUMPDEST JUMPDEST PUSH2 0x2CFC JUMPI PUSH1 0x40 MLOAD PUSH32 0x8C379A000000000000000000000000000000000000000000000000000000000 DUP2 MSTORE PUSH1 0x4 ADD PUSH2 0x2CF3 SWAP1 PUSH2 0x511C JUMP JUMPDEST PUSH1 0x40 MLOAD DUP1 SWAP2 SUB SWAP1 REVERT JUMPDEST JUMP JUMPDEST PUSH2 0x2D28 PUSH32 0xE2B7FB3B832174769106DAEBCFD6D1970523240DDA11281102DB9363B83B0DC4 CALLER PUSH2 0x226A JUMP JUMPDEST PUSH2 0x2D67 JUMPI PUSH1 0x40 MLOAD PUSH32 0x8C379A000000000000000000000000000000000000000000000000000000000 DUP2 MSTORE PUSH1 0x4 ADD PUSH2 0x2D5E SWAP1 PUSH2 0x5188 JUMP JUMPDEST PUSH1 0x40 MLOAD DUP1 SWAP2 SUB SWAP1 REVERT JUMPDEST JUMP JUMPDEST PUSH2 0x2D73 DUP3 DUP3 PUSH2 0x226A JUMP JUMPDEST PUSH2 0x2E45 JUMPI PUSH1 0x1 DUP1 PUSH1 0x0 DUP5 DUP2 MSTORE PUSH1 0x20 ADD SWAP1 DUP2 MSTORE PUSH1 0x20 ADD PUSH1 0x0 KECCAK256 PUSH1 0x0 ADD PUSH1 0x0 DUP4 PUSH20 0xFFFFFFFFFFFFFFFFFFFFFFFFFFFFFFFFFFFFFFFF AND PUSH20 0xFFFFFFFFFFFFFFFFFFFFFFFFFFFFFFFFFFFFFFFF AND DUP2 MSTORE PUSH1 0x20 ADD SWAP1 DUP2 MSTORE PUSH1 0x20 ADD PUSH1 0x0 KECCAK256 PUSH1 0x0 PUSH2 0x100 EXP DUP2 SLOAD DUP2 PUSH1 0xFF MUL NOT AND SWAP1 DUP4 ISZERO ISZERO MUL OR SWAP1 SSTORE POP PUSH2 0x2DEA PUSH2 0x2E49 JUMP JUMPDEST PUSH20 0xFFFFFFFFFFFFFFFFFFFFFFFFFFFFFFFFFFFFFFFF AND DUP2 PUSH20 0xFFFFFFFFFFFFFFFFFFFFFFFFFFFFFFFFFFFFFFFF AND DUP4 PUSH32 0x2F8788117E7EFF1D82E926EC794901D17C78024A50270940304540A733656F0D PUSH1 0x40 MLOAD PUSH1 0x40 MLOAD DUP1 SWAP2 SUB SWAP1 LOG4 JUMPDEST POP POP JUMP JUMPDEST PUSH1 0x0 CALLER SWAP1 POP SWAP1 JUMP JUMPDEST PUSH2 0x2E5B DUP3 DUP3 PUSH2 0x226A JUMP JUMPDEST ISZERO PUSH2 0x2F2F JUMPI PUSH1 0x0 PUSH1 0x1 PUSH1 0x0 DUP5 DUP2 MSTORE PUSH1 0x20 ADD SWAP1 DUP2 MSTORE PUSH1 0x20 ADD PUSH1 0x0 KECCAK256 PUSH1 0x0 ADD PUSH1 0x0 DUP4 PUSH20 0xFFFFFFFFFFFFFFFFFFFFFFFFFFFFFFFFFFFFFFFF AND PUSH20 0xFFFFFFFFFFFFFFFFFFFFFFFFFFFFFFFFFFFFFFFF AND DUP2 MSTORE PUSH1 0x20 ADD SWAP1 DUP2 MSTORE PUSH1 0x20 ADD PUSH1 0x0 KECCAK256 PUSH1 0x0 PUSH2 0x100 EXP DUP2 SLOAD DUP2 PUSH1 0xFF MUL NOT AND SWAP1 DUP4 ISZERO ISZERO MUL OR SWAP1 SSTORE POP PUSH2 0x2ED4 PUSH2 0x2E49 JUMP JUMPDEST PUSH20 0xFFFFFFFFFFFFFFFFFFFFFFFFFFFFFFFFFFFFFFFF AND DUP2 PUSH20 0xFFFFFFFFFFFFFFFFFFFFFFFFFFFFFFFFFFFFFFFF AND DUP4 PUSH32 0xF6391F5C32D9C69D2A47EA670B442974B53935D1EDC7FD64EB21E047A839171B PUSH1 0x40 MLOAD PUSH1 0x40 MLOAD DUP1 SWAP2 SUB SWAP1 LOG4 JUMPDEST POP POP JUMP JUMPDEST PUSH2 0x2F3B PUSH2 0x2BE7 JUMP JUMPDEST PUSH1 0x1 PUSH1 0x0 DUP1 PUSH2 0x100 EXP DUP2 SLOAD DUP2 PUSH1 0xFF MUL NOT AND SWAP1 DUP4 ISZERO ISZERO MUL OR SWAP1 SSTORE POP PUSH32 0x62E78CEA01BEE320CD4E420270B5EA74000D11B0C9F74754EBDBFC544B05A258 PUSH2 0x2F7E PUSH2 0x2E49 JUMP JUMPDEST PUSH1 0x40 MLOAD PUSH2 0x2F8B SWAP2 SWAP1 PUSH2 0x3D1A JUMP JUMPDEST PUSH1 0x40 MLOAD DUP1 SWAP2 SUB SWAP1 LOG1 JUMP JUMPDEST PUSH2 0x2FBF PUSH32 0xCECEF922AC6DED813804BED2D5FDF033DECF4A090FA3C9B9F529302A0AFF6455 CALLER PUSH2 0x226A JUMP JUMPDEST PUSH2 0x2FFE JUMPI PUSH1 0x40 MLOAD PUSH32 0x8C379A000000000000000000000000000000000000000000000000000000000 DUP2 MSTORE PUSH1 0x4 ADD PUSH2 0x2FF5 SWAP1 PUSH2 0x521A JUMP JUMPDEST PUSH1 0x40 MLOAD DUP1 SWAP2 SUB SWAP1 REVERT JUMPDEST JUMP JUMPDEST PUSH2 0x300D PUSH1 0x0 DUP1 SHL CALLER PUSH2 0x226A JUMP JUMPDEST DUP1 PUSH2 0x303E JUMPI POP PUSH2 0x303D PUSH32 0xE6AD9A47FBDA1DC18DE1EB5EEB7D935E5E81B4748F3CFC61E233E64F88182060 CALLER PUSH2 0x226A JUMP JUMPDEST JUMPDEST PUSH2 0x307D JUMPI PUSH1 0x40 MLOAD PUSH32 0x8C379A000000000000000000000000000000000000000000000000000000000 DUP2 MSTORE PUSH1 0x4 ADD PUSH2 0x3074 SWAP1 PUSH2 0x52AC JUMP JUMPDEST PUSH1 0x40 MLOAD DUP1 SWAP2 SUB SWAP1 REVERT JUMPDEST JUMP JUMPDEST PUSH2 0x3087 PUSH2 0x30E1 JUMP JUMPDEST PUSH1 0x0 DUP1 PUSH1 0x0 PUSH2 0x100 EXP DUP2 SLOAD DUP2 PUSH1 0xFF MUL NOT AND SWAP1 DUP4 ISZERO ISZERO MUL OR SWAP1 SSTORE POP PUSH32 0x5DB9EE0A495BF2E6FF9C91A7834C1BA4FDD244A5E8AA4E537BD38AEAE4B073AA PUSH2 0x30CA PUSH2 0x2E49 JUMP JUMPDEST PUSH1 0x40 MLOAD PUSH2 0x30D7 SWAP2 SWAP1 PUSH2 0x3D1A JUMP JUMPDEST PUSH1 0x40 MLOAD DUP1 SWAP2 SUB SWAP1 LOG1 JUMP JUMPDEST PUSH2 0x30E9 PUSH2 0x1F34 JUMP JUMPDEST PUSH2 0x3128 JUMPI PUSH1 0x40 MLOAD PUSH32 0x8C379A000000000000000000000000000000000000000000000000000000000 DUP2 MSTORE PUSH1 0x4 ADD PUSH2 0x311F SWAP1 PUSH2 0x5318 JUMP JUMPDEST PUSH1 0x40 MLOAD DUP1 SWAP2 SUB SWAP1 REVERT JUMPDEST JUMP JUMPDEST DUP3 DUP1 SLOAD DUP3 DUP3 SSTORE SWAP1 PUSH1 0x0 MSTORE PUSH1 0x20 PUSH1 0x0 KECCAK256 SWAP1 DUP2 ADD SWAP3 DUP3 ISZERO PUSH2 0x31A3 JUMPI SWAP2 PUSH1 0x20 MUL DUP3 ADD JUMPDEST DUP3 DUP2 GT ISZERO PUSH2 0x31A2 JUMPI DUP3 MLOAD DUP3 PUSH1 0x0 PUSH2 0x100 EXP DUP2 SLOAD DUP2 PUSH20 0xFFFFFFFFFFFFFFFFFFFFFFFFFFFFFFFFFFFFFFFF MUL NOT AND SWAP1 DUP4 PUSH20 0xFFFFFFFFFFFFFFFFFFFFFFFFFFFFFFFFFFFFFFFF AND MUL OR SWAP1 SSTORE POP SWAP2 PUSH1 0x20 ADD SWAP2 SWAP1 PUSH1 0x1 ADD SWAP1 PUSH2 0x314A JUMP JUMPDEST JUMPDEST POP SWAP1 POP PUSH2 0x31B0 SWAP2 SWAP1 PUSH2 0x31FB JUMP JUMPDEST POP SWAP1 JUMP JUMPDEST PUSH1 0x40 MLOAD DUP1 PUSH1 0xA0 ADD PUSH1 0x40 MSTORE DUP1 PUSH1 0x0 DUP1 NOT AND DUP2 MSTORE PUSH1 0x20 ADD PUSH1 0x0 DUP1 NOT AND DUP2 MSTORE PUSH1 0x20 ADD PUSH1 0x60 DUP2 MSTORE PUSH1 0x20 ADD PUSH1 0x0 PUSH1 0x4 DUP2 GT ISZERO PUSH2 0x31EE JUMPI PUSH2 0x31ED PUSH2 0x3A75 JUMP JUMPDEST JUMPDEST DUP2 MSTORE PUSH1 0x20 ADD PUSH1 0x0 DUP2 MSTORE POP SWAP1 JUMP JUMPDEST JUMPDEST DUP1 DUP3 GT ISZERO PUSH2 0x3214 JUMPI PUSH1 0x0 DUP2 PUSH1 0x0 SWAP1 SSTORE POP PUSH1 0x1 ADD PUSH2 0x31FC JUMP JUMPDEST POP SWAP1 JUMP JUMPDEST PUSH1 0x0 DUP1 REVERT JUMPDEST PUSH1 0x0 DUP1 REVERT JUMPDEST PUSH1 0x0 PUSH32 0xFFFFFFFF00000000000000000000000000000000000000000000000000000000 DUP3 AND SWAP1 POP SWAP2 SWAP1 POP JUMP JUMPDEST PUSH2 0x3257 DUP2 PUSH2 0x3222 JUMP JUMPDEST DUP2 EQ PUSH2 0x3262 JUMPI PUSH1 0x0 DUP1 REVERT JUMPDEST POP JUMP JUMPDEST PUSH1 0x0 DUP2 CALLDATALOAD SWAP1 POP PUSH2 0x3274 DUP2 PUSH2 0x324E JUMP JUMPDEST SWAP3 SWAP2 POP POP JUMP JUMPDEST PUSH1 0x0 PUSH1 0x20 DUP3 DUP5 SUB SLT ISZERO PUSH2 0x3290 JUMPI PUSH2 0x328F PUSH2 0x3218 JUMP JUMPDEST JUMPDEST PUSH1 0x0 PUSH2 0x329E DUP5 DUP3 DUP6 ADD PUSH2 0x3265 JUMP JUMPDEST SWAP2 POP POP SWAP3 SWAP2 POP POP JUMP JUMPDEST PUSH1 0x0 DUP2 ISZERO ISZERO SWAP1 POP SWAP2 SWAP1 POP JUMP JUMPDEST PUSH2 0x32BC DUP2 PUSH2 0x32A7 JUMP JUMPDEST DUP3 MSTORE POP POP JUMP JUMPDEST PUSH1 0x0 PUSH1 0x20 DUP3 ADD SWAP1 POP PUSH2 0x32D7 PUSH1 0x0 DUP4 ADD DUP5 PUSH2 0x32B3 JUMP JUMPDEST SWAP3 SWAP2 POP POP JUMP JUMPDEST PUSH1 0x0 PUSH1 0xFF DUP3 AND SWAP1 POP SWAP2 SWAP1 POP JUMP JUMPDEST PUSH2 0x32F3 DUP2 PUSH2 0x32DD JUMP JUMPDEST DUP2 EQ PUSH2 0x32FE JUMPI PUSH1 0x0 DUP1 REVERT JUMPDEST POP JUMP JUMPDEST PUSH1 0x0 DUP2 CALLDATALOAD SWAP1 POP PUSH2 0x3310 DUP2 PUSH2 0x32EA JUMP JUMPDEST SWAP3 SWAP2 POP POP JUMP JUMPDEST PUSH1 0x0 DUP2 SWAP1 POP SWAP2 SWAP1 POP JUMP JUMPDEST PUSH2 0x3329 DUP2 PUSH2 0x3316 JUMP JUMPDEST DUP2 EQ PUSH2 0x3334 JUMPI PUSH1 0x0 DUP1 REVERT JUMPDEST POP JUMP JUMPDEST PUSH1 0x0 DUP2 CALLDATALOAD SWAP1 POP PUSH2 0x3346 DUP2 PUSH2 0x3320 JUMP JUMPDEST SWAP3 SWAP2 POP POP JUMP JUMPDEST PUSH1 0x0 DUP1 REVERT JUMPDEST PUSH1 0x0 DUP1 REVERT JUMPDEST PUSH1 0x0 DUP1 REVERT JUMPDEST PUSH1 0x0 DUP1 DUP4 PUSH1 0x1F DUP5 ADD SLT PUSH2 0x3371 JUMPI PUSH2 0x3370 PUSH2 0x334C JUMP JUMPDEST JUMPDEST DUP3 CALLDATALOAD SWAP1 POP PUSH8 0xFFFFFFFFFFFFFFFF DUP2 GT ISZERO PUSH2 0x338E JUMPI PUSH2 0x338D PUSH2 0x3351 JUMP JUMPDEST JUMPDEST PUSH1 0x20 DUP4 ADD SWAP2 POP DUP4 PUSH1 0x1 DUP3 MUL DUP4 ADD GT ISZERO PUSH2 0x33AA JUMPI PUSH2 0x33A9 PUSH2 0x3356 JUMP JUMPDEST JUMPDEST SWAP3 POP SWAP3 SWAP1 POP JUMP JUMPDEST PUSH1 0x0 DUP1 PUSH1 0x0 DUP1 PUSH1 0x60 DUP6 DUP8 SUB SLT ISZERO PUSH2 0x33CB JUMPI PUSH2 0x33CA PUSH2 0x3218 JUMP JUMPDEST JUMPDEST PUSH1 0x0 PUSH2 0x33D9 DUP8 DUP3 DUP9 ADD PUSH2 0x3301 JUMP JUMPDEST SWAP5 POP POP PUSH1 0x20 PUSH2 0x33EA DUP8 DUP3 DUP9 ADD PUSH2 0x3337 JUMP JUMPDEST SWAP4 POP POP PUSH1 0x40 DUP6 ADD CALLDATALOAD PUSH8 0xFFFFFFFFFFFFFFFF DUP2 GT ISZERO PUSH2 0x340B JUMPI PUSH2 0x340A PUSH2 0x321D JUMP JUMPDEST JUMPDEST PUSH2 0x3417 DUP8 DUP3 DUP9 ADD PUSH2 0x335B JUMP JUMPDEST SWAP3 POP SWAP3 POP POP SWAP3 SWAP6 SWAP2 SWAP5 POP SWAP3 POP JUMP JUMPDEST PUSH1 0x0 PUSH20 0xFFFFFFFFFFFFFFFFFFFFFFFFFFFFFFFFFFFFFFFF DUP3 AND SWAP1 POP SWAP2 SWAP1 POP JUMP JUMPDEST PUSH1 0x0 PUSH2 0x3450 DUP3 PUSH2 0x3425 JUMP JUMPDEST SWAP1 POP SWAP2 SWAP1 POP JUMP JUMPDEST PUSH2 0x3460 DUP2 PUSH2 0x3445 JUMP JUMPDEST DUP2 EQ PUSH2 0x346B JUMPI PUSH1 0x0 DUP1 REVERT JUMPDEST POP JUMP JUMPDEST PUSH1 0x0 DUP2 CALLDATALOAD SWAP1 POP PUSH2 0x347D DUP2 PUSH2 0x3457 JUMP JUMPDEST SWAP3 SWAP2 POP POP JUMP JUMPDEST PUSH2 0x348C DUP2 PUSH2 0x32A7 JUMP JUMPDEST DUP2 EQ PUSH2 0x3497 JUMPI PUSH1 0x0 DUP1 REVERT JUMPDEST POP JUMP JUMPDEST PUSH1 0x0 DUP2 CALLDATALOAD SWAP1 POP PUSH2 0x34A9 DUP2 PUSH2 0x3483 JUMP JUMPDEST SWAP3 SWAP2 POP POP JUMP JUMPDEST PUSH1 0x0 DUP1 PUSH1 0x0 PUSH1 0x60 DUP5 DUP7 SUB SLT ISZERO PUSH2 0x34C8 JUMPI PUSH2 0x34C7 PUSH2 0x3218 JUMP JUMPDEST JUMPDEST PUSH1 0x0 PUSH2 0x34D6 DUP7 DUP3 DUP8 ADD PUSH2 0x346E JUMP JUMPDEST SWAP4 POP POP PUSH1 0x20 PUSH2 0x34E7 DUP7 DUP3 DUP8 ADD PUSH2 0x346E JUMP JUMPDEST SWAP3 POP POP PUSH1 0x40 PUSH2 0x34F8 DUP7 DUP3 DUP8 ADD PUSH2 0x349A JUMP JUMPDEST SWAP2 POP POP SWAP3 POP SWAP3 POP SWAP3 JUMP JUMPDEST PUSH1 0x0 PUSH8 0xFFFFFFFFFFFFFFFF DUP3 AND SWAP1 POP SWAP2 SWAP1 POP JUMP JUMPDEST PUSH2 0x351F DUP2 PUSH2 0x3502 JUMP JUMPDEST DUP2 EQ PUSH2 0x352A JUMPI PUSH1 0x0 DUP1 REVERT JUMPDEST POP JUMP JUMPDEST PUSH1 0x0 DUP2 CALLDATALOAD SWAP1 POP PUSH2 0x353C DUP2 PUSH2 0x3516 JUMP JUMPDEST SWAP3 SWAP2 POP POP JUMP JUMPDEST PUSH1 0x0 DUP1 PUSH1 0x0 PUSH1 0x60 DUP5 DUP7 SUB SLT ISZERO PUSH2 0x355B JUMPI PUSH2 0x355A PUSH2 0x3218 JUMP JUMPDEST JUMPDEST PUSH1 0x0 PUSH2 0x3569 DUP7 DUP3 DUP8 ADD PUSH2 0x3301 JUMP JUMPDEST SWAP4 POP POP PUSH1 0x20 PUSH2 0x357A DUP7 DUP3 DUP8 ADD PUSH2 0x352D JUMP JUMPDEST SWAP3 POP POP PUSH1 0x40 PUSH2 0x358B DUP7 DUP3 DUP8 ADD PUSH2 0x3337 JUMP JUMPDEST SWAP2 POP POP SWAP3 POP SWAP3 POP SWAP3 JUMP JUMPDEST PUSH1 0x0 DUP1 PUSH1 0x0 DUP1 PUSH1 0x80 DUP6 DUP8 SUB SLT ISZERO PUSH2 0x35AF JUMPI PUSH2 0x35AE PUSH2 0x3218 JUMP JUMPDEST JUMPDEST PUSH1 0x0 PUSH2 0x35BD DUP8 DUP3 DUP9 ADD PUSH2 0x3301 JUMP JUMPDEST SWAP5 POP POP PUSH1 0x20 PUSH2 0x35CE DUP8 DUP3 DUP9 ADD PUSH2 0x352D JUMP JUMPDEST SWAP4 POP POP PUSH1 0x40 PUSH2 0x35DF DUP8 DUP3 DUP9 ADD PUSH2 0x3337 JUMP JUMPDEST SWAP3 POP POP PUSH1 0x60 PUSH2 0x35F0 DUP8 DUP3 DUP9 ADD PUSH2 0x3337 JUMP JUMPDEST SWAP2 POP POP SWAP3 SWAP6 SWAP2 SWAP5 POP SWAP3 POP JUMP JUMPDEST PUSH1 0x0 PUSH1 0x20 DUP3 DUP5 SUB SLT ISZERO PUSH2 0x3612 JUMPI PUSH2 0x3611 PUSH2 0x3218 JUMP JUMPDEST JUMPDEST PUSH1 0x0 PUSH2 0x3620 DUP5 DUP3 DUP6 ADD PUSH2 0x3337 JUMP JUMPDEST SWAP2 POP POP SWAP3 SWAP2 POP POP JUMP JUMPDEST PUSH2 0x3632 DUP2 PUSH2 0x3316 JUMP JUMPDEST DUP3 MSTORE POP POP JUMP JUMPDEST PUSH1 0x0 PUSH1 0x20 DUP3 ADD SWAP1 POP PUSH2 0x364D PUSH1 0x0 DUP4 ADD DUP5 PUSH2 0x3629 JUMP JUMPDEST SWAP3 SWAP2 POP POP JUMP JUMPDEST PUSH1 0x0 DUP1 PUSH1 0x40 DUP4 DUP6 SUB SLT ISZERO PUSH2 0x366A JUMPI PUSH2 0x3669 PUSH2 0x3218 JUMP JUMPDEST JUMPDEST PUSH1 0x0 PUSH2 0x3678 DUP6 DUP3 DUP7 ADD PUSH2 0x3337 JUMP JUMPDEST SWAP3 POP POP PUSH1 0x20 PUSH2 0x3689 DUP6 DUP3 DUP7 ADD PUSH2 0x346E JUMP JUMPDEST SWAP2 POP POP SWAP3 POP SWAP3 SWAP1 POP JUMP JUMPDEST PUSH1 0x0 DUP1 PUSH1 0x40 DUP4 DUP6 SUB SLT ISZERO PUSH2 0x36AA JUMPI PUSH2 0x36A9 PUSH2 0x3218 JUMP JUMPDEST JUMPDEST PUSH1 0x0 PUSH2 0x36B8 DUP6 DUP3 DUP7 ADD PUSH2 0x352D JUMP JUMPDEST SWAP3 POP POP PUSH1 0x20 PUSH2 0x36C9 DUP6 DUP3 DUP7 ADD PUSH2 0x3301 JUMP JUMPDEST SWAP2 POP POP SWAP3 POP SWAP3 SWAP1 POP JUMP JUMPDEST PUSH1 0x0 DUP2 MLOAD SWAP1 POP SWAP2 SWAP1 POP JUMP JUMPDEST PUSH1 0x0 DUP3 DUP3 MSTORE PUSH1 0x20 DUP3 ADD SWAP1 POP SWAP3 SWAP2 POP POP JUMP JUMPDEST PUSH1 0x0 JUMPDEST DUP4 DUP2 LT ISZERO PUSH2 0x370D JUMPI DUP1 DUP3 ADD MLOAD DUP2 DUP5 ADD MSTORE PUSH1 0x20 DUP2 ADD SWAP1 POP PUSH2 0x36F2 JUMP JUMPDEST PUSH1 0x0 DUP5 DUP5 ADD MSTORE POP POP POP POP JUMP JUMPDEST PUSH1 0x0 PUSH1 0x1F NOT PUSH1 0x1F DUP4 ADD AND SWAP1 POP SWAP2 SWAP1 POP JUMP JUMPDEST PUSH1 0x0 PUSH2 0x3735 DUP3 PUSH2 0x36D3 JUMP JUMPDEST PUSH2 0x373F DUP2 DUP6 PUSH2 0x36DE JUMP JUMPDEST SWAP4 POP PUSH2 0x374F DUP2 DUP6 PUSH1 0x20 DUP7 ADD PUSH2 0x36EF JUMP JUMPDEST PUSH2 0x3758 DUP2 PUSH2 0x3719 JUMP JUMPDEST DUP5 ADD SWAP2 POP POP SWAP3 SWAP2 POP POP JUMP JUMPDEST PUSH1 0x0 PUSH1 0x20 DUP3 ADD SWAP1 POP DUP2 DUP2 SUB PUSH1 0x0 DUP4 ADD MSTORE PUSH2 0x377D DUP2 DUP5 PUSH2 0x372A JUMP JUMPDEST SWAP1 POP SWAP3 SWAP2 POP POP JUMP JUMPDEST PUSH1 0x0 DUP1 PUSH1 0x0 DUP1 PUSH1 0x0 PUSH1 0x80 DUP7 DUP9 SUB SLT ISZERO PUSH2 0x37A1 JUMPI PUSH2 0x37A0 PUSH2 0x3218 JUMP JUMPDEST JUMPDEST PUSH1 0x0 PUSH2 0x37AF DUP9 DUP3 DUP10 ADD PUSH2 0x3301 JUMP JUMPDEST SWAP6 POP POP PUSH1 0x20 PUSH2 0x37C0 DUP9 DUP3 DUP10 ADD PUSH2 0x352D JUMP JUMPDEST SWAP5 POP POP PUSH1 0x40 DUP7 ADD CALLDATALOAD PUSH8 0xFFFFFFFFFFFFFFFF DUP2 GT ISZERO PUSH2 0x37E1 JUMPI PUSH2 0x37E0 PUSH2 0x321D JUMP JUMPDEST JUMPDEST PUSH2 0x37ED DUP9 DUP3 DUP10 ADD PUSH2 0x335B JUMP JUMPDEST SWAP4 POP SWAP4 POP POP PUSH1 0x60 PUSH2 0x3800 DUP9 DUP3 DUP10 ADD PUSH2 0x3337 JUMP JUMPDEST SWAP2 POP POP SWAP3 SWAP6 POP SWAP3 SWAP6 SWAP1 SWAP4 POP JUMP JUMPDEST PUSH1 0x0 DUP1 DUP4 PUSH1 0x1F DUP5 ADD SLT PUSH2 0x3823 JUMPI PUSH2 0x3822 PUSH2 0x334C JUMP JUMPDEST JUMPDEST DUP3 CALLDATALOAD SWAP1 POP PUSH8 0xFFFFFFFFFFFFFFFF DUP2 GT ISZERO PUSH2 0x3840 JUMPI PUSH2 0x383F PUSH2 0x3351 JUMP JUMPDEST JUMPDEST PUSH1 0x20 DUP4 ADD SWAP2 POP DUP4 PUSH1 0x20 DUP3 MUL DUP4 ADD GT ISZERO PUSH2 0x385C JUMPI PUSH2 0x385B PUSH2 0x3356 JUMP JUMPDEST JUMPDEST SWAP3 POP SWAP3 SWAP1 POP JUMP JUMPDEST PUSH1 0x0 DUP1 DUP4 PUSH1 0x1F DUP5 ADD SLT PUSH2 0x3879 JUMPI PUSH2 0x3878 PUSH2 0x334C JUMP JUMPDEST JUMPDEST DUP3 CALLDATALOAD SWAP1 POP PUSH8 0xFFFFFFFFFFFFFFFF DUP2 GT ISZERO PUSH2 0x3896 JUMPI PUSH2 0x3895 PUSH2 0x3351 JUMP JUMPDEST JUMPDEST PUSH1 0x20 DUP4 ADD SWAP2 POP DUP4 PUSH1 0x20 DUP3 MUL DUP4 ADD GT ISZERO PUSH2 0x38B2 JUMPI PUSH2 0x38B1 PUSH2 0x3356 JUMP JUMPDEST JUMPDEST SWAP3 POP SWAP3 SWAP1 POP JUMP JUMPDEST PUSH1 0x0 DUP1 PUSH1 0x0 DUP1 PUSH1 0x40 DUP6 DUP8 SUB SLT ISZERO PUSH2 0x38D3 JUMPI PUSH2 0x38D2 PUSH2 0x3218 JUMP JUMPDEST JUMPDEST PUSH1 0x0 DUP6 ADD CALLDATALOAD PUSH8 0xFFFFFFFFFFFFFFFF DUP2 GT ISZERO PUSH2 0x38F1 JUMPI PUSH2 0x38F0 PUSH2 0x321D JUMP JUMPDEST JUMPDEST PUSH2 0x38FD DUP8 DUP3 DUP9 ADD PUSH2 0x380D JUMP JUMPDEST SWAP5 POP SWAP5 POP POP PUSH1 0x20 DUP6 ADD CALLDATALOAD PUSH8 0xFFFFFFFFFFFFFFFF DUP2 GT ISZERO PUSH2 0x3920 JUMPI PUSH2 0x391F PUSH2 0x321D JUMP JUMPDEST JUMPDEST PUSH2 0x392C DUP8 DUP3 DUP9 ADD PUSH2 0x3863 JUMP JUMPDEST SWAP3 POP SWAP3 POP POP SWAP3 SWAP6 SWAP2 SWAP5 POP SWAP3 POP JUMP JUMPDEST PUSH1 0x0 PUSH1 0x20 DUP3 DUP5 SUB SLT ISZERO PUSH2 0x3950 JUMPI PUSH2 0x394F PUSH2 0x3218 JUMP JUMPDEST JUMPDEST PUSH1 0x0 PUSH2 0x395E DUP5 DUP3 DUP6 ADD PUSH2 0x3301 JUMP JUMPDEST SWAP2 POP POP SWAP3 SWAP2 POP POP JUMP JUMPDEST PUSH2 0x3970 DUP2 PUSH2 0x3502 JUMP JUMPDEST DUP3 MSTORE POP POP JUMP JUMPDEST PUSH1 0x0 PUSH1 0x20 DUP3 ADD SWAP1 POP PUSH2 0x398B PUSH1 0x0 DUP4 ADD DUP5 PUSH2 0x3967 JUMP JUMPDEST SWAP3 SWAP2 POP POP JUMP JUMPDEST PUSH1 0x0 DUP2 SWAP1 POP SWAP2 SWAP1 POP JUMP JUMPDEST PUSH2 0x39A4 DUP2 PUSH2 0x3991 JUMP JUMPDEST DUP2 EQ PUSH2 0x39AF JUMPI PUSH1 0x0 DUP1 REVERT JUMPDEST POP JUMP JUMPDEST PUSH1 0x0 DUP2 CALLDATALOAD SWAP1 POP PUSH2 0x39C1 DUP2 PUSH2 0x399B JUMP JUMPDEST SWAP3 SWAP2 POP POP JUMP JUMPDEST PUSH1 0x0 PUSH1 0x20 DUP3 DUP5 SUB SLT ISZERO PUSH2 0x39DD JUMPI PUSH2 0x39DC PUSH2 0x3218 JUMP JUMPDEST JUMPDEST PUSH1 0x0 PUSH2 0x39EB DUP5 DUP3 DUP6 ADD PUSH2 0x39B2 JUMP JUMPDEST SWAP2 POP POP SWAP3 SWAP2 POP POP JUMP JUMPDEST PUSH1 0x0 PUSH9 0xFFFFFFFFFFFFFFFFFF DUP3 AND SWAP1 POP SWAP2 SWAP1 POP JUMP JUMPDEST PUSH2 0x3A12 DUP2 PUSH2 0x39F4 JUMP JUMPDEST DUP2 EQ PUSH2 0x3A1D JUMPI PUSH1 0x0 DUP1 REVERT JUMPDEST POP JUMP JUMPDEST PUSH1 0x0 DUP2 CALLDATALOAD SWAP1 POP PUSH2 0x3A2F DUP2 PUSH2 0x3A09 JUMP JUMPDEST SWAP3 SWAP2 POP POP JUMP JUMPDEST PUSH1 0x0 DUP1 PUSH1 0x40 DUP4 DUP6 SUB SLT ISZERO PUSH2 0x3A4C JUMPI PUSH2 0x3A4B PUSH2 0x3218 JUMP JUMPDEST JUMPDEST PUSH1 0x0 PUSH2 0x3A5A DUP6 DUP3 DUP7 ADD PUSH2 0x3A20 JUMP JUMPDEST SWAP3 POP POP PUSH1 0x20 PUSH2 0x3A6B DUP6 DUP3 DUP7 ADD PUSH2 0x3337 JUMP JUMPDEST SWAP2 POP POP SWAP3 POP SWAP3 SWAP1 POP JUMP JUMPDEST PUSH32 0x4E487B7100000000000000000000000000000000000000000000000000000000 PUSH1 0x0 MSTORE PUSH1 0x21 PUSH1 0x4 MSTORE PUSH1 0x24 PUSH1 0x0 REVERT JUMPDEST PUSH1 0x5 DUP2 LT PUSH2 0x3AB5 JUMPI PUSH2 0x3AB4 PUSH2 0x3A75 JUMP JUMPDEST JUMPDEST POP JUMP JUMPDEST PUSH1 0x0 DUP2 SWAP1 POP PUSH2 0x3AC6 DUP3 PUSH2 0x3AA4 JUMP JUMPDEST SWAP2 SWAP1 POP JUMP JUMPDEST PUSH1 0x0 PUSH2 0x3AD6 DUP3 PUSH2 0x3AB8 JUMP JUMPDEST SWAP1 POP SWAP2 SWAP1 POP JUMP JUMPDEST PUSH2 0x3AE6 DUP2 PUSH2 0x3ACB JUMP JUMPDEST DUP3 MSTORE POP POP JUMP JUMPDEST PUSH2 0x3AF5 DUP2 PUSH2 0x3991 JUMP JUMPDEST DUP3 MSTORE POP POP JUMP JUMPDEST PUSH1 0x0 PUSH1 0x80 DUP3 ADD SWAP1 POP PUSH2 0x3B10 PUSH1 0x0 DUP4 ADD DUP8 PUSH2 0x3629 JUMP JUMPDEST PUSH2 0x3B1D PUSH1 0x20 DUP4 ADD DUP7 PUSH2 0x3629 JUMP JUMPDEST PUSH2 0x3B2A PUSH1 0x40 DUP4 ADD DUP6 PUSH2 0x3ADD JUMP JUMPDEST PUSH2 0x3B37 PUSH1 0x60 DUP4 ADD DUP5 PUSH2 0x3AEC JUMP JUMPDEST SWAP6 SWAP5 POP POP POP POP POP JUMP JUMPDEST PUSH1 0x0 PUSH1 0x20 DUP3 DUP5 SUB SLT ISZERO PUSH2 0x3B56 JUMPI PUSH2 0x3B55 PUSH2 0x3218 JUMP JUMPDEST JUMPDEST PUSH1 0x0 PUSH2 0x3B64 DUP5 DUP3 DUP6 ADD PUSH2 0x346E JUMP JUMPDEST SWAP2 POP POP SWAP3 SWAP2 POP POP JUMP JUMPDEST PUSH1 0x0 DUP1 PUSH1 0x0 DUP1 PUSH1 0x80 DUP6 DUP8 SUB SLT ISZERO PUSH2 0x3B87 JUMPI PUSH2 0x3B86 PUSH2 0x3218 JUMP JUMPDEST JUMPDEST PUSH1 0x0 PUSH2 0x3B95 DUP8 DUP3 DUP9 ADD PUSH2 0x346E JUMP JUMPDEST SWAP5 POP POP PUSH1 0x20 PUSH2 0x3BA6 DUP8 DUP3 DUP9 ADD PUSH2 0x346E JUMP JUMPDEST SWAP4 POP POP PUSH1 0x40 PUSH2 0x3BB7 DUP8 DUP3 DUP9 ADD PUSH2 0x346E JUMP JUMPDEST SWAP3 POP POP PUSH1 0x60 PUSH2 0x3BC8 DUP8 DUP3 DUP9 ADD PUSH2 0x39B2 JUMP JUMPDEST SWAP2 POP POP SWAP3 SWAP6 SWAP2 SWAP5 POP SWAP3 POP JUMP JUMPDEST PUSH1 0x0 DUP1 PUSH1 0x0 PUSH1 0x60 DUP5 DUP7 SUB SLT ISZERO PUSH2 0x3BED JUMPI PUSH2 0x3BEC PUSH2 0x3218 JUMP JUMPDEST JUMPDEST PUSH1 0x0 PUSH2 0x3BFB DUP7 DUP3 DUP8 ADD PUSH2 0x3A20 JUMP JUMPDEST SWAP4 POP POP PUSH1 0x20 PUSH2 0x3C0C DUP7 DUP3 DUP8 ADD PUSH2 0x3337 JUMP JUMPDEST SWAP3 POP POP PUSH1 0x40 PUSH2 0x3C1D DUP7 DUP3 DUP8 ADD PUSH2 0x346E JUMP JUMPDEST SWAP2 POP POP SWAP3 POP SWAP3 POP SWAP3 JUMP JUMPDEST PUSH1 0x0 PUSH2 0x3C32 DUP3 PUSH2 0x3425 JUMP JUMPDEST SWAP1 POP SWAP2 SWAP1 POP JUMP JUMPDEST PUSH2 0x3C42 DUP2 PUSH2 0x3C27 JUMP JUMPDEST DUP2 EQ PUSH2 0x3C4D JUMPI PUSH1 0x0 DUP1 REVERT JUMPDEST POP JUMP JUMPDEST PUSH1 0x0 DUP2 CALLDATALOAD SWAP1 POP PUSH2 0x3C5F DUP2 PUSH2 0x3C39 JUMP JUMPDEST SWAP3 SWAP2 POP POP JUMP JUMPDEST PUSH1 0x0 DUP1 PUSH1 0x0 PUSH1 0x60 DUP5 DUP7 SUB SLT ISZERO PUSH2 0x3C7E JUMPI PUSH2 0x3C7D PUSH2 0x3218 JUMP JUMPDEST JUMPDEST PUSH1 0x0 PUSH2 0x3C8C DUP7 DUP3 DUP8 ADD PUSH2 0x346E JUMP JUMPDEST SWAP4 POP POP PUSH1 0x20 PUSH2 0x3C9D DUP7 DUP3 DUP8 ADD PUSH2 0x3C50 JUMP JUMPDEST SWAP3 POP POP PUSH1 0x40 PUSH2 0x3CAE DUP7 DUP3 DUP8 ADD PUSH2 0x39B2 JUMP JUMPDEST SWAP2 POP POP SWAP3 POP SWAP3 POP SWAP3 JUMP JUMPDEST PUSH1 0x0 DUP1 PUSH1 0x0 PUSH1 0x60 DUP5 DUP7 SUB SLT ISZERO PUSH2 0x3CD1 JUMPI PUSH2 0x3CD0 PUSH2 0x3218 JUMP JUMPDEST JUMPDEST PUSH1 0x0 PUSH2 0x3CDF DUP7 DUP3 DUP8 ADD PUSH2 0x3337 JUMP JUMPDEST SWAP4 POP POP PUSH1 0x20 PUSH2 0x3CF0 DUP7 DUP3 DUP8 ADD PUSH2 0x3C50 JUMP JUMPDEST SWAP3 POP POP PUSH1 0x40 PUSH2 0x3D01 DUP7 DUP3 DUP8 ADD PUSH2 0x39B2 JUMP JUMPDEST SWAP2 POP POP SWAP3 POP SWAP3 POP SWAP3 JUMP JUMPDEST PUSH2 0x3D14 DUP2 PUSH2 0x3445 JUMP JUMPDEST DUP3 MSTORE POP POP JUMP JUMPDEST PUSH1 0x0 PUSH1 0x20 DUP3 ADD SWAP1 POP PUSH2 0x3D2F PUSH1 0x0 DUP4 ADD DUP5 PUSH2 0x3D0B JUMP JUMPDEST SWAP3 SWAP2 POP POP JUMP JUMPDEST PUSH1 0x0 DUP1 PUSH1 0x40 DUP4 DUP6 SUB SLT ISZERO PUSH2 0x3D4C JUMPI PUSH2 0x3D4B PUSH2 0x3218 JUMP JUMPDEST JUMPDEST PUSH1 0x0 PUSH2 0x3D5A DUP6 DUP3 DUP7 ADD PUSH2 0x346E JUMP JUMPDEST SWAP3 POP POP PUSH1 0x20 PUSH2 0x3D6B DUP6 DUP3 DUP7 ADD PUSH2 0x346E JUMP JUMPDEST SWAP2 POP POP SWAP3 POP SWAP3 SWAP1 POP JUMP JUMPDEST PUSH1 0x0 PUSH1 0x20 DUP3 ADD SWAP1 POP PUSH2 0x3D8A PUSH1 0x0 DUP4 ADD DUP5 PUSH2 0x3AEC JUMP JUMPDEST SWAP3 SWAP2 POP POP JUMP JUMPDEST PUSH2 0x3D99 DUP2 PUSH2 0x3316 JUMP JUMPDEST DUP3 MSTORE POP POP JUMP JUMPDEST PUSH1 0x0 DUP2 MLOAD SWAP1 POP SWAP2 SWAP1 POP JUMP JUMPDEST PUSH1 0x0 DUP3 DUP3 MSTORE PUSH1 0x20 DUP3 ADD SWAP1 POP SWAP3 SWAP2 POP POP JUMP JUMPDEST PUSH1 0x0 DUP2 SWAP1 POP PUSH1 0x20 DUP3 ADD SWAP1 POP SWAP2 SWAP1 POP JUMP JUMPDEST PUSH2 0x3DD4 DUP2 PUSH2 0x3445 JUMP JUMPDEST DUP3 MSTORE POP POP JUMP JUMPDEST PUSH1 0x0 PUSH2 0x3DE6 DUP4 DUP4 PUSH2 0x3DCB JUMP JUMPDEST PUSH1 0x20 DUP4 ADD SWAP1 POP SWAP3 SWAP2 POP POP JUMP JUMPDEST PUSH1 0x0 PUSH1 0x20 DUP3 ADD SWAP1 POP SWAP2 SWAP1 POP JUMP JUMPDEST PUSH1 0x0 PUSH2 0x3E0A DUP3 PUSH2 0x3D9F JUMP JUMPDEST PUSH2 0x3E14 DUP2 DUP6 PUSH2 0x3DAA JUMP JUMPDEST SWAP4 POP PUSH2 0x3E1F DUP4 PUSH2 0x3DBB JUMP JUMPDEST DUP1 PUSH1 0x0 JUMPDEST DUP4 DUP2 LT ISZERO PUSH2 0x3E50 JUMPI DUP2 MLOAD PUSH2 0x3E37 DUP9 DUP3 PUSH2 0x3DDA JUMP JUMPDEST SWAP8 POP PUSH2 0x3E42 DUP4 PUSH2 0x3DF2 JUMP JUMPDEST SWAP3 POP POP PUSH1 0x1 DUP2 ADD SWAP1 POP PUSH2 0x3E23 JUMP JUMPDEST POP DUP6 SWAP4 POP POP POP POP SWAP3 SWAP2 POP POP JUMP JUMPDEST PUSH2 0x3E66 DUP2 PUSH2 0x3ACB JUMP JUMPDEST DUP3 MSTORE POP POP JUMP JUMPDEST PUSH2 0x3E75 DUP2 PUSH2 0x3991 JUMP JUMPDEST DUP3 MSTORE POP POP JUMP JUMPDEST PUSH1 0x0 PUSH1 0xA0 DUP4 ADD PUSH1 0x0 DUP4 ADD MLOAD PUSH2 0x3E93 PUSH1 0x0 DUP7 ADD DUP3 PUSH2 0x3D90 JUMP JUMPDEST POP PUSH1 0x20 DUP4 ADD MLOAD PUSH2 0x3EA6 PUSH1 0x20 DUP7 ADD DUP3 PUSH2 0x3D90 JUMP JUMPDEST POP PUSH1 0x40 DUP4 ADD MLOAD DUP5 DUP3 SUB PUSH1 0x40 DUP7 ADD MSTORE PUSH2 0x3EBE DUP3 DUP3 PUSH2 0x3DFF JUMP JUMPDEST SWAP2 POP POP PUSH1 0x60 DUP4 ADD MLOAD PUSH2 0x3ED3 PUSH1 0x60 DUP7 ADD DUP3 PUSH2 0x3E5D JUMP JUMPDEST POP PUSH1 0x80 DUP4 ADD MLOAD PUSH2 0x3EE6 PUSH1 0x80 DUP7 ADD DUP3 PUSH2 0x3E6C JUMP JUMPDEST POP DUP1 SWAP2 POP POP SWAP3 SWAP2 POP POP JUMP JUMPDEST PUSH1 0x0 PUSH1 0x20 DUP3 ADD SWAP1 POP DUP2 DUP2 SUB PUSH1 0x0 DUP4 ADD MSTORE PUSH2 0x3F0B DUP2 DUP5 PUSH2 0x3E7B JUMP JUMPDEST SWAP1 POP SWAP3 SWAP2 POP POP JUMP JUMPDEST PUSH1 0x0 DUP1 PUSH1 0x40 DUP4 DUP6 SUB SLT ISZERO PUSH2 0x3F2A JUMPI PUSH2 0x3F29 PUSH2 0x3218 JUMP JUMPDEST JUMPDEST PUSH1 0x0 PUSH2 0x3F38 DUP6 DUP3 DUP7 ADD PUSH2 0x3337 JUMP JUMPDEST SWAP3 POP POP PUSH1 0x20 PUSH2 0x3F49 DUP6 DUP3 DUP7 ADD PUSH2 0x39B2 JUMP JUMPDEST SWAP2 POP POP SWAP3 POP SWAP3 SWAP1 POP JUMP JUMPDEST PUSH2 0x3F5C DUP2 PUSH2 0x32DD JUMP JUMPDEST DUP3 MSTORE POP POP JUMP JUMPDEST PUSH1 0x0 PUSH1 0x20 DUP3 ADD SWAP1 POP PUSH2 0x3F77 PUSH1 0x0 DUP4 ADD DUP5 PUSH2 0x3F53 JUMP JUMPDEST SWAP3 SWAP2 POP POP JUMP JUMPDEST PUSH1 0x0 DUP1 PUSH1 0x0 PUSH1 0x60 DUP5 DUP7 SUB SLT ISZERO PUSH2 0x3F96 JUMPI PUSH2 0x3F95 PUSH2 0x3218 JUMP JUMPDEST JUMPDEST PUSH1 0x0 PUSH2 0x3FA4 DUP7 DUP3 DUP8 ADD PUSH2 0x346E JUMP JUMPDEST SWAP4 POP POP PUSH1 0x20 PUSH2 0x3FB5 DUP7 DUP3 DUP8 ADD PUSH2 0x3337 JUMP JUMPDEST SWAP3 POP POP PUSH1 0x40 PUSH2 0x3FC6 DUP7 DUP3 DUP8 ADD PUSH2 0x346E JUMP JUMPDEST SWAP2 POP POP SWAP3 POP SWAP3 POP SWAP3 JUMP JUMPDEST PUSH1 0x0 DUP1 PUSH1 0x0 DUP1 PUSH1 0x0 PUSH1 0xA0 DUP7 DUP9 SUB SLT ISZERO PUSH2 0x3FEC JUMPI PUSH2 0x3FEB PUSH2 0x3218 JUMP JUMPDEST JUMPDEST PUSH1 0x0 PUSH2 0x3FFA DUP9 DUP3 DUP10 ADD PUSH2 0x346E JUMP JUMPDEST SWAP6 POP POP PUSH1 0x20 PUSH2 0x400B DUP9 DUP3 DUP10 ADD PUSH2 0x3337 JUMP JUMPDEST SWAP5 POP POP PUSH1 0x40 PUSH2 0x401C DUP9 DUP3 DUP10 ADD PUSH2 0x346E JUMP JUMPDEST SWAP4 POP POP PUSH1 0x60 PUSH2 0x402D DUP9 DUP3 DUP10 ADD PUSH2 0x3265 JUMP JUMPDEST SWAP3 POP POP PUSH1 0x80 PUSH2 0x403E DUP9 DUP3 DUP10 ADD PUSH2 0x3265 JUMP JUMPDEST SWAP2 POP POP SWAP3 SWAP6 POP SWAP3 SWAP6 SWAP1 SWAP4 POP JUMP JUMPDEST PUSH1 0x0 DUP1 PUSH1 0x0 DUP1 PUSH1 0x0 DUP1 PUSH1 0xC0 DUP8 DUP10 SUB SLT ISZERO PUSH2 0x4068 JUMPI PUSH2 0x4067 PUSH2 0x3218 JUMP JUMPDEST JUMPDEST PUSH1 0x0 PUSH2 0x4076 DUP10 DUP3 DUP11 ADD PUSH2 0x346E JUMP JUMPDEST SWAP7 POP POP PUSH1 0x20 PUSH2 0x4087 DUP10 DUP3 DUP11 ADD PUSH2 0x3337 JUMP JUMPDEST SWAP6 POP POP PUSH1 0x40 PUSH2 0x4098 DUP10 DUP3 DUP11 ADD PUSH2 0x349A JUMP JUMPDEST SWAP5 POP POP PUSH1 0x60 PUSH2 0x40A9 DUP10 DUP3 DUP11 ADD PUSH2 0x39B2 JUMP JUMPDEST SWAP4 POP POP PUSH1 0x80 PUSH2 0x40BA DUP10 DUP3 DUP11 ADD PUSH2 0x349A JUMP JUMPDEST SWAP3 POP POP PUSH1 0xA0 PUSH2 0x40CB DUP10 DUP3 DUP11 ADD PUSH2 0x39B2 JUMP JUMPDEST SWAP2 POP POP SWAP3 SWAP6 POP SWAP3 SWAP6 POP SWAP3 SWAP6 JUMP JUMPDEST PUSH1 0x0 DUP3 DUP3 MSTORE PUSH1 0x20 DUP3 ADD SWAP1 POP SWAP3 SWAP2 POP POP JUMP JUMPDEST PUSH32 0x7265736F757263654944206E6F74206D617070656420746F2068616E646C6572 PUSH1 0x0 DUP3 ADD MSTORE POP JUMP JUMPDEST PUSH1 0x0 PUSH2 0x411F PUSH1 0x20 DUP4 PUSH2 0x40D8 JUMP JUMPDEST SWAP2 POP PUSH2 0x412A DUP3 PUSH2 0x40E9 JUMP JUMPDEST PUSH1 0x20 DUP3 ADD SWAP1 POP SWAP2 SWAP1 POP JUMP JUMPDEST PUSH1 0x0 PUSH1 0x20 DUP3 ADD SWAP1 POP DUP2 DUP2 SUB PUSH1 0x0 DUP4 ADD MSTORE PUSH2 0x414E DUP2 PUSH2 0x4112 JUMP JUMPDEST SWAP1 POP SWAP2 SWAP1 POP JUMP JUMPDEST PUSH32 0x4E487B7100000000000000000000000000000000000000000000000000000000 PUSH1 0x0 MSTORE PUSH1 0x11 PUSH1 0x4 MSTORE PUSH1 0x24 PUSH1 0x0 REVERT JUMPDEST PUSH1 0x0 PUSH2 0x418F DUP3 PUSH2 0x3502 JUMP JUMPDEST SWAP2 POP PUSH8 0xFFFFFFFFFFFFFFFF DUP3 SUB PUSH2 0x41A9 JUMPI PUSH2 0x41A8 PUSH2 0x4155 JUMP JUMPDEST JUMPDEST PUSH1 0x1 DUP3 ADD SWAP1 POP SWAP2 SWAP1 POP JUMP JUMPDEST PUSH1 0x0 DUP3 SWAP1 POP SWAP3 SWAP2 POP POP JUMP JUMPDEST PUSH32 0x4E487B7100000000000000000000000000000000000000000000000000000000 PUSH1 0x0 MSTORE PUSH1 0x41 PUSH1 0x4 MSTORE PUSH1 0x24 PUSH1 0x0 REVERT JUMPDEST PUSH32 0x4E487B7100000000000000000000000000000000000000000000000000000000 PUSH1 0x0 MSTORE PUSH1 0x22 PUSH1 0x4 MSTORE PUSH1 0x24 PUSH1 0x0 REVERT JUMPDEST PUSH1 0x0 PUSH1 0x2 DUP3 DIV SWAP1 POP PUSH1 0x1 DUP3 AND DUP1 PUSH2 0x4235 JUMPI PUSH1 0x7F DUP3 AND SWAP2 POP JUMPDEST PUSH1 0x20 DUP3 LT DUP2 SUB PUSH2 0x4248 JUMPI PUSH2 0x4247 PUSH2 0x41EE JUMP JUMPDEST JUMPDEST POP SWAP2 SWAP1 POP JUMP JUMPDEST PUSH1 0x0 DUP2 SWAP1 POP DUP2 PUSH1 0x0 MSTORE PUSH1 0x20 PUSH1 0x0 KECCAK256 SWAP1 POP SWAP2 SWAP1 POP JUMP JUMPDEST PUSH1 0x0 PUSH1 0x20 PUSH1 0x1F DUP4 ADD DIV SWAP1 POP SWAP2 SWAP1 POP JUMP JUMPDEST PUSH1 0x0 DUP3 DUP3 SHL SWAP1 POP SWAP3 SWAP2 POP POP JUMP JUMPDEST PUSH1 0x0 PUSH1 0x8 DUP4 MUL PUSH2 0x42B0 PUSH32 0xFFFFFFFFFFFFFFFFFFFFFFFFFFFFFFFFFFFFFFFFFFFFFFFFFFFFFFFFFFFFFFFF DUP3 PUSH2 0x4273 JUMP JUMPDEST PUSH2 0x42BA DUP7 DUP4 PUSH2 0x4273 JUMP JUMPDEST SWAP6 POP DUP1 NOT DUP5 AND SWAP4 POP DUP1 DUP7 AND DUP5 OR SWAP3 POP POP POP SWAP4 SWAP3 POP POP POP JUMP JUMPDEST PUSH1 0x0 DUP2 SWAP1 POP SWAP2 SWAP1 POP JUMP JUMPDEST PUSH1 0x0 PUSH2 0x42F7 PUSH2 0x42F2 PUSH2 0x42ED DUP5 PUSH2 0x3991 JUMP JUMPDEST PUSH2 0x42D2 JUMP JUMPDEST PUSH2 0x3991 JUMP JUMPDEST SWAP1 POP SWAP2 SWAP1 POP JUMP JUMPDEST PUSH1 0x0 DUP2 SWAP1 POP SWAP2 SWAP1 POP JUMP JUMPDEST PUSH2 0x4311 DUP4 PUSH2 0x42DC JUMP JUMPDEST PUSH2 0x4325 PUSH2 0x431D DUP3 PUSH2 0x42FE JUMP JUMPDEST DUP5 DUP5 SLOAD PUSH2 0x4280 JUMP JUMPDEST DUP3 SSTORE POP POP POP POP JUMP JUMPDEST PUSH1 0x0 SWAP1 JUMP JUMPDEST PUSH2 0x433A PUSH2 0x432D JUMP JUMPDEST PUSH2 0x4345 DUP2 DUP5 DUP5 PUSH2 0x4308 JUMP JUMPDEST POP POP POP JUMP JUMPDEST JUMPDEST DUP2 DUP2 LT ISZERO PUSH2 0x4369 JUMPI PUSH2 0x435E PUSH1 0x0 DUP3 PUSH2 0x4332 JUMP JUMPDEST PUSH1 0x1 DUP2 ADD SWAP1 POP PUSH2 0x434B JUMP JUMPDEST POP POP JUMP JUMPDEST PUSH1 0x1F DUP3 GT ISZERO PUSH2 0x43AE JUMPI PUSH2 0x437F DUP2 PUSH2 0x424E JUMP JUMPDEST PUSH2 0x4388 DUP5 PUSH2 0x4263 JUMP JUMPDEST DUP2 ADD PUSH1 0x20 DUP6 LT ISZERO PUSH2 0x4397 JUMPI DUP2 SWAP1 POP JUMPDEST PUSH2 0x43AB PUSH2 0x43A3 DUP6 PUSH2 0x4263 JUMP JUMPDEST DUP4 ADD DUP3 PUSH2 0x434A JUMP JUMPDEST POP POP JUMPDEST POP POP POP JUMP JUMPDEST PUSH1 0x0 DUP3 DUP3 SHR SWAP1 POP SWAP3 SWAP2 POP POP JUMP JUMPDEST PUSH1 0x0 PUSH2 0x43D1 PUSH1 0x0 NOT DUP5 PUSH1 0x8 MUL PUSH2 0x43B3 JUMP JUMPDEST NOT DUP1 DUP4 AND SWAP2 POP POP SWAP3 SWAP2 POP POP JUMP JUMPDEST PUSH1 0x0 PUSH2 0x43EA DUP4 DUP4 PUSH2 0x43C0 JUMP JUMPDEST SWAP2 POP DUP3 PUSH1 0x2 MUL DUP3 OR SWAP1 POP SWAP3 SWAP2 POP POP JUMP JUMPDEST PUSH2 0x4404 DUP4 DUP4 PUSH2 0x41B4 JUMP JUMPDEST PUSH8 0xFFFFFFFFFFFFFFFF DUP2 GT ISZERO PUSH2 0x441D JUMPI PUSH2 0x441C PUSH2 0x41BF JUMP JUMPDEST JUMPDEST PUSH2 0x4427 DUP3 SLOAD PUSH2 0x421D JUMP JUMPDEST PUSH2 0x4432 DUP3 DUP3 DUP6 PUSH2 0x436D JUMP JUMPDEST PUSH1 0x0 PUSH1 0x1F DUP4 GT PUSH1 0x1 DUP2 EQ PUSH2 0x4461 JUMPI PUSH1 0x0 DUP5 ISZERO PUSH2 0x444F JUMPI DUP3 DUP8 ADD CALLDATALOAD SWAP1 POP JUMPDEST PUSH2 0x4459 DUP6 DUP3 PUSH2 0x43DE JUMP JUMPDEST DUP7 SSTORE POP PUSH2 0x44C1 JUMP JUMPDEST PUSH1 0x1F NOT DUP5 AND PUSH2 0x446F DUP7 PUSH2 0x424E JUMP JUMPDEST PUSH1 0x0 JUMPDEST DUP3 DUP2 LT ISZERO PUSH2 0x4497 JUMPI DUP5 DUP10 ADD CALLDATALOAD DUP3 SSTORE PUSH1 0x1 DUP3 ADD SWAP2 POP PUSH1 0x20 DUP6 ADD SWAP5 POP PUSH1 0x20 DUP2 ADD SWAP1 POP PUSH2 0x4472 JUMP JUMPDEST DUP7 DUP4 LT ISZERO PUSH2 0x44B4 JUMPI DUP5 DUP10 ADD CALLDATALOAD PUSH2 0x44B0 PUSH1 0x1F DUP10 AND DUP3 PUSH2 0x43C0 JUMP JUMPDEST DUP4 SSTORE POP JUMPDEST PUSH1 0x1 PUSH1 0x2 DUP9 MUL ADD DUP9 SSTORE POP POP POP JUMPDEST POP POP POP POP POP POP POP JUMP JUMPDEST DUP3 DUP2 DUP4 CALLDATACOPY PUSH1 0x0 DUP4 DUP4 ADD MSTORE POP POP POP JUMP JUMPDEST PUSH1 0x0 PUSH2 0x44E5 DUP4 DUP6 PUSH2 0x36DE JUMP JUMPDEST SWAP4 POP PUSH2 0x44F2 DUP4 DUP6 DUP5 PUSH2 0x44CA JUMP JUMPDEST PUSH2 0x44FB DUP4 PUSH2 0x3719 JUMP JUMPDEST DUP5 ADD SWAP1 POP SWAP4 SWAP3 POP POP POP JUMP JUMPDEST PUSH1 0x0 PUSH1 0xA0 DUP3 ADD SWAP1 POP PUSH2 0x451B PUSH1 0x0 DUP4 ADD DUP10 PUSH2 0x3629 JUMP JUMPDEST PUSH2 0x4528 PUSH1 0x20 DUP4 ADD DUP9 PUSH2 0x3F53 JUMP JUMPDEST PUSH2 0x4535 PUSH1 0x40 DUP4 ADD DUP8 PUSH2 0x3967 JUMP JUMPDEST PUSH2 0x4542 PUSH1 0x60 DUP4 ADD DUP7 PUSH2 0x3D0B JUMP JUMPDEST DUP2 DUP2 SUB PUSH1 0x80 DUP4 ADD MSTORE PUSH2 0x4555 DUP2 DUP5 DUP7 PUSH2 0x44D9 JUMP JUMPDEST SWAP1 POP SWAP8 SWAP7 POP POP POP POP POP POP POP JUMP JUMPDEST PUSH1 0x0 PUSH1 0x40 DUP3 ADD SWAP1 POP PUSH2 0x4577 PUSH1 0x0 DUP4 ADD DUP6 PUSH2 0x3D0B JUMP JUMPDEST PUSH2 0x4584 PUSH1 0x20 DUP4 ADD DUP5 PUSH2 0x32B3 JUMP JUMPDEST SWAP4 SWAP3 POP POP POP JUMP JUMPDEST PUSH32 0x50726F706F73616C20616C72656164792063616E63656C6C6564000000000000 PUSH1 0x0 DUP3 ADD MSTORE POP JUMP JUMPDEST PUSH1 0x0 PUSH2 0x45C1 PUSH1 0x1A DUP4 PUSH2 0x40D8 JUMP JUMPDEST SWAP2 POP PUSH2 0x45CC DUP3 PUSH2 0x458B JUMP JUMPDEST PUSH1 0x20 DUP3 ADD SWAP1 POP SWAP2 SWAP1 POP JUMP JUMPDEST PUSH1 0x0 PUSH1 0x20 DUP3 ADD SWAP1 POP DUP2 DUP2 SUB PUSH1 0x0 DUP4 ADD MSTORE PUSH2 0x45F0 DUP2 PUSH2 0x45B4 JUMP JUMPDEST SWAP1 POP SWAP2 SWAP1 POP JUMP JUMPDEST PUSH1 0x0 PUSH2 0x4602 DUP3 PUSH2 0x3991 JUMP JUMPDEST SWAP2 POP PUSH2 0x460D DUP4 PUSH2 0x3991 JUMP JUMPDEST SWAP3 POP DUP3 DUP3 SUB SWAP1 POP DUP2 DUP2 GT ISZERO PUSH2 0x4625 JUMPI PUSH2 0x4624 PUSH2 0x4155 JUMP JUMPDEST JUMPDEST SWAP3 SWAP2 POP POP JUMP JUMPDEST PUSH32 0x50726F706F73616C206E6F7420617420657870697279207468726573686F6C64 PUSH1 0x0 DUP3 ADD MSTORE POP JUMP JUMPDEST PUSH1 0x0 PUSH2 0x4661 PUSH1 0x20 DUP4 PUSH2 0x40D8 JUMP JUMPDEST SWAP2 POP PUSH2 0x466C DUP3 PUSH2 0x462B JUMP JUMPDEST PUSH1 0x20 DUP3 ADD SWAP1 POP SWAP2 SWAP1 POP JUMP JUMPDEST PUSH1 0x0 PUSH1 0x20 DUP3 ADD SWAP1 POP DUP2 DUP2 SUB PUSH1 0x0 DUP4 ADD MSTORE PUSH2 0x4690 DUP2 PUSH2 0x4654 JUMP JUMPDEST SWAP1 POP SWAP2 SWAP1 POP JUMP JUMPDEST PUSH1 0x0 PUSH1 0x40 DUP3 ADD SWAP1 POP PUSH2 0x46AC PUSH1 0x0 DUP4 ADD DUP6 PUSH2 0x3629 JUMP JUMPDEST PUSH2 0x46B9 PUSH1 0x20 DUP4 ADD DUP5 PUSH2 0x3629 JUMP JUMPDEST SWAP4 SWAP3 POP POP POP JUMP JUMPDEST PUSH32 0x6E6F2068616E646C657220666F72207265736F75726365494400000000000000 PUSH1 0x0 DUP3 ADD MSTORE POP JUMP JUMPDEST PUSH1 0x0 PUSH2 0x46F6 PUSH1 0x19 DUP4 PUSH2 0x40D8 JUMP JUMPDEST SWAP2 POP PUSH2 0x4701 DUP3 PUSH2 0x46C0 JUMP JUMPDEST PUSH1 0x20 DUP3 ADD SWAP1 POP SWAP2 SWAP1 POP JUMP JUMPDEST PUSH1 0x0 PUSH1 0x20 DUP3 ADD SWAP1 POP DUP2 DUP2 SUB PUSH1 0x0 DUP4 ADD MSTORE PUSH2 0x4725 DUP2 PUSH2 0x46E9 JUMP JUMPDEST SWAP1 POP SWAP2 SWAP1 POP JUMP JUMPDEST PUSH32 0x70726F706F73616C20616C7265616479207061737365642F6578656375746564 PUSH1 0x0 DUP3 ADD MSTORE PUSH32 0x2F63616E63656C6C656400000000000000000000000000000000000000000000 PUSH1 0x20 DUP3 ADD MSTORE POP JUMP JUMPDEST PUSH1 0x0 PUSH2 0x4788 PUSH1 0x2A DUP4 PUSH2 0x40D8 JUMP JUMPDEST SWAP2 POP PUSH2 0x4793 DUP3 PUSH2 0x472C JUMP JUMPDEST PUSH1 0x40 DUP3 ADD SWAP1 POP SWAP2 SWAP1 POP JUMP JUMPDEST PUSH1 0x0 PUSH1 0x20 DUP3 ADD SWAP1 POP DUP2 DUP2 SUB PUSH1 0x0 DUP4 ADD MSTORE PUSH2 0x47B7 DUP2 PUSH2 0x477B JUMP JUMPDEST SWAP1 POP SWAP2 SWAP1 POP JUMP JUMPDEST PUSH32 0x72656C6179657220616C726561647920766F7465640000000000000000000000 PUSH1 0x0 DUP3 ADD MSTORE POP JUMP JUMPDEST PUSH1 0x0 PUSH2 0x47F4 PUSH1 0x15 DUP4 PUSH2 0x40D8 JUMP JUMPDEST SWAP2 POP PUSH2 0x47FF DUP3 PUSH2 0x47BE JUMP JUMPDEST PUSH1 0x20 DUP3 ADD SWAP1 POP SWAP2 SWAP1 POP JUMP JUMPDEST PUSH1 0x0 PUSH1 0x20 DUP3 ADD SWAP1 POP DUP2 DUP2 SUB PUSH1 0x0 DUP4 ADD MSTORE PUSH2 0x4823 DUP2 PUSH2 0x47E7 JUMP JUMPDEST SWAP1 POP SWAP2 SWAP1 POP JUMP JUMPDEST PUSH1 0x0 PUSH2 0x4835 DUP3 PUSH2 0x3991 JUMP JUMPDEST SWAP2 POP PUSH32 0xFFFFFFFFFFFFFFFFFFFFFFFFFFFFFFFFFFFFFFFFFFFFFFFFFFFFFFFFFFFFFFFF DUP3 SUB PUSH2 0x4867 JUMPI PUSH2 0x4866 PUSH2 0x4155 JUMP JUMPDEST JUMPDEST PUSH1 0x1 DUP3 ADD SWAP1 POP SWAP2 SWAP1 POP JUMP JUMPDEST PUSH32 0x4E487B7100000000000000000000000000000000000000000000000000000000 PUSH1 0x0 MSTORE PUSH1 0x32 PUSH1 0x4 MSTORE PUSH1 0x24 PUSH1 0x0 REVERT JUMPDEST PUSH32 0x6461746168617368206D69736D61746368000000000000000000000000000000 PUSH1 0x0 DUP3 ADD MSTORE POP JUMP JUMPDEST PUSH1 0x0 PUSH2 0x48D7 PUSH1 0x11 DUP4 PUSH2 0x40D8 JUMP JUMPDEST SWAP2 POP PUSH2 0x48E2 DUP3 PUSH2 0x48A1 JUMP JUMPDEST PUSH1 0x20 DUP3 ADD SWAP1 POP SWAP2 SWAP1 POP JUMP JUMPDEST PUSH1 0x0 PUSH1 0x20 DUP3 ADD SWAP1 POP DUP2 DUP2 SUB PUSH1 0x0 DUP4 ADD MSTORE PUSH2 0x4906 DUP2 PUSH2 0x48CA JUMP JUMPDEST SWAP1 POP SWAP2 SWAP1 POP JUMP JUMPDEST PUSH1 0x0 PUSH1 0x40 DUP3 ADD SWAP1 POP PUSH2 0x4922 PUSH1 0x0 DUP4 ADD DUP6 PUSH2 0x3629 JUMP JUMPDEST PUSH2 0x492F PUSH1 0x20 DUP4 ADD DUP5 PUSH2 0x3D0B JUMP JUMPDEST SWAP4 SWAP3 POP POP POP JUMP JUMPDEST PUSH32 0x6164647220616C7265616479206861732074686520726F6C6521000000000000 PUSH1 0x0 DUP3 ADD MSTORE POP JUMP JUMPDEST PUSH1 0x0 PUSH2 0x496C PUSH1 0x1A DUP4 PUSH2 0x40D8 JUMP JUMPDEST SWAP2 POP PUSH2 0x4977 DUP3 PUSH2 0x4936 JUMP JUMPDEST PUSH1 0x20 DUP3 ADD SWAP1 POP SWAP2 SWAP1 POP JUMP JUMPDEST PUSH1 0x0 PUSH1 0x20 DUP3 ADD SWAP1 POP DUP2 DUP2 SUB PUSH1 0x0 DUP4 ADD MSTORE PUSH2 0x499B DUP2 PUSH2 0x495F JUMP JUMPDEST SWAP1 POP SWAP2 SWAP1 POP JUMP JUMPDEST PUSH32 0x416363657373436F6E74726F6C3A2063616E206F6E6C792072656E6F756E6365 PUSH1 0x0 DUP3 ADD MSTORE PUSH32 0x20726F6C657320666F722073656C660000000000000000000000000000000000 PUSH1 0x20 DUP3 ADD MSTORE POP JUMP JUMPDEST PUSH1 0x0 PUSH2 0x49FE PUSH1 0x2F DUP4 PUSH2 0x40D8 JUMP JUMPDEST SWAP2 POP PUSH2 0x4A09 DUP3 PUSH2 0x49A2 JUMP JUMPDEST PUSH1 0x40 DUP3 ADD SWAP1 POP SWAP2 SWAP1 POP JUMP JUMPDEST PUSH1 0x0 PUSH1 0x20 DUP3 ADD SWAP1 POP DUP2 DUP2 SUB PUSH1 0x0 DUP4 ADD MSTORE PUSH2 0x4A2D DUP2 PUSH2 0x49F1 JUMP JUMPDEST SWAP1 POP SWAP2 SWAP1 POP JUMP JUMPDEST PUSH32 0x6164647220646F65736E277420686176652074686520726F6C65210000000000 PUSH1 0x0 DUP3 ADD MSTORE POP JUMP JUMPDEST PUSH1 0x0 PUSH2 0x4A6A PUSH1 0x1B DUP4 PUSH2 0x40D8 JUMP JUMPDEST SWAP2 POP PUSH2 0x4A75 DUP3 PUSH2 0x4A34 JUMP JUMPDEST PUSH1 0x20 DUP3 ADD SWAP1 POP SWAP2 SWAP1 POP JUMP JUMPDEST PUSH1 0x0 PUSH1 0x20 DUP3 ADD SWAP1 POP DUP2 DUP2 SUB PUSH1 0x0 DUP4 ADD MSTORE PUSH2 0x4A99 DUP2 PUSH2 0x4A5D JUMP JUMPDEST SWAP1 POP SWAP2 SWAP1 POP JUMP JUMPDEST PUSH1 0x0 PUSH2 0x4AAB DUP3 PUSH2 0x3991 JUMP JUMPDEST SWAP2 POP PUSH1 0x0 DUP3 SUB PUSH2 0x4ABE JUMPI PUSH2 0x4ABD PUSH2 0x4155 JUMP JUMPDEST JUMPDEST PUSH1 0x1 DUP3 SUB SWAP1 POP SWAP2 SWAP1 POP JUMP JUMPDEST PUSH1 0x0 DUP2 PUSH1 0x60 SHL SWAP1 POP SWAP2 SWAP1 POP JUMP JUMPDEST PUSH1 0x0 PUSH2 0x4AE1 DUP3 PUSH2 0x4AC9 JUMP JUMPDEST SWAP1 POP SWAP2 SWAP1 POP JUMP JUMPDEST PUSH1 0x0 PUSH2 0x4AF3 DUP3 PUSH2 0x4AD6 JUMP JUMPDEST SWAP1 POP SWAP2 SWAP1 POP JUMP JUMPDEST PUSH2 0x4B0B PUSH2 0x4B06 DUP3 PUSH2 0x3445 JUMP JUMPDEST PUSH2 0x4AE8 JUMP JUMPDEST DUP3 MSTORE POP POP JUMP JUMPDEST PUSH1 0x0 DUP2 SWAP1 POP SWAP3 SWAP2 POP POP JUMP JUMPDEST PUSH1 0x0 PUSH2 0x4B28 DUP4 DUP6 PUSH2 0x4B11 JUMP JUMPDEST SWAP4 POP PUSH2 0x4B35 DUP4 DUP6 DUP5 PUSH2 0x44CA JUMP JUMPDEST DUP3 DUP5 ADD SWAP1 POP SWAP4 SWAP3 POP POP POP JUMP JUMPDEST PUSH1 0x0 PUSH2 0x4B4D DUP3 DUP7 PUSH2 0x4AFA JUMP JUMPDEST PUSH1 0x14 DUP3 ADD SWAP2 POP PUSH2 0x4B5E DUP3 DUP5 DUP7 PUSH2 0x4B1C JUMP JUMPDEST SWAP2 POP DUP2 SWAP1 POP SWAP5 SWAP4 POP POP POP POP JUMP JUMPDEST PUSH32 0x50726F706F73616C206973206E6F742077697468696E20657870697279207468 PUSH1 0x0 DUP3 ADD MSTORE PUSH32 0x726573686F6C6400000000000000000000000000000000000000000000000000 PUSH1 0x20 DUP3 ADD MSTORE POP JUMP JUMPDEST PUSH1 0x0 PUSH2 0x4BC7 PUSH1 0x27 DUP4 PUSH2 0x40D8 JUMP JUMPDEST SWAP2 POP PUSH2 0x4BD2 DUP3 PUSH2 0x4B6B JUMP JUMPDEST PUSH1 0x40 DUP3 ADD SWAP1 POP SWAP2 SWAP1 POP JUMP JUMPDEST PUSH1 0x0 PUSH1 0x20 DUP3 ADD SWAP1 POP DUP2 DUP2 SUB PUSH1 0x0 DUP4 ADD MSTORE PUSH2 0x4BF6 DUP2 PUSH2 0x4BBA JUMP JUMPDEST SWAP1 POP SWAP2 SWAP1 POP JUMP JUMPDEST PUSH32 0x7265736F75726365494420616E642070726F706F73616C2E5F7265736F757263 PUSH1 0x0 DUP3 ADD MSTORE PUSH32 0x654944206D69736D617463680000000000000000000000000000000000000000 PUSH1 0x20 DUP3 ADD MSTORE POP JUMP JUMPDEST PUSH1 0x0 PUSH2 0x4C59 PUSH1 0x2C DUP4 PUSH2 0x40D8 JUMP JUMPDEST SWAP2 POP PUSH2 0x4C64 DUP3 PUSH2 0x4BFD JUMP JUMPDEST PUSH1 0x40 DUP3 ADD SWAP1 POP SWAP2 SWAP1 POP JUMP JUMPDEST PUSH1 0x0 PUSH1 0x20 DUP3 ADD SWAP1 POP DUP2 DUP2 SUB PUSH1 0x0 DUP4 ADD MSTORE PUSH2 0x4C88 DUP2 PUSH2 0x4C4C JUMP JUMPDEST SWAP1 POP SWAP2 SWAP1 POP JUMP JUMPDEST PUSH32 0x70726F706F73616C20616C7265616479207472616E7366657272656400000000 PUSH1 0x0 DUP3 ADD MSTORE POP JUMP JUMPDEST PUSH1 0x0 PUSH2 0x4CC5 PUSH1 0x1C DUP4 PUSH2 0x40D8 JUMP JUMPDEST SWAP2 POP PUSH2 0x4CD0 DUP3 PUSH2 0x4C8F JUMP JUMPDEST PUSH1 0x20 DUP3 ADD SWAP1 POP SWAP2 SWAP1 POP JUMP JUMPDEST PUSH1 0x0 PUSH1 0x20 DUP3 ADD SWAP1 POP DUP2 DUP2 SUB PUSH1 0x0 DUP4 ADD MSTORE PUSH2 0x4CF4 DUP2 PUSH2 0x4CB8 JUMP JUMPDEST SWAP1 POP SWAP2 SWAP1 POP JUMP JUMPDEST PUSH32 0x6461746120646F65736E2774206D617463682064617461686173680000000000 PUSH1 0x0 DUP3 ADD MSTORE POP JUMP JUMPDEST PUSH1 0x0 PUSH2 0x4D31 PUSH1 0x1B DUP4 PUSH2 0x40D8 JUMP JUMPDEST SWAP2 POP PUSH2 0x4D3C DUP3 PUSH2 0x4CFB JUMP JUMPDEST PUSH1 0x20 DUP3 ADD SWAP1 POP SWAP2 SWAP1 POP JUMP JUMPDEST PUSH1 0x0 PUSH1 0x20 DUP3 ADD SWAP1 POP DUP2 DUP2 SUB PUSH1 0x0 DUP4 ADD MSTORE PUSH2 0x4D60 DUP2 PUSH2 0x4D24 JUMP JUMPDEST SWAP1 POP SWAP2 SWAP1 POP JUMP JUMPDEST PUSH1 0x0 PUSH1 0x40 DUP3 ADD SWAP1 POP PUSH2 0x4D7C PUSH1 0x0 DUP4 ADD DUP7 PUSH2 0x3629 JUMP JUMPDEST DUP2 DUP2 SUB PUSH1 0x20 DUP4 ADD MSTORE PUSH2 0x4D8F DUP2 DUP5 DUP7 PUSH2 0x44D9 JUMP JUMPDEST SWAP1 POP SWAP5 SWAP4 POP POP POP POP JUMP JUMPDEST PUSH1 0x0 PUSH1 0x20 DUP3 DUP5 SUB SLT ISZERO PUSH2 0x4DAF JUMPI PUSH2 0x4DAE PUSH2 0x3218 JUMP JUMPDEST JUMPDEST PUSH1 0x0 PUSH2 0x4DBD DUP5 DUP3 DUP6 ADD PUSH2 0x3C50 JUMP JUMPDEST SWAP2 POP POP SWAP3 SWAP2 POP POP JUMP JUMPDEST PUSH1 0x0 PUSH1 0x60 DUP3 ADD SWAP1 POP PUSH2 0x4DDB PUSH1 0x0 DUP4 ADD DUP7 PUSH2 0x3D0B JUMP JUMPDEST PUSH2 0x4DE8 PUSH1 0x20 DUP4 ADD DUP6 PUSH2 0x3D0B JUMP JUMPDEST PUSH2 0x4DF5 PUSH1 0x40 DUP4 ADD DUP5 PUSH2 0x3AEC JUMP JUMPDEST SWAP5 SWAP4 POP POP POP POP JUMP JUMPDEST PUSH2 0x4E06 DUP2 PUSH2 0x3C27 JUMP JUMPDEST DUP3 MSTORE POP POP JUMP JUMPDEST PUSH1 0x0 PUSH1 0x40 DUP3 ADD SWAP1 POP PUSH2 0x4E21 PUSH1 0x0 DUP4 ADD DUP6 PUSH2 0x4DFD JUMP JUMPDEST PUSH2 0x4E2E PUSH1 0x20 DUP4 ADD DUP5 PUSH2 0x3AEC JUMP JUMPDEST SWAP4 SWAP3 POP POP POP JUMP JUMPDEST PUSH1 0x0 PUSH1 0x60 DUP3 ADD SWAP1 POP PUSH2 0x4E4A PUSH1 0x0 DUP4 ADD DUP7 PUSH2 0x3629 JUMP JUMPDEST PUSH2 0x4E57 PUSH1 0x20 DUP4 ADD DUP6 PUSH2 0x4DFD JUMP JUMPDEST PUSH2 0x4E64 PUSH1 0x40 DUP4 ADD DUP5 PUSH2 0x3AEC JUMP JUMPDEST SWAP5 SWAP4 POP POP POP POP JUMP JUMPDEST PUSH32 0x68616E646C657220616464726573732069732030783000000000000000000000 PUSH1 0x0 DUP3 ADD MSTORE POP JUMP JUMPDEST PUSH1 0x0 PUSH2 0x4EA2 PUSH1 0x16 DUP4 PUSH2 0x40D8 JUMP JUMPDEST SWAP2 POP PUSH2 0x4EAD DUP3 PUSH2 0x4E6C JUMP JUMPDEST PUSH1 0x20 DUP3 ADD SWAP1 POP SWAP2 SWAP1 POP JUMP JUMPDEST PUSH1 0x0 PUSH1 0x20 DUP3 ADD SWAP1 POP DUP2 DUP2 SUB PUSH1 0x0 DUP4 ADD MSTORE PUSH2 0x4ED1 DUP2 PUSH2 0x4E95 JUMP JUMPDEST SWAP1 POP SWAP2 SWAP1 POP JUMP JUMPDEST PUSH1 0x0 PUSH1 0x40 DUP3 ADD SWAP1 POP PUSH2 0x4EED PUSH1 0x0 DUP4 ADD DUP6 PUSH2 0x3629 JUMP JUMPDEST PUSH2 0x4EFA PUSH1 0x20 DUP4 ADD DUP5 PUSH2 0x3AEC JUMP JUMPDEST SWAP4 SWAP3 POP POP POP JUMP JUMPDEST PUSH1 0x0 DUP2 MLOAD SWAP1 POP PUSH2 0x4F10 DUP2 PUSH2 0x399B JUMP JUMPDEST SWAP3 SWAP2 POP POP JUMP JUMPDEST PUSH1 0x0 PUSH1 0x20 DUP3 DUP5 SUB SLT ISZERO PUSH2 0x4F2C JUMPI PUSH2 0x4F2B PUSH2 0x3218 JUMP JUMPDEST JUMPDEST PUSH1 0x0 PUSH2 0x4F3A DUP5 DUP3 DUP6 ADD PUSH2 0x4F01 JUMP JUMPDEST SWAP2 POP POP SWAP3 SWAP2 POP POP JUMP JUMPDEST PUSH2 0x4F4C DUP2 PUSH2 0x3222 JUMP JUMPDEST DUP3 MSTORE POP POP JUMP JUMPDEST PUSH1 0x0 PUSH1 0x80 DUP3 ADD SWAP1 POP PUSH2 0x4F67 PUSH1 0x0 DUP4 ADD DUP8 PUSH2 0x3629 JUMP JUMPDEST PUSH2 0x4F74 PUSH1 0x20 DUP4 ADD DUP7 PUSH2 0x3D0B JUMP JUMPDEST PUSH2 0x4F81 PUSH1 0x40 DUP4 ADD DUP6 PUSH2 0x4F43 JUMP JUMPDEST PUSH2 0x4F8E PUSH1 0x60 DUP4 ADD DUP5 PUSH2 0x4F43 JUMP JUMPDEST SWAP6 SWAP5 POP POP POP POP POP JUMP JUMPDEST PUSH1 0x0 PUSH1 0xC0 DUP3 ADD SWAP1 POP PUSH2 0x4FAC PUSH1 0x0 DUP4 ADD DUP10 PUSH2 0x3D0B JUMP JUMPDEST PUSH2 0x4FB9 PUSH1 0x20 DUP4 ADD DUP9 PUSH2 0x3629 JUMP JUMPDEST PUSH2 0x4FC6 PUSH1 0x40 DUP4 ADD DUP8 PUSH2 0x32B3 JUMP JUMPDEST PUSH2 0x4FD3 PUSH1 0x60 DUP4 ADD DUP7 PUSH2 0x3AEC JUMP JUMPDEST PUSH2 0x4FE0 PUSH1 0x80 DUP4 ADD DUP6 PUSH2 0x32B3 JUMP JUMPDEST PUSH2 0x4FED PUSH1 0xA0 DUP4 ADD DUP5 PUSH2 0x3AEC JUMP JUMPDEST SWAP8 SWAP7 POP POP POP POP POP POP POP JUMP JUMPDEST PUSH32 0x5061757361626C653A2070617573656400000000000000000000000000000000 PUSH1 0x0 DUP3 ADD MSTORE POP JUMP JUMPDEST PUSH1 0x0 PUSH2 0x502E PUSH1 0x10 DUP4 PUSH2 0x40D8 JUMP JUMPDEST SWAP2 POP PUSH2 0x5039 DUP3 PUSH2 0x4FF8 JUMP JUMPDEST PUSH1 0x20 DUP3 ADD SWAP1 POP SWAP2 SWAP1 POP JUMP JUMPDEST PUSH1 0x0 PUSH1 0x20 DUP3 ADD SWAP1 POP DUP2 DUP2 SUB PUSH1 0x0 DUP4 ADD MSTORE PUSH2 0x505D DUP2 PUSH2 0x5021 JUMP JUMPDEST SWAP1 POP SWAP2 SWAP1 POP JUMP JUMPDEST PUSH32 0x73656E64657220646F65736E277420686176652061646D696E20726F6C650000 PUSH1 0x0 DUP3 ADD MSTORE POP JUMP JUMPDEST PUSH1 0x0 PUSH2 0x509A PUSH1 0x1E DUP4 PUSH2 0x40D8 JUMP JUMPDEST SWAP2 POP PUSH2 0x50A5 DUP3 PUSH2 0x5064 JUMP JUMPDEST PUSH1 0x20 DUP3 ADD SWAP1 POP SWAP2 SWAP1 POP JUMP JUMPDEST PUSH1 0x0 PUSH1 0x20 DUP3 ADD SWAP1 POP DUP2 DUP2 SUB PUSH1 0x0 DUP4 ADD MSTORE PUSH2 0x50C9 DUP2 PUSH2 0x508D JUMP JUMPDEST SWAP1 POP SWAP2 SWAP1 POP JUMP JUMPDEST PUSH32 0x73656E646572206973206E6F742072656C61796572206F722061646D696E0000 PUSH1 0x0 DUP3 ADD MSTORE POP JUMP JUMPDEST PUSH1 0x0 PUSH2 0x5106 PUSH1 0x1E DUP4 PUSH2 0x40D8 JUMP JUMPDEST SWAP2 POP PUSH2 0x5111 DUP3 PUSH2 0x50D0 JUMP JUMPDEST PUSH1 0x20 DUP3 ADD SWAP1 POP SWAP2 SWAP1 POP JUMP JUMPDEST PUSH1 0x0 PUSH1 0x20 DUP3 ADD SWAP1 POP DUP2 DUP2 SUB PUSH1 0x0 DUP4 ADD MSTORE PUSH2 0x5135 DUP2 PUSH2 0x50F9 JUMP JUMPDEST SWAP1 POP SWAP2 SWAP1 POP JUMP JUMPDEST PUSH32 0x73656E64657220646F65736E277420686176652072656C6179657220726F6C65 PUSH1 0x0 DUP3 ADD MSTORE POP JUMP JUMPDEST PUSH1 0x0 PUSH2 0x5172 PUSH1 0x20 DUP4 PUSH2 0x40D8 JUMP JUMPDEST SWAP2 POP PUSH2 0x517D DUP3 PUSH2 0x513C JUMP JUMPDEST PUSH1 0x20 DUP3 ADD SWAP1 POP SWAP2 SWAP1 POP JUMP JUMPDEST PUSH1 0x0 PUSH1 0x20 DUP3 ADD SWAP1 POP DUP2 DUP2 SUB PUSH1 0x0 DUP4 ADD MSTORE PUSH2 0x51A1 DUP2 PUSH2 0x5165 JUMP JUMPDEST SWAP1 POP SWAP2 SWAP1 POP JUMP JUMPDEST PUSH32 0x73656E646572206D75737420686176652066656520776974686472617720726F PUSH1 0x0 DUP3 ADD MSTORE PUSH32 0x6C65000000000000000000000000000000000000000000000000000000000000 PUSH1 0x20 DUP3 ADD MSTORE POP JUMP JUMPDEST PUSH1 0x0 PUSH2 0x5204 PUSH1 0x22 DUP4 PUSH2 0x40D8 JUMP JUMPDEST SWAP2 POP PUSH2 0x520F DUP3 PUSH2 0x51A8 JUMP JUMPDEST PUSH1 0x40 DUP3 ADD SWAP1 POP SWAP2 SWAP1 POP JUMP JUMPDEST PUSH1 0x0 PUSH1 0x20 DUP3 ADD SWAP1 POP DUP2 DUP2 SUB PUSH1 0x0 DUP4 ADD MSTORE PUSH2 0x5233 DUP2 PUSH2 0x51F7 JUMP JUMPDEST SWAP1 POP SWAP2 SWAP1 POP JUMP JUMPDEST PUSH32 0x73656E646572206973206E6F742061646D696E206F7220666565207365747465 PUSH1 0x0 DUP3 ADD MSTORE PUSH32 0x7200000000000000000000000000000000000000000000000000000000000000 PUSH1 0x20 DUP3 ADD MSTORE POP JUMP JUMPDEST PUSH1 0x0 PUSH2 0x5296 PUSH1 0x21 DUP4 PUSH2 0x40D8 JUMP JUMPDEST SWAP2 POP PUSH2 0x52A1 DUP3 PUSH2 0x523A JUMP JUMPDEST PUSH1 0x40 DUP3 ADD SWAP1 POP SWAP2 SWAP1 POP JUMP JUMPDEST PUSH1 0x0 PUSH1 0x20 DUP3 ADD SWAP1 POP DUP2 DUP2 SUB PUSH1 0x0 DUP4 ADD MSTORE PUSH2 0x52C5 DUP2 PUSH2 0x5289 JUMP JUMPDEST SWAP1 POP SWAP2 SWAP1 POP JUMP JUMPDEST PUSH32 0x5061757361626C653A206E6F7420706175736564000000000000000000000000 PUSH1 0x0 DUP3 ADD MSTORE POP JUMP JUMPDEST PUSH1 0x0 PUSH2 0x5302 PUSH1 0x14 DUP4 PUSH2 0x40D8 JUMP JUMPDEST SWAP2 POP PUSH2 0x530D DUP3 PUSH2 0x52CC JUMP JUMPDEST PUSH1 0x20 DUP3 ADD SWAP1 POP SWAP2 SWAP1 POP JUMP JUMPDEST PUSH1 0x0 PUSH1 0x20 DUP3 ADD SWAP1 POP DUP2 DUP2 SUB PUSH1 0x0 DUP4 ADD MSTORE PUSH2 0x5331 DUP2 PUSH2 0x52F5 JUMP JUMPDEST SWAP1 POP SWAP2 SWAP1 POP JUMP INVALID LOG2 PUSH5 0x6970667358 0x22 SLT KECCAK256 0xC7 PC PUSH16 0x9D7ABF6EA0D563F1FA32E684620B4E5D 0xEA REVERT BALANCE DUP2 0x5F LOG4 PUSH5 0xBA76349F57 DUP8 PUSH5 0x736F6C6343 STOP ADDMOD LT STOP CALLER "
		},
		"gasEstimates": {
			"creation": {
				"codeDepositCost": "4271600",
				"executionCost": "infinite",
				"totalCost": "infinite"
			},
			"external": {
				"DEFAULT_ADMIN_ROLE()": "424",
				"FEE_SETTER_ROLE()": "439",
				"FEE_WITHDRAWER_ROLE()": "396",
				"RELAYER_ROLE()": "374",
				"_chainID()": "infinite",
				"_depositCounts(uint8)": "2870",
				"_depositRecords(uint64,uint8)": "infinite",
				"_expiry()": "2518",
				"_hasVotedOnProposal(uint72,bytes32,address)": "3459",
				"_proposals(uint72,bytes32)": "infinite",
				"_relayerThreshold()": "2473",
				"_resourceIDToHandlerAddress(bytes32)": "2929",
				"_roleGrantSum(bytes32)": "2898",
				"_totalProposals()": "2496",
				"adminChangeExpiry(uint256)": "26190",
				"adminChangeRelayerThreshold(uint256)": "26169",
				"adminPauseTransfers()": "30483",
				"adminSetBurnable(address,address)": "infinite",
				"adminSetETH(address,address,bool)": "infinite",
				"adminSetFeeToken(bytes32,address)": "infinite",
				"adminSetGenericResource(address,bytes32,address,bytes4,bytes4)": "infinite",
				"adminSetResource(address,bytes32,address)": "infinite",
				"adminUnpauseTransfers()": "30479",
				"adminWithdraw(address,address,address,uint256)": "infinite",
				"adminWithdrawETH(address,address,uint256)": "infinite",
				"cancelProposal(uint8,uint64,bytes32)": "infinite",
				"deposit(uint8,bytes32,bytes)": "infinite",
				"executeProposal(uint8,uint64,bytes,bytes32)": "infinite",
				"getFeeBalance(bytes32)": "infinite",
				"getProposal(uint8,uint64,bytes32)": "infinite",
				"getRoleAdmin(bytes32)": "infinite",
				"grantRole(bytes32,address)": "infinite",
				"hasRole(bytes32,address)": "3274",
				"isRelayer(address)": "3149",
				"paused()": "2524",
				"renounceAdmin(address)": "infinite",
				"renounceRole(bytes32,address)": "infinite",
				"revokeRole(bytes32,address)": "infinite",
				"setFee(bytes32,uint256)": "infinite",
				"setFeeRate(bytes32,uint256)": "infinite",
				"setUserFee(address,bytes32,bool,uint256,bool,uint256)": "infinite",
				"supportsInterface(bytes4)": "774",
				"transferFunds(address[],uint256[])": "infinite",
				"voteProposal(uint8,uint64,bytes32,bytes32)": "infinite",
				"withdrawFee(bytes32,address,uint256)": "infinite"
			},
			"internal": {
				"_onlyAdmin()": "infinite",
				"_onlyAdminOrFeeSetter()": "infinite",
				"_onlyAdminOrRelayer()": "infinite",
				"_onlyFeeWithdraw()": "infinite",
				"_onlyRelayers()": "infinite"
			}
		},
		"methodIdentifiers": {
			"DEFAULT_ADMIN_ROLE()": "a217fddf",
			"FEE_SETTER_ROLE()": "e9347683",
			"FEE_WITHDRAWER_ROLE()": "c4c6cd41",
			"RELAYER_ROLE()": "926d7d7f",
			"_chainID()": "beab7131",
			"_depositCounts(uint8)": "4b0b919d",
			"_depositRecords(uint64,uint8)": "3ee7094a",
			"_expiry()": "c5ec8970",
			"_hasVotedOnProposal(uint72,bytes32,address)": "7febe63f",
			"_proposals(uint72,bytes32)": "50598719",
			"_relayerThreshold()": "d7a9cd79",
			"_resourceIDToHandlerAddress(bytes32)": "84db809f",
			"_roleGrantSum(bytes32)": "cd1a0322",
			"_totalProposals()": "9d5773e0",
			"adminChangeExpiry(uint256)": "7d026d96",
			"adminChangeRelayerThreshold(uint256)": "4e056005",
			"adminPauseTransfers()": "80ae1c28",
			"adminSetBurnable(address,address)": "8c0c2631",
			"adminSetETH(address,address,bool)": "12791c4e",
			"adminSetFeeToken(bytes32,address)": "280ce54e",
			"adminSetGenericResource(address,bytes32,address,bytes4,bytes4)": "e8437ee7",
			"adminSetResource(address,bytes32,address)": "cb10f215",
			"adminUnpauseTransfers()": "ffaac0eb",
			"adminWithdraw(address,address,address,uint256)": "780cf004",
			"adminWithdrawETH(address,address,uint256)": "83a69336",
			"cancelProposal(uint8,uint64,bytes32)": "17f03ce5",
			"deposit(uint8,bytes32,bytes)": "05e2ca17",
			"executeProposal(uint8,uint64,bytes,bytes32)": "4454b20d",
			"getFeeBalance(bytes32)": "deb4b6d7",
			"getProposal(uint8,uint64,bytes32)": "a9cf69fa",
			"getRoleAdmin(bytes32)": "248a9ca3",
			"grantRole(bytes32,address)": "2f2ff15d",
			"hasRole(bytes32,address)": "91d14854",
			"isRelayer(address)": "541d5548",
			"paused()": "5c975abb",
			"renounceAdmin(address)": "5e1fab0f",
			"renounceRole(bytes32,address)": "36568abe",
			"revokeRole(bytes32,address)": "d547741f",
			"setFee(bytes32,uint256)": "b96f8f32",
			"setFeeRate(bytes32,uint256)": "bc7a16b7",
			"setUserFee(address,bytes32,bool,uint256,bool,uint256)": "fe1f7665",
			"supportsInterface(bytes4)": "01ffc9a7",
			"transferFunds(address[],uint256[])": "4603ae38",
			"voteProposal(uint8,uint64,bytes32,bytes32)": "1ff013f1",
			"withdrawFee(bytes32,address,uint256)": "83d3f95d"
		}
	},
	"abi": [
		{
			"inputs": [
				{
					"internalType": "uint8",
					"name": "chainID",
					"type": "uint8"
				},
				{
					"internalType": "address[]",
					"name": "initialRelayers",
					"type": "address[]"
				},
				{
					"internalType": "uint256",
					"name": "initialRelayerThreshold",
					"type": "uint256"
				},
				{
					"internalType": "uint256",
					"name": "expiry",
					"type": "uint256"
				}
			],
			"stateMutability": "nonpayable",
			"type": "constructor"
		},
		{
			"anonymous": false,
			"inputs": [
				{
					"indexed": true,
					"internalType": "uint8",
					"name": "destinationChainID",
					"type": "uint8"
				},
				{
					"indexed": true,
					"internalType": "bytes32",
					"name": "resourceID",
					"type": "bytes32"
				},
				{
					"indexed": true,
					"internalType": "uint64",
					"name": "depositNonce",
					"type": "uint64"
				}
			],
			"name": "Deposit",
			"type": "event"
		},
		{
			"anonymous": false,
			"inputs": [
				{
					"indexed": true,
					"internalType": "uint256",
					"name": "newExpiry",
					"type": "uint256"
				}
			],
			"name": "ExpiryChanged",
			"type": "event"
		},
		{
			"anonymous": false,
			"inputs": [
				{
					"indexed": false,
					"internalType": "address",
					"name": "account",
					"type": "address"
				}
			],
			"name": "Paused",
			"type": "event"
		},
		{
			"anonymous": false,
			"inputs": [
				{
					"indexed": true,
					"internalType": "uint8",
					"name": "originChainID",
					"type": "uint8"
				},
				{
					"indexed": true,
					"internalType": "uint64",
					"name": "depositNonce",
					"type": "uint64"
				},
				{
					"indexed": true,
					"internalType": "enum Bridge.ProposalStatus",
					"name": "status",
					"type": "uint8"
				},
				{
					"indexed": false,
					"internalType": "bytes32",
					"name": "resourceID",
					"type": "bytes32"
				},
				{
					"indexed": false,
					"internalType": "bytes32",
					"name": "dataHash",
					"type": "bytes32"
				}
			],
			"name": "ProposalEvent",
			"type": "event"
		},
		{
			"anonymous": false,
			"inputs": [
				{
					"indexed": true,
					"internalType": "uint8",
					"name": "originChainID",
					"type": "uint8"
				},
				{
					"indexed": true,
					"internalType": "uint64",
					"name": "depositNonce",
					"type": "uint64"
				},
				{
					"indexed": true,
					"internalType": "enum Bridge.ProposalStatus",
					"name": "status",
					"type": "uint8"
				},
				{
					"indexed": false,
					"internalType": "bytes32",
					"name": "resourceID",
					"type": "bytes32"
				}
			],
			"name": "ProposalVote",
			"type": "event"
		},
		{
			"anonymous": false,
			"inputs": [
				{
					"indexed": true,
					"internalType": "uint256",
					"name": "newThreshold",
					"type": "uint256"
				}
			],
			"name": "RelayerThresholdChanged",
			"type": "event"
		},
		{
			"anonymous": false,
			"inputs": [
				{
					"indexed": true,
					"internalType": "bytes32",
					"name": "role",
					"type": "bytes32"
				},
				{
					"indexed": true,
					"internalType": "address",
					"name": "addr",
					"type": "address"
				}
			],
			"name": "RoleAdded",
			"type": "event"
		},
		{
			"anonymous": false,
			"inputs": [
				{
					"indexed": true,
					"internalType": "bytes32",
					"name": "role",
					"type": "bytes32"
				},
				{
					"indexed": true,
					"internalType": "bytes32",
					"name": "previousAdminRole",
					"type": "bytes32"
				},
				{
					"indexed": true,
					"internalType": "bytes32",
					"name": "newAdminRole",
					"type": "bytes32"
				}
			],
			"name": "RoleAdminChanged",
			"type": "event"
		},
		{
			"anonymous": false,
			"inputs": [
				{
					"indexed": true,
					"internalType": "bytes32",
					"name": "role",
					"type": "bytes32"
				},
				{
					"indexed": true,
					"internalType": "address",
					"name": "account",
					"type": "address"
				},
				{
					"indexed": true,
					"internalType": "address",
					"name": "sender",
					"type": "address"
				}
			],
			"name": "RoleGranted",
			"type": "event"
		},
		{
			"anonymous": false,
			"inputs": [
				{
					"indexed": true,
					"internalType": "bytes32",
					"name": "role",
					"type": "bytes32"
				},
				{
					"indexed": true,
					"internalType": "address",
					"name": "addr",
					"type": "address"
				}
			],
			"name": "RoleRemoved",
			"type": "event"
		},
		{
			"anonymous": false,
			"inputs": [
				{
					"indexed": true,
					"internalType": "bytes32",
					"name": "role",
					"type": "bytes32"
				},
				{
					"indexed": true,
					"internalType": "address",
					"name": "account",
					"type": "address"
				},
				{
					"indexed": true,
					"internalType": "address",
					"name": "sender",
					"type": "address"
				}
			],
			"name": "RoleRevoked",
			"type": "event"
		},
		{
			"anonymous": false,
			"inputs": [
				{
					"indexed": false,
					"internalType": "address",
					"name": "account",
					"type": "address"
				}
			],
			"name": "Unpaused",
			"type": "event"
		},
		{
			"inputs": [],
			"name": "DEFAULT_ADMIN_ROLE",
			"outputs": [
				{
					"internalType": "bytes32",
					"name": "",
					"type": "bytes32"
				}
			],
			"stateMutability": "view",
			"type": "function"
		},
		{
			"inputs": [],
			"name": "FEE_SETTER_ROLE",
			"outputs": [
				{
					"internalType": "bytes32",
					"name": "",
					"type": "bytes32"
				}
			],
			"stateMutability": "view",
			"type": "function"
		},
		{
			"inputs": [],
			"name": "FEE_WITHDRAWER_ROLE",
			"outputs": [
				{
					"internalType": "bytes32",
					"name": "",
					"type": "bytes32"
				}
			],
			"stateMutability": "view",
			"type": "function"
		},
		{
			"inputs": [],
			"name": "RELAYER_ROLE",
			"outputs": [
				{
					"internalType": "bytes32",
					"name": "",
					"type": "bytes32"
				}
			],
			"stateMutability": "view",
			"type": "function"
		},
		{
			"inputs": [],
			"name": "_chainID",
			"outputs": [
				{
					"internalType": "uint8",
					"name": "",
					"type": "uint8"
				}
			],
			"stateMutability": "view",
			"type": "function"
		},
		{
			"inputs": [
				{
					"internalType": "uint8",
					"name": "",
					"type": "uint8"
				}
			],
			"name": "_depositCounts",
			"outputs": [
				{
					"internalType": "uint64",
					"name": "",
					"type": "uint64"
				}
			],
			"stateMutability": "view",
			"type": "function"
		},
		{
			"inputs": [
				{
					"internalType": "uint64",
					"name": "",
					"type": "uint64"
				},
				{
					"internalType": "uint8",
					"name": "",
					"type": "uint8"
				}
			],
			"name": "_depositRecords",
			"outputs": [
				{
					"internalType": "bytes",
					"name": "",
					"type": "bytes"
				}
			],
			"stateMutability": "view",
			"type": "function"
		},
		{
			"inputs": [],
			"name": "_expiry",
			"outputs": [
				{
					"internalType": "uint256",
					"name": "",
					"type": "uint256"
				}
			],
			"stateMutability": "view",
			"type": "function"
		},
		{
			"inputs": [
				{
					"internalType": "uint72",
					"name": "",
					"type": "uint72"
				},
				{
					"internalType": "bytes32",
					"name": "",
					"type": "bytes32"
				},
				{
					"internalType": "address",
					"name": "",
					"type": "address"
				}
			],
			"name": "_hasVotedOnProposal",
			"outputs": [
				{
					"internalType": "bool",
					"name": "",
					"type": "bool"
				}
			],
			"stateMutability": "view",
			"type": "function"
		},
		{
			"inputs": [
				{
					"internalType": "uint72",
					"name": "",
					"type": "uint72"
				},
				{
					"internalType": "bytes32",
					"name": "",
					"type": "bytes32"
				}
			],
			"name": "_proposals",
			"outputs": [
				{
					"internalType": "bytes32",
					"name": "_resourceID",
					"type": "bytes32"
				},
				{
					"internalType": "bytes32",
					"name": "_dataHash",
					"type": "bytes32"
				},
				{
					"internalType": "enum Bridge.ProposalStatus",
					"name": "_status",
					"type": "uint8"
				},
				{
					"internalType": "uint256",
					"name": "_proposedBlock",
					"type": "uint256"
				}
			],
			"stateMutability": "view",
			"type": "function"
		},
		{
			"inputs": [],
			"name": "_relayerThreshold",
			"outputs": [
				{
					"internalType": "uint256",
					"name": "",
					"type": "uint256"
				}
			],
			"stateMutability": "view",
			"type": "function"
		},
		{
			"inputs": [
				{
					"internalType": "bytes32",
					"name": "",
					"type": "bytes32"
				}
			],
			"name": "_resourceIDToHandlerAddress",
			"outputs": [
				{
					"internalType": "address",
					"name": "",
					"type": "address"
				}
			],
			"stateMutability": "view",
			"type": "function"
		},
		{
			"inputs": [
				{
					"internalType": "bytes32",
					"name": "",
					"type": "bytes32"
				}
			],
			"name": "_roleGrantSum",
			"outputs": [
				{
					"internalType": "uint256",
					"name": "",
					"type": "uint256"
				}
			],
			"stateMutability": "view",
			"type": "function"
		},
		{
			"inputs": [],
			"name": "_totalProposals",
			"outputs": [
				{
					"internalType": "uint256",
					"name": "",
					"type": "uint256"
				}
			],
			"stateMutability": "view",
			"type": "function"
		},
		{
			"inputs": [
				{
					"internalType": "uint256",
					"name": "newExpiry",
					"type": "uint256"
				}
			],
			"name": "adminChangeExpiry",
			"outputs": [],
			"stateMutability": "nonpayable",
			"type": "function"
		},
		{
			"inputs": [
				{
					"internalType": "uint256",
					"name": "newThreshold",
					"type": "uint256"
				}
			],
			"name": "adminChangeRelayerThreshold",
			"outputs": [],
			"stateMutability": "nonpayable",
			"type": "function"
		},
		{
			"inputs": [],
			"name": "adminPauseTransfers",
			"outputs": [],
			"stateMutability": "nonpayable",
			"type": "function"
		},
		{
			"inputs": [
				{
					"internalType": "address",
					"name": "handlerAddress",
					"type": "address"
				},
				{
					"internalType": "address",
					"name": "tokenAddress",
					"type": "address"
				}
			],
			"name": "adminSetBurnable",
			"outputs": [],
			"stateMutability": "nonpayable",
			"type": "function"
		},
		{
			"inputs": [
				{
					"internalType": "address",
					"name": "handlerAddress",
					"type": "address"
				},
				{
					"internalType": "address",
					"name": "tokenAddress",
					"type": "address"
				},
				{
					"internalType": "bool",
					"name": "isETH",
					"type": "bool"
				}
			],
			"name": "adminSetETH",
			"outputs": [],
			"stateMutability": "nonpayable",
			"type": "function"
		},
		{
			"inputs": [
				{
					"internalType": "bytes32",
					"name": "resourceID",
					"type": "bytes32"
				},
				{
					"internalType": "address",
					"name": "tokenAddress",
					"type": "address"
				}
			],
			"name": "adminSetFeeToken",
			"outputs": [],
			"stateMutability": "nonpayable",
			"type": "function"
		},
		{
			"inputs": [
				{
					"internalType": "address",
					"name": "handlerAddress",
					"type": "address"
				},
				{
					"internalType": "bytes32",
					"name": "resourceID",
					"type": "bytes32"
				},
				{
					"internalType": "address",
					"name": "contractAddress",
					"type": "address"
				},
				{
					"internalType": "bytes4",
					"name": "depositFunctionSig",
					"type": "bytes4"
				},
				{
					"internalType": "bytes4",
					"name": "executeFunctionSig",
					"type": "bytes4"
				}
			],
			"name": "adminSetGenericResource",
			"outputs": [],
			"stateMutability": "nonpayable",
			"type": "function"
		},
		{
			"inputs": [
				{
					"internalType": "address",
					"name": "handlerAddress",
					"type": "address"
				},
				{
					"internalType": "bytes32",
					"name": "resourceID",
					"type": "bytes32"
				},
				{
					"internalType": "address",
					"name": "tokenAddress",
					"type": "address"
				}
			],
			"name": "adminSetResource",
			"outputs": [],
			"stateMutability": "nonpayable",
			"type": "function"
		},
		{
			"inputs": [],
			"name": "adminUnpauseTransfers",
			"outputs": [],
			"stateMutability": "nonpayable",
			"type": "function"
		},
		{
			"inputs": [
				{
					"internalType": "address",
					"name": "handlerAddress",
					"type": "address"
				},
				{
					"internalType": "address",
					"name": "tokenAddress",
					"type": "address"
				},
				{
					"internalType": "address",
					"name": "recipient",
					"type": "address"
				},
				{
					"internalType": "uint256",
					"name": "amountOrTokenID",
					"type": "uint256"
				}
			],
			"name": "adminWithdraw",
			"outputs": [],
			"stateMutability": "nonpayable",
			"type": "function"
		},
		{
			"inputs": [
				{
					"internalType": "address",
					"name": "handlerAddress",
					"type": "address"
				},
				{
					"internalType": "address payable",
					"name": "recipient",
					"type": "address"
				},
				{
					"internalType": "uint256",
					"name": "amount",
					"type": "uint256"
				}
			],
			"name": "adminWithdrawETH",
			"outputs": [],
			"stateMutability": "nonpayable",
			"type": "function"
		},
		{
			"inputs": [
				{
					"internalType": "uint8",
					"name": "chainID",
					"type": "uint8"
				},
				{
					"internalType": "uint64",
					"name": "depositNonce",
					"type": "uint64"
				},
				{
					"internalType": "bytes32",
					"name": "dataHash",
					"type": "bytes32"
				}
			],
			"name": "cancelProposal",
			"outputs": [],
			"stateMutability": "nonpayable",
			"type": "function"
		},
		{
			"inputs": [
				{
					"internalType": "uint8",
					"name": "destinationChainID",
					"type": "uint8"
				},
				{
					"internalType": "bytes32",
					"name": "resourceID",
					"type": "bytes32"
				},
				{
					"internalType": "bytes",
					"name": "data",
					"type": "bytes"
				}
			],
			"name": "deposit",
			"outputs": [],
			"stateMutability": "payable",
			"type": "function"
		},
		{
			"inputs": [
				{
					"internalType": "uint8",
					"name": "chainID",
					"type": "uint8"
				},
				{
					"internalType": "uint64",
					"name": "depositNonce",
					"type": "uint64"
				},
				{
					"internalType": "bytes",
					"name": "data",
					"type": "bytes"
				},
				{
					"internalType": "bytes32",
					"name": "resourceID",
					"type": "bytes32"
				}
			],
			"name": "executeProposal",
			"outputs": [],
			"stateMutability": "nonpayable",
			"type": "function"
		},
		{
			"inputs": [
				{
					"internalType": "bytes32",
					"name": "resourceID",
					"type": "bytes32"
				}
			],
			"name": "getFeeBalance",
			"outputs": [
				{
					"internalType": "uint256",
					"name": "",
					"type": "uint256"
				}
			],
			"stateMutability": "view",
			"type": "function"
		},
		{
			"inputs": [
				{
					"internalType": "uint8",
					"name": "originChainID",
					"type": "uint8"
				},
				{
					"internalType": "uint64",
					"name": "depositNonce",
					"type": "uint64"
				},
				{
					"internalType": "bytes32",
					"name": "dataHash",
					"type": "bytes32"
				}
			],
			"name": "getProposal",
			"outputs": [
				{
					"components": [
						{
							"internalType": "bytes32",
							"name": "_resourceID",
							"type": "bytes32"
						},
						{
							"internalType": "bytes32",
							"name": "_dataHash",
							"type": "bytes32"
						},
						{
							"internalType": "address[]",
							"name": "_yesVotes",
							"type": "address[]"
						},
						{
							"internalType": "enum Bridge.ProposalStatus",
							"name": "_status",
							"type": "uint8"
						},
						{
							"internalType": "uint256",
							"name": "_proposedBlock",
							"type": "uint256"
						}
					],
					"internalType": "struct Bridge.Proposal",
					"name": "",
					"type": "tuple"
				}
			],
			"stateMutability": "view",
			"type": "function"
		},
		{
			"inputs": [
				{
					"internalType": "bytes32",
					"name": "role",
					"type": "bytes32"
				}
			],
			"name": "getRoleAdmin",
			"outputs": [
				{
					"internalType": "bytes32",
					"name": "",
					"type": "bytes32"
				}
			],
			"stateMutability": "view",
			"type": "function"
		},
		{
			"inputs": [
				{
					"internalType": "bytes32",
					"name": "role",
					"type": "bytes32"
				},
				{
					"internalType": "address",
					"name": "account",
					"type": "address"
				}
			],
			"name": "grantRole",
			"outputs": [],
			"stateMutability": "nonpayable",
			"type": "function"
		},
		{
			"inputs": [
				{
					"internalType": "bytes32",
					"name": "role",
					"type": "bytes32"
				},
				{
					"internalType": "address",
					"name": "account",
					"type": "address"
				}
			],
			"name": "hasRole",
			"outputs": [
				{
					"internalType": "bool",
					"name": "",
					"type": "bool"
				}
			],
			"stateMutability": "view",
			"type": "function"
		},
		{
			"inputs": [
				{
					"internalType": "address",
					"name": "relayer",
					"type": "address"
				}
			],
			"name": "isRelayer",
			"outputs": [
				{
					"internalType": "bool",
					"name": "",
					"type": "bool"
				}
			],
			"stateMutability": "view",
			"type": "function"
		},
		{
			"inputs": [],
			"name": "paused",
			"outputs": [
				{
					"internalType": "bool",
					"name": "",
					"type": "bool"
				}
			],
			"stateMutability": "view",
			"type": "function"
		},
		{
			"inputs": [
				{
					"internalType": "address",
					"name": "newAdmin",
					"type": "address"
				}
			],
			"name": "renounceAdmin",
			"outputs": [],
			"stateMutability": "nonpayable",
			"type": "function"
		},
		{
			"inputs": [
				{
					"internalType": "bytes32",
					"name": "role",
					"type": "bytes32"
				},
				{
					"internalType": "address",
					"name": "account",
					"type": "address"
				}
			],
			"name": "renounceRole",
			"outputs": [],
			"stateMutability": "nonpayable",
			"type": "function"
		},
		{
			"inputs": [
				{
					"internalType": "bytes32",
					"name": "role",
					"type": "bytes32"
				},
				{
					"internalType": "address",
					"name": "account",
					"type": "address"
				}
			],
			"name": "revokeRole",
			"outputs": [],
			"stateMutability": "nonpayable",
			"type": "function"
		},
		{
			"inputs": [
				{
					"internalType": "bytes32",
					"name": "resourceID",
					"type": "bytes32"
				},
				{
					"internalType": "uint256",
					"name": "amount",
					"type": "uint256"
				}
			],
			"name": "setFee",
			"outputs": [],
			"stateMutability": "nonpayable",
			"type": "function"
		},
		{
			"inputs": [
				{
					"internalType": "bytes32",
					"name": "resourceID",
					"type": "bytes32"
				},
				{
					"internalType": "uint256",
					"name": "rate",
					"type": "uint256"
				}
			],
			"name": "setFeeRate",
			"outputs": [],
			"stateMutability": "nonpayable",
			"type": "function"
		},
		{
			"inputs": [
				{
					"internalType": "address",
					"name": "userAddress",
					"type": "address"
				},
				{
					"internalType": "bytes32",
					"name": "resourceID",
					"type": "bytes32"
				},
				{
					"internalType": "bool",
					"name": "isSetAmount",
					"type": "bool"
				},
				{
					"internalType": "uint256",
					"name": "amount",
					"type": "uint256"
				},
				{
					"internalType": "bool",
					"name": "isSetRate",
					"type": "bool"
				},
				{
					"internalType": "uint256",
					"name": "rate",
					"type": "uint256"
				}
			],
			"name": "setUserFee",
			"outputs": [],
			"stateMutability": "nonpayable",
			"type": "function"
		},
		{
			"inputs": [
				{
					"internalType": "bytes4",
					"name": "interfaceId",
					"type": "bytes4"
				}
			],
			"name": "supportsInterface",
			"outputs": [
				{
					"internalType": "bool",
					"name": "",
					"type": "bool"
				}
			],
			"stateMutability": "view",
			"type": "function"
		},
		{
			"inputs": [
				{
					"internalType": "address payable[]",
					"name": "addrs",
					"type": "address[]"
				},
				{
					"internalType": "uint256[]",
					"name": "amounts",
					"type": "uint256[]"
				}
			],
			"name": "transferFunds",
			"outputs": [],
			"stateMutability": "nonpayable",
			"type": "function"
		},
		{
			"inputs": [
				{
					"internalType": "uint8",
					"name": "chainID",
					"type": "uint8"
				},
				{
					"internalType": "uint64",
					"name": "depositNonce",
					"type": "uint64"
				},
				{
					"internalType": "bytes32",
					"name": "resourceID",
					"type": "bytes32"
				},
				{
					"internalType": "bytes32",
					"name": "dataHash",
					"type": "bytes32"
				}
			],
			"name": "voteProposal",
			"outputs": [],
			"stateMutability": "nonpayable",
			"type": "function"
		},
		{
			"inputs": [
				{
					"internalType": "bytes32",
					"name": "resourceID",
					"type": "bytes32"
				},
				{
					"internalType": "address payable",
					"name": "recipient",
					"type": "address"
				},
				{
					"internalType": "uint256",
					"name": "amount",
					"type": "uint256"
				}
			],
			"name": "withdrawFee",
			"outputs": [],
			"stateMutability": "nonpayable",
			"type": "function"
		}
	]
}